:020000040800F2
:100000002856002029030008773500085D300008D5
:1000100075350008550700086B490008000000000E
:10002000000000000000000000000000690200085D
:10003000CB0C000800000000C5020008CD35000808
:100040004303000843030008430300084303000878
:100050004303000843030008430300084303000868
:100060004303000843030008430300080109000894
:100070000D090008190900082509000831090008C0
:100080003D09000843030008430300084303000838
:100090002D08000843030008430300084303000839
:1000A0004303000843030008430300084303000818
:1000B000A536000843030008430300084303000873
:1000C00043030008430300084303000843030008F8
:1000D00043030008F547000849480008A148000804
:1000E00043030008430300084303000843030008D8
:1000F00043030008430300084303000849090008BC
:1001000043030008430300084303000843030008B7
:10011000853900089D39000843030008430300089F
:10012000430300084303000855090008430300087F
:100130004303000843030008430300084303000887
:100140006D08000843030008430300084303000848
:100150004303000843030008610900084303000843
:100160004303000843030008430300084303000857
:100170004303000843030008430300080000000095
:10018000430300084303000800F002F800F05CF8A5
:100190000AA090E8000C82448344AAF10107DA45E2
:1001A00001D100F051F8AFF2090EBAE80F0013F0D8
:1001B000010F18BFFB1A43F001031847E860000065
:1001C000086100000A444FF0000C10F8013B13F0E6
:1001D000070408BF10F8014B1D1108BF10F8015BA0
:1001E000641E05D010F8016B641E01F8016BF9D193
:1001F00013F0080F1EBF10F8014BAD1C0C1B09D1EA
:100200006D1E58BF01F801CBFAD505E014F8016B5B
:1002100001F8016B6D1EF9D59142D6D370470000ED
:100220000023002400250026103A28BF78C1FBD8FF
:10023000520728BF30C148BF0B6070471FB505F09B
:1002400073FE1FBD10B510BD00F0E7F91146FFF7B2
:10025000F5FF04F08DFF00F005FA03B4FFF7F2FF9D
:1002600003BC00F00DFA00002C4B19680868B0E8D8
:10027000F04F80F30988BFF36F8F4FF0000080F3D9
:10028000118870470000000008480068006880F38B
:1002900008884FF0000080F3148862B661B6BFF39F
:1002A0004F8FBFF36F8F00DF00BF00BF08ED00E08E
:1002B000DFF80C00016841F470010160704700BF75
:1002C00088ED00E0EFF30980BFF36F8F134B1A68DE
:1002D0001EF0100F08BF20ED108A20E9F04F1060CB
:1002E00009B44FF0500080F31188BFF34F8FBFF374
:1002F0006F8F05F051FC4FF0000080F3118809BCAE
:1003000019680868B0E8F04F1EF0100F08BFB0EC95
:10031000108A80F30988BFF36F8F70471C0000209C
:10032000EFF30580704700000948804709480047FF
:10033000FEE7FEE7FEE7FEE7FEE7FEE7FEE7FEE795
:10034000FEE7FEE704480549054A064B70470000F2
:100350009536000889010008285000202856002002
:10036000285200202852002053EA020C00F0698035
:100370002DE9F04B4FF00006002B1FBFB3FA83F5B9
:1003800003FA05F424FA05F65E4012BF1643B2FAEA
:1003900082F502FA05F4C5F120051EBF22FA05FC1C
:1003A00044EA0C04203556EA044C4FEA144418BFC2
:1003B000641C4FF000084FF00009904271EB030CF1
:1003C00039D3002919BFB1FA81F701FA07F6B0FA5B
:1003D00080F700FA07F6C7F120071EBF20FA07FCD6
:1003E00046EA0C062037B6FBF4FCA7EB0507103FE6
:1003F00007F01F0BCBF120060CFA0BFB2CFA06F6CC
:1004000044BFB3460026202FA4BF5E464FF0000B2A
:100410005BEA060C08BF4FF0010B19EB0B09ABFBB5
:10042000027C48EB0608C01B06FB02CC0BFB03CC8E
:1004300071EB0C01C1E70B46024641464846BDE858
:10044000F08B13B54FF000004FF00001AFF30080C8
:10045000BDE81C40704710B5431C02E010F8011BBA
:1004600071B18107FAD14FF0013202C88C1A8C4366
:1004700014EAC211F9D0C01A0A0603D0C01E10BD7A
:10048000C01A10BD0A0401D0801E10BD0902FCD0A4
:10049000401E10BD032A40F2308010F0030C00F023
:1004A000158011F8013BBCF1020F624498BF11F8AE
:1004B00001CB00F8013B38BF11F8013BA2F1040267
:1004C00098BF00F801CB38BF00F8013B11F00303DF
:1004D00000F02580083AC0F0088051F8043B083A43
:1004E00051F804CBA0E80810F5E7121D5CBF51F8E5
:1004F000043B40F8043BAFF30080D20724BF11F85F
:10050000013B11F801CB48BF11F8012B24BF00F8C3
:10051000013B00F801CB48BF00F8012B704710B534
:10052000203AC0F00B80B1E81850203AA0E81850EB
:10053000B1E81850A0E81850BFF4F5AF5FEA027CAC
:1005400024BFB1E81850A0E8185044BF18C918C01B
:10055000BDE810405FEA827C24BF51F8043B40F8BC
:10056000043B08BF7047D20728BF31F8023B48BFA1
:1005700011F8012B28BF20F8023B48BF00F8012BDF
:1005800070474FF000020429C0F0128010F0030CF5
:1005900000F01B80CCF1040CBCF1020F18BF00F876
:1005A000012BA8BF20F8022BA1EB0C0100F00DB825
:1005B0005FEAC17C24BF00F8012B00F8012B48BF83
:1005C00000F8012B70474FF0000200B51346944627
:1005D0009646203922BFA0E80C50A0E80C50B1F19B
:1005E0002001BFF4F7AF090728BFA0E80C5048BFAF
:1005F0000CC05DF804EB890028BF40F8042B08BF4D
:10060000704748BF20F8022B11F0804F18BF00F848
:10061000012B7047704770477047754600F02CF803
:10062000AE4605006946534620F00700854618B0DF
:1006300020B5FFF787FEBDE820404FF000064FF0E1
:1006400000074FF000084FF0000B21F00701AC4607
:10065000ACE8C009ACE8C009ACE8C009ACE8C00926
:100660008D46704710B50446AFF300802046BDE8C4
:100670001040FFF7F2BD000000487047C84F00204F
:1006800001491820ABBEFEE72600020070470000BB
:1006900030B50C4605000CD0022C0AD90548A11E25
:1006A0000288284600F020FB291901F8020D000AF3
:1006B000487030BD8E00002030B50C4605000AD0D1
:1006C000022C08D9601E81B2FF22284600F022FBCE
:1006D000291901F8010C30BDF0B51C48006890F8EC
:1006E0005A10080926D11A4801224FF45274027098
:1006F00000228261024611F00F0C527C4FF470719F
:100700004FF0280511D03C2740F244764FF40C738B
:10071000BCF1010F17D0BCF1020F0CD0BCF1030FDC
:1007200008D1012A04D0468203E0012A08D104E05E
:1007300047828382F0BD012A02D041828582F0BDCA
:1007400041828482F0BD012AF2D1ECE7D80000207A
:10075000684C0020FEE70000F0B5274AFE283FD095
:10076000FF283CD125480B68254FC0F802300C7893
:1007700004704B7843700A20B4FBF0F500FB15457C
:100780009570B4FBF0F5B5FBF0F600FB1655D5708F
:1007900001250026642C01D33D7000E03E70B3FBC0
:1007A000F0F400FB14341471B3FBF0F4B4FBF0F775
:1007B00000FB1740012804D05674642B03D35570F6
:1007C00002E05574F9E75670108990815089D08104
:1007D0004888108188885081C88840BAD080F0BD90
:1007E00008681062087910774879507788795071D5
:1007F000C8799077F0BD0000684C0020840000208C
:10080000D600002000B58BB0684600F035F8694688
:10081000054800F005FB0221034800F08BFA02486E
:1008200000F02CFE0BB000BD3C040020014800F09D
:10083000F2BB00003C040020302802D1084604F03E
:100840002DB9704700B58BB0684600F015F86946C1
:10085000054800F0E5FA0221034800F06BFA02486F
:1008600000F00CFE0BB000BD64040020014800F055
:10087000D2BB00006404002000210160416081605F
:10088000C160016101224161C0E90612C0E908218D
:100890007047000010B50B4C036888B0A34202D02B
:1008A000094CA3420BD10091002102910391082130
:1008B000049106AB694600F04FFA002800D00120F1
:1008C00008B010BD0064004000680040002409E04A
:1008D000012004F0D9FE0024084801F0FAF80120B4
:1008E00004F071FC641CA4B2044801F0F2F8012089
:1008F00004F069FC0B2CF5D3EAE700008C0400201F
:10090000014800F049BE000084070020014800F0C3
:1009100043BE000064090020014800F03DBE000015
:10092000C4060020014800F037BE0000C4090020C2
:10093000014800F031BE000024070020014800F00B
:100940002BBE000004090020014800F025BE000075
:10095000E4070020014800F01FBE0000440800200A
:10096000014800F019BE0000A40800202DE9F04F56
:1009700085680024099E802D18D0894DC563894D56
:10098000456490F83450012D15D0012580F834507D
:1009900090F83550012D10D0002180F83410022439
:1009A000002180F834102046BDE8F08F4FF48071AC
:1009B00041650120F8E70220F6E7022580F835506E
:1009C0000025456505682F6847F480272F60056876
:1009D0002B6103685E608368402B03682AD09960AE
:1009E0000168CA60714D704E704FDFF8BC81DFF84E
:1009F000B891DFF8B8A1DFF8B4B1EA14DFF8A8E1E4
:100A00000168183630379302A9F148090AF1600AE3
:100A10000BF1180BAEF1300E4FF0006C41452DD9A3
:100A2000A94205D0494503D0514501D0B14205D175
:100A3000202220E09A600268D160D3E759451AD09D
:100A4000714518D0594D7835A94214D0564D3035DE
:100A5000A94210D0B9420BD0534A183A914207D05C
:100A6000524A9032914203D04F4A4832914201D1CA
:100A70001A4600E062464C494C392EE0DFF82C81E2
:100A800008F1A80841452AD9A94205D0494503D013
:100A9000514501D0B14201D120221CE059451AD064
:100AA000714518D0414D7835A94214D03E4D3035AE
:100AB000A94210D0B9420BD03B4A183A914207D014
:100AC0003A4A9032914203D0374A4832914201D19A
:100AD0001A4600E06246344950390A605AE0DFF8AD
:100AE000CC8008F1480841452AD9A94205D049459A
:100AF00003D0514501D0B14201D120221CE059451B
:100B00001AD0714518D0294D7835A94214D0264DF8
:100B10003035A94210D0B9420BD0234A183A91423D
:100B200007D0224A9032914203D01F4A4832914264
:100B300001D11A4600E062461C491039CA6029E01A
:100B4000A94205D0494503D0514501D0B14201D158
:100B500020221CE059451AD0714518D0134D783524
:100B6000A94214D0104D3035A94210D0B9420BD053
:100B70000D4A183A914207D00C4A9032914203D064
:100B8000094A4832914201D11A4600E062460749BB
:100B900010398A6001680A6842F001020A60FFE6C3
:100BA0001D4C0008314C000858640240106002409F
:100BB00001681823CAB2103AB2FBF3F2054B6FF387
:100BC0000901032A9B5CC36500D9091D816508469C
:100BD000704700006C5F000810B5014600208B696B
:100BE0008A6A4FF0C07453B1B3F5005F15D072B18B
:100BF000012A0CD0022A0AD0032A09D104E01AB132
:100C0000012A06D0022A03D1C96AC90100D50120F0
:100C100010BDC96AA142FAD010BD002AF7D0012A3E
:100C2000F2D0022AF3D0032AF3D010BD30B5046805
:100C3000256825F480252560046863608368402B5F
:100C4000036803D099600068C26030BD9A60006894
:100C5000C16030BD70B590F834500024012D0CD027
:100C6000012580F8345090F835600025012E06D01B
:100C700080F834500224204670BD022070BD022648
:100C800080F83560456505682E6826F480262E605C
:100C900005686B608368402B036808D09960016821
:100CA000CA600068016841F001010160E3E79A60F1
:100CB0000268D160F5E701680A68D20604D5C96800
:100CC000C90601D504F0BCBD7047704772B6FEE797
:100CD000044A00F57A701060101D01F57A71016008
:100CE000704700003404004010B558B1084C491E4C
:100CF0000BD310F8013B5340DBB234F8133083EAD6
:100D00001222F4E74FF6FF7010BD104610BD000030
:100D10008C60000810B5064C04E000BF10F8013BE1
:100D20005340E25C491E89B2F8D2104610BD000063
:100D30008C5F000890F82020012A07D0022A05D0F5
:100D4000416A41F480214162012070470068426994
:100D50000A43426100207047F0B590F820500468C3
:100D6000A468012D05D0022D03D0416A41F48021F1
:100D700053E014F0406F01D1E5004BD5C4F301649A
:100D8000022C03D9416A41F4000146E00125A54047
:100D90001D608D684FF4C0739DB1CE6835434E68B9
:100DA00045EAC605066803EB0417F5514FF4C27512
:100DB000076805EB04150E697E51097D012905D0F0
:100DC00009E00E88CD6845EA4655EBE701684E59C3
:100DD00046F480764E511179D2F805504FF4C6761C
:100DE00041EA0525016806EB04168D511178D2F809
:100DF00001204FF4C47541EA0221026805EB041595
:100E00005151006803EB0411425842F00102425074
:100E10000020F0BD416A41F4001141620120F0BDA3
:100E200010B590F82020012A07D0022A05D0416A87
:100E300041F480214162012010BD3B48D0F80022DE
:100E400042F00102C0F80022D0F8002222F47C52C5
:100E5000C0F80022D0F800224B6A42EA0322C0F810
:100E600000220A7D02F01F0301229A40D0F81C32B2
:100E70009343C0F81C32CB69B3B9D0F80C3293431A
:100E8000C0F80C328C894B6864F31F434C6900EB4B
:100E9000C404C4F840320C890B6864F31F434C69E6
:100EA00000EBC404C4F84432CB69012B16D1D0F84E
:100EB0000C321343C0F80C320C884B6864F31F43A8
:100EC0004C6900EBC404C4F840320C89CB6864F36D
:100ED0001F434C6900EBC404C4F844328B69002BF7
:100EE000D0F804320ED01343C0F804320B69002B43
:100EF000D0F8143208D01343C0F81432096A01291B
:100F000004D008E09343EFE79343F5E7D0F81C12D1
:100F10001143C0F81C12D0F8001221F00101C0F8F2
:100F20000012002010BD000000640040704730B582
:100F300090F82040012C05D0022C03D0416A41F4E6
:100F400080215DE00468002955D02469A40754D0AD
:100F50004FF4D874056804EB01142D5915F00405FD
:100F6000956005682D594ED0ED08556005682C59DF
:100F700004F00204D4604FF4DA74056804EB011441
:100F80002D5905F00F05156105682D59C5F3072585
:100F9000956105682C59240C54614FF4DC72046887
:100FA00002EB0112A4581C700468A458240A5C7057
:100FB0000468A458240C9C700468A258120EDA70BD
:100FC0004FF4DE72046802EB0112A4581C7104682D
:100FD000A458240A5C710468A458240C9C71046809
:100FE000A258120EDA71006881B1016941F0200146
:100FF0000161002030BDE468A8E7416A41F40011B6
:101000004162012030BD6D0D1560AFE7C16841F050
:101010002001C160EDE72DE9F05F0546006800247E
:101020004669D0F804908768D0F80CB0D0F810A0CA
:10103000D0F81880F10748D0F90714D00121816059
:10104000B80703D5284600F046FA0CE0780702D529
:101050004FF4006407E0380702D54FF4805402E0F3
:10106000284600F037FAF80516D529684FF4807045
:101070008860B80503D5284600F02FFA0CE0780503
:1010800002D544F4005407E0380502D544F4804406
:1010900002E0284600F020FAF80316D529684FF43C
:1010A00080308860B80303D5284600F018FA0CE0B9
:1010B000780302D544F4004407E0380302D544F431
:1010C000803402E0284600F009FA300707D55FEACD
:1010D000CB6004D52968102044F40074C860700700
:1010E0004FF0080707D55FEA0B7004D52868C76082
:1010F000284600F099F9B00706D52868C06880072F
:1011000002D0284600F092F9700607D55FEACA605F
:1011100004D52968102044F480640861B00607D51E
:101120005FEA0A7004D528680761284600F0A2F932
:10113000F00606D528680069800702D0284600F02E
:101140009AF9B00308D55FEAC96005D5296810206F
:101150004860284600F090F9F00307D55FEA09706F
:1011600004D528684760284600F0BAF9300446D50F
:101170005FEA497040D5F00504D55FEAC87001D038
:1011800044F00104B00504D55FEA887001D544F04D
:101190000204700504D55FEA487001D544F00404E8
:1011A000300529D518F0700F26D008F070004028BF
:1011B00015D006DC102809D020280AD0302816D1F6
:1011C0000AE050280ED0602811D10EE044F0080447
:1011D0000DE044F010040AE044F0200407E044F07D
:1011E000400404E044F0800401E044F48074286882
:1011F000816921F070018161296804204860002C18
:1012000005D0686A204368622846FFF78FFEBDE874
:10121000F09F70B5040003D094F8200010B104E0F2
:10122000012070BD204600F081F82068016841F07F
:101230000101016000F01AFC0546052604E000F0FB
:1012400015FC401B0A2811D820684068C007F6D05A
:101250002068016821F00201016000F007FC0546EA
:101260000BE000F003FC401B0A2806D9606A40F43A
:101270000030606284F82060D2E720684068800710
:10128000EFD4207E0128206801683DD021F0800144
:101290000160607E01282068016838D021F040019B
:1012A0000160A07E01282068016833D021F0200170
:1012B0000160E07E0128206801682ED041F0100115
:1012C0000160207F01282068016829D021F00801F1
:1012D0000160607F01282068016824D021F00401AA
:1012E0000160D4E902010843D4E904121143084320
:1012F0006168491E08432168C861002060620120BE
:1013000084F82000002070BD41F08001C0E741F06A
:101310004001C5E741F02001CAE721F01001CFE705
:1013200041F00801D4E741F00401D9E7F0B587B0F6
:10133000044614216846FFF746F9364B3648DFF875
:10134000D0E01968D4F800C0334A032502260927E3
:1013500010300024491CF44522D11960012907D11D
:10136000016841F000710160006800F000700590B4
:10137000106840F0080010601068CDE9005600F0D9
:101380000800CDE9047069462448CDE9024500F023
:1013900075FA00220521142000F028FC142032E008
:1013A000DFF87CE0F44530D1D0F800C04CF0806C20
:1013B000C0F800C0D0F800C001290CF0806CCDF856
:1013C00014C0196007D1016841F000710160006824
:1013D00000F000700590106840F002001060106886
:1013E00002AB00F0020005906020CDE9000683E822
:1013F000B00069460B4800F041FA00220521402068
:1014000000F0F4FB402000F0E3FB07B0F0BD00006B
:10141000006400400800002030380240000C024008
:1014200000680040000402407047000070B50E4B99
:1014300004461D46A3F11C020021FFF778FD0A486F
:101440000A491C388C4205D100682946BDE8704025
:10145000FFF782B906498C4205D100682946BDE8EC
:101460007040FFF7E9B970BD884700203C040020B8
:1014700064040020704770477047000070B5044650
:1014800090F82000012804D0606A40F400206062D7
:1014900018E0022084F820002068016821F0010192
:1014A000016000F0E3FA05460EE000BF00F0DEFA4E
:1014B000401B0A2808D9606A40F4003060620520A9
:1014C00084F82000012070BD20684068C007EDD17D
:1014D000606270BD704770477047704770477047D3
:1014E00070472DE9F0410446876D00F0BFFA0646CB
:1014F00094F835000025022806D08020606584F825
:1015000034500120BDE8F0812068016821F0160107
:1015100001602068416921F080014161206C08B9B7
:10152000A06C20B12068016821F0080101602068EA
:10153000016821F0010101600CE000F097FA801BC6
:10154000052807D920206065032084F8350084F839
:101550003450D7E720680068C007EED194F85C10DB
:101560003F208840B860012084F8350084F834506A
:101570000020C7E790F83510022903D0802141658B
:1015800001207047052180F835100068016821F0BE
:1015900001010160002070472DE9F84304464FF037
:1015A0000009CDF8009063484FF41651A56D00680E
:1015B000B0FBF1F72E6894F85C10082000FA01F1F6
:1015C00031420FD021680A6852070BD50A6822F011
:1015D00004020A6094F85C108840A860606D40F0D6
:1015E0000100606594F85C104FF0010808FA01F002
:1015F000304208D021684969090604D5A860606DA9
:1016000040F00200606594F85C100420884030428D
:1016100008D021680968890704D5A860606D40F08A
:101620000400606594F85C1010208840304218D0A7
:1016300021680968090714D5A86020680168490372
:1016400004D50068000308D5A16C07E00168C9054E
:1016500003D4016821F008010160216C09B1204622
:10166000884794F85C1020208840304231D02168AF
:101670000968C9062DD5A86094F8350005282068AA
:10168000016806D0490347D5006800031DD4616C8A
:101690001CE021F0160101602068416921F0800101
:1016A0004161206C08B9A06C20B12068016821F06C
:1016B0000801016094F85C103F208840A86084F81D
:1016C000358084F83490216D1FE0E16B09B120462C
:1016D0008847606D00282BD0606DC00714D00520AE
:1016E00084F835002068016821F00101016000984C
:1016F000401C0090B84203D820680068C007F6D1AB
:1017000084F8358084F83490E16C002910D001B061
:101710002046BDE8F04308470168C905D5D40168F3
:1017200021F01001016084F8358084F83490CCE712
:10173000BDE8F883180000202DE9F041044600F0D0
:1017400095F906465CB1022084F83500002584F83E
:1017500034502068016821F0010101600DE0012092
:10176000BDE8F08100F082F9801B052805D9202012
:101770006065032084F83500F2E720680068C00740
:10178000F0D12268116820480140D4E901031843D0
:10179000D4E903363343184363691843A3691843F4
:1017A000E3691843236A18430843616A042903D193
:1017B000D4E90B1319430843106020684069666A36
:1017C00020F0070130460E43012704280CD1A06AFF
:1017D0000643E06A40B12046FFF7FEF920B1402001
:1017E000606584F83570BAE7206846612046FFF7E7
:1017F000DFF994F85C203F2191408160656584F8B1
:1018000035700020ACE700003F8010F02DE9F0417A
:101810000446866D90F83400002501280DD0012083
:1018200084F8340094F835700020012F07D084F834
:10183000340002252846BDE8F0810220FBE702279C
:1018400084F8357060652046FFF7F0F994F85C1075
:101850003F208840B0602068016841F016010160B7
:10186000206C20B12068016841F008010160206807
:10187000016841F001010160DCE700002DE9F84F4B
:10188000DFF8BCA1002201250AF1040B03264FF06A
:101890000F090BF1040E00BF0B6805FA02F4234098
:1018A000A34270D10F7907F00307012F01D0022F57
:1018B00016D187684FEA420806FA08FC27EA0C07A7
:1018C000D1F80CC00CFA08FC4CEA070CC0F808C0B0
:1018D0004768A7430C79C4F3001494403C43446028
:1018E0000C79E443A4070AD0C4684FEA420C06FA14
:1018F0000CF7BC438F6807FA0CF72743C7600C79D5
:1019000004F00304022C12D1D40800EB840CDCF8A0
:1019100020405707FF0E09FA07F824EA0804D1F817
:10192000108008FA07F848EA0408CCF82080046818
:101930004FEA420C06FA0CF7BC430F7907F0030795
:1019400007FA0CF7274307604C6814F4403F70D047
:101950003C4C276847F480472760246822F003073F
:1019600004F480440094384C07EB040CDCF808487D
:1019700097074FEA177809FA08F7BC43334FB84284
:1019800002D1002724E054E0314FB84201D10127B1
:101990001EE0304FB84201D1022719E02E4FB84265
:1019A00001D1032714E02D4FB84201D104270FE0E5
:1019B0002B4FB84201D105270AE02A4FB84201D186
:1019C000062705E0284FB84201D1072700E0082785
:1019D00007FA08F72743CCF80878DAF800405746AA
:1019E000D1F804C09C435FEACC3C00D51C433C606A
:1019F000DBF800405F46D1F804C09C435FEA8C3CB2
:101A000000D51C433C60DEF800407746D1F804C0A6
:101A10009C435FEACC2C00D51C433C60084F0C373C
:101A20003C68D1F804C09C435FEA8C2C00D51C4371
:101A30003C60521C102AFFF42FAFBDE8F88F000065
:101A4000003C0140443802400030014000000240A8
:101A50000004024000080240000C02400010024056
:101A60000014024000180240001C02400148806837
:101A7000704700000C00002070B5040011D02168F0
:101A80004CF6CC400860216845F255500860D4E916
:101A9000000141602168A0688860FFF7E7FF054604
:101AA0000DE0012070BD00BFFFF7E0FF401B3128B3
:101AB00005D92068C068800701D0032070BD206868
:101AC000C0688007F0D121684AF6AA20086000208B
:101AD00070BD00684AF6AA2101600020704700002E
:101AE0000248816802781144816070470C00002030
:101AF0000B4810B5016841F400710160016841F4C0
:101B000080610160016841F480710160032000F090
:101B10008DF80F2000F006F800F03EF8002010BD10
:101B2000003C024010B5014688B000221C2000F0A5
:101B30005DF81C2000F04CF814480024016841F0C6
:101B400001010160006805A900F0010006906846E7
:101B500000F018F900F036F90D494000B0FBF1F142
:101B60000C484FF08042491E026040F2E732C0E963
:101B70000324C0E9011400F0A1FB10B1012008B05A
:101B800010BD044800F0F8FBF9E7000040380240BF
:101B900040420F00240A00200C4882B0016841F442
:101BA00080410160006800F4804000900748001FF9
:101BB000016841F0805101600068002200F080500F
:101BC00000900F21901E02B000F010B8443802407F
:101BD000002809DB00F01F0201219140400980002C
:101BE00000F1E020C0F8001170470000F0B40E4B87
:101BF0001B680C46C3F30223C3F10705042D00D96B
:101C00000425191D072901D2002300E0DB1E01264F
:101C100006FA05F1491E214099409E40761E164065
:101C20003143F0BC02F0D5BE0CED00E0064900F0F7
:101C3000070208684FF6FF03184040EA0220034AF3
:101C400010430860704700000CED00E00000FA054A
:101C50002DE9F0470E46050065D0DFF81481D8F86D
:101C60000000F7B200F00700B04207D288F8007019
:101C7000D8F8000000F00700B04254D128683D4C6D
:101C8000810712D5400703D5206840F4E05020605A
:101C90002878000703D5206840F460402060206861
:101CA000A96820F0F000084320602878C0072DD0F4
:101CB000304968680839012812D0022813D0032857
:101CC00011D00968890700292DDA216821F0030164
:101CD00001432160FFF7CAFE814641F2883A0EE0D7
:101CE00009688903EFE709688901ECE7FFF7BEFEA1
:101CF000A0EB0901514502D90320BDE8F087206817
:101D0000696800F00C00B0EB810FEFD1D8F800103B
:101D1000404601F00701B14207D90770006800F0A2
:101D20000700B04201D00120E7E72878400705D539
:101D30002068E96820F4E050084320602878000714
:101D400006D52068296920F4604040EAC10020607F
:101D500000F058F82168084AC1F30311515CC840EB
:101D60000649086006480068FFF7DCFE0020C4E76B
:101D7000003C024008380240745F00081800002050
:101D8000100000200F2202600C4A136803F00303C6
:101D90004360136803F0F0038360136803F4E053B7
:101DA000C36012684FF4E05303EAD20202610448B0
:101DB000006800F007000860704700000838024023
:101DC000003C02400448054900680968044AC1F320
:101DD0008221515CC840704718000020083802403A
:101DE000845F00080448054900680968044AC1F393
:101DF0004231515CC840704718000020083802404A
:101E0000845F0008154810B5006810F00C021448F3
:101E100013D01449042A0FD0082A0ED10F4C241FC6
:101E20002268236802F03F025B0207D52068C0F3F6
:101E30008810A0FB010106E0084610BD2168C1F32F
:101E40008811A1FB00010023FEF78EFA2168C1F37F
:101E50000141491C4900B0FBF1F010BD08380240B7
:101E60000024F40040787D012DE9F84F04006ED085
:101E70002078DFF84C93C007A9F104054AD009F196
:101E800004000168C1F38101012908D00068C0F392
:101E9000810002280AD1D9F80000400206D528683E
:101EA000800337D560680028E1D033E06068B0F582
:101EB000803F10D0B0F5A02F286810D020F48030DB
:101EC0002860286820F4802028606068A8B1FFF7A7
:101ED000CDFD06460DE0286840F48030F4E740F47C
:101EE00080202860F7E700BFFFF7C0FD801B642853
:101EF00073D828688003F7D50CE0FFF7B7FD0646D6
:101F000005E000BFFFF7B2FD801B6428F0D8286809
:101F10008003F7D42078DFF8AC8280074FF0000A06
:101F20003ED5A748001D016811F00C0F08D00068CD
:101F3000C0F3810002280BD1D9F80000400207D479
:101F40002868800716D5E068012800D112E033E147
:101F5000E068B8B10120C8F80000FFF787FD064629
:101F600005E000BFFFF782FD801B0228C0D828686B
:101F70008007F7D52868216920F0F80040EAC10001
:101F800028600DE0C8F800A0FFF770FD064604E0E9
:101F9000FFF76CFD801B02281FD828688007F7D444
:101FA0002078000722D5864F87486169703771B164
:101FB00001210160FFF75AFD064604E0FFF756FDD8
:101FC000801B022809D838688007F7D50EE0C0F8D2
:101FD00000A0FFF74BFD064605E082E0FFF746FD57
:101FE000801B02287DD838688007F7D42078400706
:101FF00068D5DFF8CCB100270BF13C0BDBF8000013
:10200000C0000BD4DBF8001041F08051CBF8001079
:10201000DBF80000012700F0805000906B4E306824
:10202000C00510D4306840F480703060FFF71EFDAA
:10203000009005E0FFF71AFD0099401A022850D8D9
:102040003068C005F6D55E4EA0686C3601280FD00A
:102050000528306810D020F001003060306820F092
:1020600004003060A068B8B1FFF700FD00900FE0F9
:10207000306840F00100F4E740F004003060F7E71A
:10208000FFF7F4FC0099411A41F28830814266D88A
:1020900030688007F4D50EE0FFF7E8FC009007E019
:1020A000FFF7E4FC0099411A41F28830814256D88A
:1020B00030688007F4D42FB1DBF8001021F0805194
:1020C000CBF80010A069C8B33D49091D0968C1F3E8
:1020D000810102294AD00228504607D0C8F8600082
:1020E00000E03CE0FFF7C2FC04463BE04746C8F88E
:1020F0006000FFF7BBFC064605E000BFFFF7B6FC3B
:10210000801B02282BD828688001F7D4D4E9070166
:102110000843A16A2E4A490802EB0141626A41EA7A
:102120008211084394F82C1040EA0161C9F80010AC
:1021300001203866FFF79AFC044606E03EE000BF47
:10214000FFF794FC001B022809D828688001F7D506
:1021500034E000BFFFF78AFC001B022802D90320ED
:10216000BDE8F88F28688001F4D427E00128F7D073
:10217000D9F80000E26900F4800191421CD1226A82
:1021800000F03F01914217D147F6C071626A0140E9
:10219000B1EB821F10D1A26A4FF0FF3300F440313F
:1021A00003EB5202B1EB024F06D194F82C1000F071
:1021B0007060B0EB016F01D00120D1E70020CFE7C4
:1021C0000438024000004742800E47420070004041
:1021D0000000FFFF7047704710B590F83C20012ABF
:1021E00022D0012280F83C20CA688C6822F4407218
:1021F00022434C6822F4806222430C6822F400627D
:1022000022430C6922F4805222434C6922F400528A
:102210002243C969002322F480420A4301684A64C8
:1022200080F83C30002010BD022010BD70B590F841
:102230003C20012A32D0012480F83C40022280F860
:102240003D2003685A689D6822F070060A68324390
:102250005A60134B02689A4214D0B2F1804F11D0E9
:10226000104B9A420ED0104B9A420BD00F4B9A4211
:1022700008D00F4B9A4205D00E4B9A4202D00E4B1B
:102280009A4204D1496825F080031943916080F88F
:102290003D40002180F83C10084670BD022070BD12
:1022A000000001400004004000080040000C004015
:1022B00000040140004001400018004010B5040037
:1022C00003D094F83D0010B107E0012010BD0020BC
:1022D00084F83C00204600F01FF8022084F83D00FE
:1022E000211D206801F0E4F9012084F8460084F8FB
:1022F0003E0084F83F0084F8400084F8410084F8F0
:10230000420084F8430084F8440084F8450084F8CF
:102310003D00002010BD000008B5134A01681348B5
:10232000914207D1016841F001010160006800F0AD
:1023300001000BE00E4A91420AD10C48001F0168CF
:1023400041F002010160006800F00200009008BD49
:10235000084A9142FBD1016841F480210160006884
:1023600000F48020F2E70000000001404438024001
:10237000000400400048014090F83D10012901D0C0
:1023800001207047022180F83D100168CA6842F0C0
:102390000102CA6000681149884214D0B0F1804F30
:1023A00011D00F4988420ED00E4988420BD00E49F9
:1023B000884208D00D49884205D00D49884202D094
:1023C0000C49884204D1816801F00701062903D035
:1023D000016841F0010101600020704700000140E8
:1023E0000004004000080040000C004000040140D0
:1023F000004001400018004070B5044690F83C00D1
:102400000025012817D0012684F83C60022084F8BA
:102410003D002068826822F0770222F47F428260C9
:102420000868502838D00DDC20284FD005DC90B348
:10243000102811D14AE0022070BD302846D0402833
:102440000AD13BE060282FD070280DD0B0F5805F16
:1024500003D0B0F5005F12D0012584F83D60002064
:1024600084F83C00284670BDCB68D1E90121206882
:1024700001F08FF92068816841F0770109E0CB68AD
:10248000D1E90121206801F084F92068816841F4D4
:1024900080418160E1E719E0CA684968206801F07D
:1024A0004DFA5021206806E0CA684968206801F0AA
:1024B00056FA6021206801F076F9CEE7CA684968CB
:1024C000206801F03BFA40212068F4E722680146C9
:1024D0001046F0E7704770B50446006801694FF098
:1024E0000005C943890715D4C168C943890711D4B8
:1024F000E91E01610120207720688069800720465D
:1025000002D0FFF7E7FF04E000F0F2F8204600F009
:1025100084F9257720680169C943490717D4C16840
:10252000C943490713D46FF00401016102202077E9
:102530002068806910F4407F204602D0FFF7CAFF70
:1025400004E000F0D5F8204600F067F92577206810
:102550000169C943090716D4C168C943090712D4E0
:102560006FF008010161042020772068C0698007AE
:10257000204602D0FFF7AEFF04E000F0B9F8204695
:1025800000F04BF9257720680169C943C90617D4C3
:10259000C168C943C90613D46FF010010161082056
:1025A00020772068C06910F4407F204602D0FFF7F2
:1025B00091FF04E000F09CF8204600F02EF925770A
:1025C00020680169C943C90708D1C168C943C9075F
:1025D00004D1891E0161204600F084F92068016958
:1025E000C943090609D4C168C943090605D46FF077
:1025F000800101612046FFF7EDFD20680169C943B4
:10260000490609D4C168C943490605D46FF04001A1
:102610000161204600F06DF920680169C94389060F
:102620000BD4C168C943890607D46FF0200101614A
:102630002046BDE87040FFF7CEBD70BD10B586B036
:10264000044614216846FDF7BEFF2368214C002193
:1026500021480222A34211D1036843F01003036012
:10266000006800F01000059090020090CDE9012173
:102670000120CDE903106946184812E0184CA34226
:1026800013D1036843F001030360006800F0010008
:102690000590C0200090CDE90121CDE903126946E3
:1026A0001048FFF7EBF806B010BD0F4CA342FAD16B
:1026B000036843F002030360006800F00200059025
:1026C00060150090CDE901210320CDE90310694692
:1026D0000648E6E7000001403038024000100240A2
:1026E0000004004000000240004801400004024095
:1026F000704770B5044690F83C0000260D4601284E
:102700000FD0012084F83C006AB1042A1DD0082AA9
:102710002FD00C2A3FD00126002084F83C00304600
:1027200070BD022070BD206801F046F82068816904
:1027300041F0080181612068816921F00401816113
:10274000206881692A69114311E0206801F064F86A
:102750002068816941F4006181612068816921F408
:1027600080618161206881692A6941EA0221816171
:10277000D2E7206801F086F82068C16941F00801BD
:10278000C1612068C16921F00401C1612068C1698B
:102790002A69114311E0206801F0A8F82068C16996
:1027A00041F40061C1612068C16921F48061C161A7
:1027B0002068C1692A6941EA0221C161ACE710B50C
:1027C000040003D094F83D0010B107E0012010BDD3
:1027D000002084F83C00204600F01EF8022084F817
:1027E0003D00211D206800F063FF012084F84600B1
:1027F00084F83E0084F83F0084F8400084F84100EB
:1028000084F8420084F8430084F8440084F84500CA
:1028100084F83D00002010BD7047704710B5044695
:10282000022249B104290ED0082913D094F841009E
:10283000012816D0012010BD94F83E000128F9D1DE
:1028400084F83E200FE094F83F000128F2D184F88C
:102850003F2008E094F840000128EBD184F84020A4
:1028600001E084F841200122206800F085FF16492C
:102870002068164A884201D0904203D1436C43F449
:10288000004343642068884213D0B0F1804F10D0D9
:102890000F4988420DD00F4988420AD00E4988421C
:1028A00007D0904205D00D49884202D00C49884299
:1028B00004D1816801F00701062903D0016841F0C5
:1028C00001010160002010BD000001400004014032
:1028D0000004004000080040000C0040004001409F
:1028E000001800400068B0F1804F01D1FFF7F8B840
:1028F0007047704770477047F8B50168044608682C
:10290000CA684B6910F00F0F4FF000055AD003F062
:10291000010602F49077374365D0C10705D0D10591
:1029200003D5216C41F001012164410705D5D90788
:1029300003D0216C41F002012164810705D5D9073C
:1029400003D0216C41F004012164010707D502F096
:102950002001314303D0216C41F008012164216C36
:1029600000293BD0800604D5900602D5204601F010
:10297000A9F820684069216CC0F3801001F00801BB
:10298000014320462BD001F068F8206840694006DA
:1029900021D52068143050E8001F21F0400140E8A4
:1029A0000012002AF5D1A06BA8B16C490165A06B9B
:1029B000FEF7E0FD002811D0A06B016D01B0BDE86D
:1029C000F040084783060ED593060CD52046BDE897
:1029D000F84001F077B82046FFF78DFFF8BDFFF70C
:1029E0008AFF2564F8BD266B2023012E79D1C60607
:1029F00077D5D60675D508684868009048694006BE
:102A000040D5A16B086840680004000CEAD0A28D94
:102A10008242E7D9E085C869B0F5807F2DD0206873
:102A20000C3050E8001F21F4807140E80012002AA9
:102A3000F5D12068143050E8001F21F0010140E872
:102A40000012002AF5D12068143050E8001F21F050
:102A5000400140E80012002AF5D184F83E30256399
:102A600020680C3050E8001F21F0100140E80012EF
:102A7000002AF5D1A06BFEF734FDA08DE18D401A40
:102A800081B229E0A08DE18D401A81B2E08D00284D
:102A9000A8D00029A6D020680C3050E8002F22F4DE
:102AA000907240E80026002EF5D12068143050E8DE
:102AB000002F22F0010240E80026002EF5D184F814
:102AC0003E30256320680C3050E8002F22F01002C1
:102AD00040E80023002BF5D12046FFF70BFFF8BD9F
:102AE000FFE705062BD5150629D594F83D002128CA
:102AF000F5D1A068B0F5805F01D12069B0B1206A3E
:102B0000411C2162216800784860E08C401E00046E
:102B1000000CE084E3D12068C16821F08001C1602D
:102B20002068C16841F04001C160D8E7206A008890
:102B3000C0F308004860206A801C2062E5E7400678
:102B4000CDD55006CBD5CA68204622F04002CA60D7
:102B500084F83D3000F080FAC1E70000B539000884
:102B600070B5040004D094F83D00002510B106E0D3
:102B7000012070BD84F83C50204600F023F824204A
:102B800084F83D002068C16821F40051C1602046EE
:102B900000F0F8FF2068016921F49041016120688C
:102BA000416921F02A0141612068C16841F4005166
:102BB000C1602564202084F83D0084F83E00002098
:102BC00070BD00002DE9F04F87B00446142168461F
:102BD000FDF7F9FCEF48DFF8B88310380222D4F88B
:102BE00000C0EC4B03210025970606154FF0080E98
:102BF0004FF0400A4FF4403B4FF48079C44552D126
:102C0000D3F800C0A8464CF4002CC3F800C01B68E1
:102C100003F400230593036843F001030360006895
:102C200000F0010005908DE82600CDE9031E6946FD
:102C3000D948FEF723FEDA48D8495F4601604905C6
:102C4000C0E90115C0E903564561C0E90659C0E96C
:102C500008B5FEF771FD08B1FEF738F8D048A0635B
:102C6000CF4D8463CD486035303028604FF0006030
:102C7000C5E9010AC5E90386C5F81480C5F81880BE
:102C8000C5E907872846C5F82480FEF755FD08B139
:102C9000FEF71CF86563002205213420AC63FEF7C3
:102CA000A5FF34206EE0DFF8FC82C44570D1D3F874
:102CB00000C04CF4801CC3F800C01B6803F48013F0
:102CC0000593036843F004030360036803F00403FF
:102CD0000593036843F0080303600068904600F022
:102CE000080005904FF48050CDE900020320CDE9A3
:102CF0000250082004906946AB48FEF7BFFD04204F
:102D0000CDE900080320CDE902500820049069466F
:102D1000A648FEF7B3FDA248A049C0303039016093
:102D2000C905C0E90115C0E903564561C0E9065966
:102D3000C0E908B5B0465E46FEF7FEFC08B1FDF7F7
:102D4000C5FF97489A4FC030A0638463934878309A
:102D50003860C7E903587D61BD61C7E907564FF088
:102D600000607D62C7E9010A3846FEF7E5FC08B15C
:102D7000FDF7ACFF6763002205213520BC63FEF739
:102D800035FF3520FEF724FF07B0BDE8F08FFFE7E1
:102D9000DFF820824FF0070EC44556D17D4BA84680
:102DA0001B1DD3F800C04CF0100CC3F800C01B680A
:102DB00003F010030593036843F001030360006808
:102DC000CDE9025100F0010005904FF4C060CDE95B
:102DD0000002CDF810E069466F48FEF74FFD7448D9
:102DE0007549603000F118030160C0E90175C0E960
:102DF0000356456183E8200A4562FEF79DFC08B151
:102E0000FDF764FF6A486A4D6030A06384636A48D6
:102E1000C035783085E88104C5E90386C5F814809B
:102E2000C5F81880C5E9078B2846C5F82480FEF749
:102E300083FC08B1FDF74AFF6563002205212520C8
:102E4000AC63FEF7D3FE25209CE7DFF87081C44514
:102E50003FD1D3F800C04CF4003CC3F800C01B685D
:102E600003F400330593036843F001030360006833
:102E7000CDE9025100F0010005900C20CDE90002DF
:102E8000CDF810E069464448FEF7F8FC4349DFF806
:102E9000308148314046C8F80010C0E90175C0E9EA
:102EA0000356C8F81450C0E90659C8F82050C8F8AD
:102EB0002450FEF741FC08B1FDF708FFC4F8388044
:102EC000002205212620C8F83840FEF78FFE262074
:102ED00058E7DFF8F080C4457FF456AFD3F800C060
:102EE0004CF4802CC3F800C01B6803F480230593C6
:102EF000036843F0080303600068CDE9025100F065
:102F0000080005904FF44070CDE90002CDF810E0C4
:102F100069462648FEF7B2FC294820496030183936
:102F20000160C0E90175C0E90356B3464E4600F1A1
:102F3000180C4FF4003945618CE86002B8464562D0
:102F4000FEF7FAFB08B1FDF7C1FE1D481C4F6030CB
:102F5000A063C0378463C7E902A5C7E904B507F1D8
:102F600018010E4881E8600218307D62C7E9000848
:102F70003846FEF7E1FB08B1FDF7A8FE67630022C3
:102F800005212720BC63FEF731FE2720FAE600006A
:102F9000004C0040403802400000024040600240C7
:102FA000C40600200050004000080240000C02400F
:102FB000E40700200010014040640240004400404B
:102FC00004090020004800407047000070B5044626
:102FD00090F83D00202836D191B38AB394F83C0094
:102FE000012830D0012084F83C002162A284E284D0
:102FF00000252564212084F83D00636B1348D863C5
:10300000636B13481864636B1248D864606B134693
:1030100005652668606B321DFEF7F8FB21686FF0CE
:103020004000086084F83C502068143050E8001FCD
:1030300041F0800140E80012002AF5D1002070BD67
:10304000FFE70120FBE70220F9E700000F3A000844
:10305000513A0008C539000870477047FEE7000084
:10306000104810B50E4901600321416000214FF462
:1030700000228160C0E903124FF4401242610176E0
:10308000012242768276C27601774277FEF7C1F856
:10309000002803D0BDE81040FDF718BE10BD0000A9
:1030A000006400403C040020104810B50E49016047
:1030B0000321416000214FF400228160C0E9031226
:1030C0004FF4401242610176012242768276C27646
:1030D00001774277FEF79DF8002803D0BDE8104045
:1030E000FDF7F4BD10BD000000680040640400203E
:1030F0002D4808B5016841F480010160016801F4C0
:1031000080010091016841F4001101600068002213
:1031100000F40010009005210B20FEF767FD0B2046
:10312000FEF756FD002205210C20FEF75FFD0C2066
:10313000FEF74EFD002205210D20FEF757FD0D2064
:10314000FEF746FD002205210E20FEF74FFD0E2062
:10315000FEF73EFD002205210F20FEF747FD0F2060
:10316000FEF736FD002205211020FEF73FFD10205E
:10317000FEF72EFD002205212F20FEF737FD2F2020
:10318000FEF726FD002205213A20FEF72FFD3A200A
:10319000FEF71EFD002205214620FEF727FDBDE8B3
:1031A00008404620FEF714BD3038024010B58EB0FE
:1031B0001C220B496846FDF7B2F90021684602F06F
:1031C0000EF8084C06491C2220601C3107A8FDF7A8
:1031D000A6F9002107A802F002F860600EB010BD49
:1031E000345F000800000020194808B5016841F06C
:1031F00080010160016801F080010091016841F0E7
:1032000001010160016801F001010091016841F0D4
:1032100010010160016801F010010091016841F0A6
:1032200008010160016801F008010091016841F0A6
:1032300004010160016801F004010091016841F09E
:1032400002010160006800F00200009008BD00006B
:1032500030380240094810B507490160002141603B
:1032600040F6FF718160FEF707FC002803D0BDE83F
:103270001040FDF72BBD10BD003000408C04002035
:1032800010B588B01C216846FDF79DF91548144912
:1032900000240160A721C0E901144FF4FA71C0E9CC
:1032A00003148461FFF70AF808B1FDF70FFD0D481C
:1032B000FFF785FA08B1FDF709FD6020CDE90004AC
:1032C00002940022694607480494FFF712FA08B1F5
:1032D000FDF7FCFC0348FFF7B1F908B010BD000092
:1032E000004801402805002010B596B000240F9436
:1032F00010941194129413941C2108A81494FDF7AF
:1033000062F920216846FDF75EF9294827490160E6
:1033100040F61F51C0E9011440F2E731C0E903143F
:1033200044618461FEF7CAFF08B1FDF7CFFC4FF49A
:1033300080500F900FA91E48FFF75EF808B1FDF707
:10334000C5FC1B48FFF73BFA08B1FDF7BFFC13941F
:1033500013A917481494FEF769FF08B1FDF7B6FCEE
:103360006020CDE908040A940B940C940D94042277
:1033700008A90F480E94FFF7BCF908B1FDF7A6FCA9
:1033800000944FF40050CDE904400294019403945A
:10339000694607480794FEF71FFF08B1FDF796FC42
:1033A0000348FFF74BF916B010BD000000000140C4
:1033B0009804002010B58EB0002407940894099456
:1033C0000A940B941C2168460C94FDF7FCF82248E3
:1033D000204901605321C0E9011440F6C311C0E93E
:1033E00003148461FEF76AFF08B1FDF76FFC4FF428
:1033F0008050079007A91848FEF7FEFF08B1FDF7B7
:1034000065FC1548FFF7DBF908B1FDF75FFC0B948D
:103410000BA911480C94FEF709FF08B1FDF756FC03
:103420006020CDE900040294002269460A48049411
:10343000FFF75FF908B1FDF749FC04226946064829
:10344000FFF757F908B1FDF741FC0348FFF7F6F81D
:103450000EB010BD00040040E00400200C4810B580
:103460000A4901604FF4E1314160002181600C2282
:10347000C160C0E904128161C161FFF771FB0028DE
:1034800003D0BDE81040FDF721BC10BD004C00404A
:10349000700500200C4810B50A4901604FF4E13175
:1034A0004160002181600C22C160C0E90412816189
:1034B000C161FFF755FB002803D0BDE81040FDF7C0
:1034C00005BC10BD00500040B40500200C4810B5EC
:1034D0000A4901604FF4E1314160002181600C2212
:1034E000C160C0E904128161C161FFF739FB0028A6
:1034F00003D0BDE81040FDF7E9BB10BD001001404E
:10350000F80500200C4810B50A4901604FF4E1317C
:103510004160002181600C22C160C0E90412816118
:10352000C161FFF71DFB002803D0BDE81040FDF787
:10353000CDBB10BD004400403C0600200C4810B537
:103540000A4901604FF4E1314160002181600C22A1
:10355000C160C0E904128161C161FFF701FB00286D
:1035600003D0BDE81040FDF7B1BB10BD00480040DE
:1035700080060020FEE7FEE710B500210C48FFF7AB
:103580004DF904210A48FFF749F900210846FDF7E3
:103590009FFB04210748FFF741F907490020886392
:1035A00001460648FFF73AF905490020086010BDBA
:1035B000E0040020980400200000014028050020BD
:1035C00034480140012001F0FEFDFBE710B550201A
:1035D00080F31188BFF34F8FBFF36F8F02F0DCFBD6
:1035E00018B104494FF080500860002080F3118822
:1035F00010BD000004ED00E030B593B03021684606
:10360000FCF7E1FF14210CA8FCF7DDFF1F480025A3
:10361000016841F080510160006800F08050119015
:103620001B48016841F4804101600068022400F4F5
:1036300080401190092000904FF4803001900120CB
:10364000CDE9050480050790192008904FF4A87073
:10365000CDE9090404200B906846FEF705FC08B18B
:1036600072B6FEE70CA90F2081E831004FF4A0509C
:103670000F904FF48050109005210CA8FEF7E8FA47
:10368000002801D072B6FEE713B030BD40380240CA
:10369000007000400248016841F470010160704709
:1036A00088ED00E00148FEF716BF0000240A002064
:1036B000F0B50268254C264D264E274F274B4FF07C
:1036C000804CA04209D0604507D0A84205D0B04246
:1036D00003D0B84201D0984204D122F0700E4A685B
:1036E00042EA0E02A0421BD0604519D0A84217D072
:1036F000B04215D0B84213D0984211D0184DA8420C
:103700000ED0184DA8420BD0174DA84208D0174D27
:10371000A84205D0164DA84202D0164DA84203D1AA
:1037200022F44075CA682A434D6922F080022A4378
:1037300002608A68C2620A688262A04201D098422E
:1037400001D10969016301214161F0BD000001401F
:103750000004004000080040000C0040000401404C
:103760000040014000440140004801400018004072
:10377000001C00400020004010B501F01F03012193
:10378000046A99408C430462016A9A4011430162C1
:1037900010BD10B5846842EA032224F47F440A4332
:1037A0002243826010BD826822F070020A4342F018
:1037B0000701816070470000F0B5026A22F0010243
:1037C0000262036A42688469124E24F073050C6831
:1037D0002C4323F002058B682B430D4DA84201D0EA
:1037E000B04205D123F00807CB683B4323F0040324
:1037F000A84201D0B04205D14D6922F44072154370
:103800008A692A4342608461496841630362F0BD6A
:103810000000014000040140F0B5026A22F01002ED
:103820000262026A436884690D6824F4E64444EA4B
:1038300005248D6822F0200242EA05120F4D104E39
:10384000A84201D0B04206D1CF6822F0800242EAFD
:10385000071222F04002A84201D0B04207D14D69C0
:1038600023F4406343EA85038D6943EA850343609B
:103870008461496881630262F0BD0000000001407C
:1038800000040140F0B5026A22F480720262026A0A
:103890004368C46922F4007224F073050C68124E68
:1038A0002C438D6842EA05220E4DA84201D0B04259
:1038B00006D1CF6822F4006242EA072222F4806235
:1038C000A84201D0B04207D14D6923F4405343EAE6
:1038D00005138D6943EA05134360C4614968C163F8
:1038E0000262F0BD000001400004014030B5026AF0
:1038F00022F480520262046A4268C3690D6823F4AC
:10390000E64343EA05238D6824F4005444EA053471
:10391000084DA84202D0084DA84204D14D6922F4B6
:10392000804242EA85124260C361496801640462D0
:1039300030BD0000000001400004014010B5036AE2
:10394000046A24F001040462846924F0F00444EA67
:10395000021423F00A020A438461026210BD10B50A
:10396000036A23F0100303628369046A23F470433B
:1039700043EA023224F0A00343EA011182610162AA
:1039800010BD000010B50448FDF795F9BDE81040E2
:103990000148FEF7B1BF00007005002010B50448D3
:1039A000FDF789F9BDE810400148FEF7A5BF00000A
:1039B000B405002010B5806B0021C185C184FEF7DD
:1039C0009AFF10BD70B5846B2068406994F83D1073
:1039D000C0F3C0100025212904D118B1E584204688
:1039E00000F062F82068406994F83E10C0F380103F
:1039F000222904D118B1E585204600F02EF8206C6C
:103A000040F0100020642046FEF775FF70BD10B531
:103A10000146806B09680968C90516D40021C18474
:103A20000168143151E8002F22F0800241E80023A0
:103A3000002BF5D101680C3151E8002F42F0400213
:103A400041E80023002BF5D110BDFFF705FB10BDA9
:103A500010B5806BFFF701FB10BD01680C3151E818
:103A6000002F22F4907241E80023002BF5D1016869
:103A7000143151E8002F22F0010241E80023002B0D
:103A8000F5D1016B012909D101680C3151E8002FF2
:103A900022F0100241E80023002BF5D1202180F80C
:103AA0003E1000210163704701680C3151E8002F7E
:103AB00022F0C00241E80023002BF5D1202180F83C
:103AC0003D10704708B590F83E10222901D0022021
:103AD00008BD82684FF480539A4201D1016921B137
:103AE000816A9A421BD04AB10AE00268816A526830
:103AF000C2F308020A80816A891C08E0026972B177
:103B00000268526802F07F020A70816A491C816271
:103B1000C18D491E0904090CC18503D019E0026852
:103B20005268F1E70168CA6822F02002CA600168A1
:103B3000CA6822F48072CA6001684A6922F00102F0
:103B40004A61202180F83E10016B012903D0FFF764
:103B50003BFA002008BD0021016301680C3151E8E7
:103B6000002F22F0100241E80023002BF5D101685C
:103B70000A68D20602D50A6849680091818DFEF76D
:103B8000B9FEE6E770B5044600680169E26821F411
:103B90004051114301612169A068E26908436169EC
:103BA000114308432168CA6849F20C639A430243EF
:103BB000CA6020684169A26921F4407111434161E2
:103BC00031492068884202D03049884202D1FEF74C
:103BD00009F901E0FEF7F6F8E269002319216425EE
:103BE0003226B2F5004F626828D0A0FB0101930F86
:103BF0009200FCF7B9FB0146B0FBF5F06FF018023C
:103C0000504301EB800006EB0010B0FBF5F000F034
:103C1000F002B1FBF5F002EB0012B1FBF5F06FF032
:103C20001803584301EB800006EB0010B0FBF5F0E1
:103C300000F00F0021681044886070BDA0FB0101F6
:103C400092185B41FCF790FB0146B0FBF5F00201D6
:103C5000B1FBF5F06FF01803584301EB800006EB61
:103C6000C000B0FBF5F000F0F80002EB4002B1FB41
:103C7000F5F0584301EB800006EBC000B0FBF5F017
:103C800000F00700D6E700000010014000140140DA
:103C90002DE9F04F8A4DB3B00226E86B58B12E647F
:103CA00095ED070AD5ED080AB4EEE00AF1EE10FA38
:103CB00004D8052003E001202864F1E70820F6EE8F
:103CC000000A0A2120EE201ADFED7E0A40F23E3380
:103CD000029341EE000A4FF0140B0123BCEEE00A00
:103CE00010EE102A92B2CDE903120591CDE9000B36
:103CF00095F8402074A106A801F0B7F80F2206A994
:103D00007248FCF70CFCB5F912004FF43971CDE99B
:103D100004101E204FF4AA62CDE90060CDE90262D2
:103D200095F8402000236AA106A801F03DF86748F5
:103D30000F2206A90F30FCF7ADFB664C207F01284F
:103D40006AD008210120CDE900104FF4D2730DF1A3
:103D5000080840F2311C4FF487675A0088E88C103D
:103D600095F8402000235CA106A801F0D6F857483A
:103D70000F2206A91E30FCF78DFBE07802284DD0FB
:103D800001284DD05FF0070740F29F284FF4AF792C
:103D9000CDE90076CDE902984FF00D0ACDF810A0DC
:103DA00015F8402F01234DA105A800F0A3FF4748B7
:103DB0000F2205A92D30FCF76DFB1622CDF80890D7
:103DC000CDE90382CDE900762A78012344A105A834
:103DD00000F090FF3D480F2205A93C30FCF79FFB07
:103DE000628921890120CDE9000602A8042380E828
:103DF000060415F840293BA105A800F07BFF3348D5
:103E00000F2205A94B30FCF745FB304E21780320EB
:103E10005A36012906D021E0042193E70227B3E7AF
:103E20000427B1E7A169782918D8A28A638A2827CC
:103E3000CDE90007CDE90232CDF810B095F8402069
:103E4000052329A105A800F055FF0F2205A930463A
:103E5000FCF720FBA069401CA06115E0002732227E
:103E6000CDE9012700901921CDE9037195F8402093
:103E700005231DA105A800F03DFF0F2205A930462E
:103E8000FCF708FBA76127701049592210316846DA
:103E9000FCF745FB6C220D4917A8FCF740FB17AC5B
:103EA00094E80F0000F07EFEE86B0A21401C90FBB6
:103EB000F1F201FB1200E86333B0BDE8F08F0000BF
:103EC000DC00002000804F4467313000B84D0020F6
:103ED00067313100684C00206731320067313300B0
:103EE000673134006731350067313600F0B5674C13
:103EF000B3B00126A08AE28A0621009655300591CA
:103F000080B2CDE9030202250A27CDE9017594F8B4
:103F1000442033465EA106A800F046FF0F2206A902
:103F20005C48FCF7B7FAE08A02AB401F81B2A08A76
:103F300000F15002503892B280B283E80700059138
:103F4000CDE9006594F84420012353A106A800F0B0
:103F50008CFF50480F2206A90F30FCF79BFAE08A2D
:103F600002AB1E3881B2A08A00F15002503892B2E2
:103F700080B283E8070000950591019594F84420EC
:103F8000012346A106A800F070FF42480F2206A9AF
:103F90001E30FCF77FFAE08AA18A072219385531D2
:103FA000009680B289B20592CDE90310CDE9017582
:103FB00094F8442001233AA106A800F0F5FE354804
:103FC0000F2206A92D30FCF765FAE18AA08ACDE917
:103FD00004074B3189B2CDE90201CDE9005694F8CE
:103FE000442001232FA106A800F03FFF29480F22FB
:103FF00006A93C30FCF74EFAA18AE08A01F10F02D3
:10400000163880B20F3989B292B2CDE9021000950C
:10401000CDE90420019594F84420012322A106A8AB
:1040200000F023FF1B480F2206A94B30FCF732FAA1
:10403000A18AE08A01F10F02263880B20F3989B2D5
:1040400092B2CDE902100095CDE90420019594F8D3
:104050004420012315A106A800F007FF0D480F22F8
:1040600006A95A30FCF716FA0A4959221031684657
:10407000FCF710FA6A22074917A8FCF70BFA17ACED
:1040800094E80F0000F08EFD33B0F0BDDC0000209E
:10409000673230008A4E00206732310067323200CA
:1040A00067323300673234006732350067323600DA
:1040B0002DE9F041B2B0082600254FF4DC710096DE
:1040C000CDE904154FF4F078012740F2DA22CDF85B
:1040D0000C80624CCDE9017294F848203B4660A107
:1040E00006A800F0C2FE0F2206A95E48FCF7D2F92E
:1040F0004FF4B9610096CDE9041540F2A642CDF81F
:104100000C80CDE9017294F84820012356A106A83D
:1041100000F0ABFE53480F2206A90F30FCF7BAF9A6
:104120004FF407704FF48C61CDE9030100960590C0
:104130004FF448720225CDE9015294F8482001233A
:104140004AA106A800F091FE46480F2206A91E309B
:10415000FCF7A0F9E08A02AB783881B2A08A00F1BE
:104160003C023C3892B280B283E8070005910720F8
:10417000CDE9000594F8482001233DA106A800F0F0
:1041800074FE38480F2206A92D30FCF783F9E08A27
:1041900002AB6E3881B2A08A00F10F020F3892B2E2
:1041A00080B283E8070000950591019594F84820B6
:1041B000012330A106A800F058FE2A480F2206A9C4
:1041C0003C30FCF767F9E08A02AB823881B2A08A02
:1041D00000F10F020F3892B280B283E80700009519
:1041E0000591019594F84820012323A106A800F029
:1041F0003CFE1C480F2206A94B30FCF74BF9E08A25
:10420000A18A0B227338413180B289B2029505929E
:10421000CDE903100A20CDE9005094F8482001238D
:1042200016A106A800F0C0FD0E480F2206A95A30BC
:10423000FCF730F90B49592210316846FCF72AF98E
:104240006922084917A8FCF725F917AC94E80F0074
:1042500000F0A8FC32B0BDE8F0810000DC000020D6
:1042600067333000F34E002067333100673332008C
:104270006733330067333400673335006733360004
:104280002DE9F04F684CB3B04FF0010BE06C022504
:10429000F0B325656078022844D0012844D0012776
:1042A00001A84FF00D0A40F267284FF4AF7600974F
:1042B00080E8600594F8502001235CA105A800F077
:1042C00019FD0F2205A95A48FCF7E4F801A84FF0A0
:1042D0001609009780E8600394F85020012355A147
:1042E00005A800F007FD52480F2205A90F30FCF782
:1042F000D1F851484E4F807F1E37B8B14FF43E720F
:104300004FF482704FF491610292CDE9030100E015
:1043100005E0059005200421CDE9001013E0C4F864
:1043200050B0B7E70427BBE70227B9E74FF4AA70FC
:1043300040F25641CDE90301059040F22A320020B7
:104340000095CDE9010294F8502001233BA106A875
:1043500000F08BFD0F2206A93846FCF79BF8E078A9
:1043600000285CD001285CD05FF0040701A840F26F
:104370002F28009780E8600594F85020012330A191
:1043800005A8343400F0B6FC29480F2205A93C30BA
:10439000FCF780F801A8009780E86003227F0123E2
:1043A00028A105A800F0A6FC21480F2205A94B3042
:1043B000FCF770F814F8300C40F21131CDE904101C
:1043C000A02203921821CDF800B0CDE90115227F7B
:1043D00001231DA106A800F0E7FC15480F2206A93D
:1043E0005A30FCF757F81249592210316846FCF749
:1043F00051F869220E4917A8FCF74CF80DF15C083A
:1044000098E80F0000F0CEFBA0690A21401C90FB49
:10441000F1F201FB1200A06133B0BDE8F08F072775
:10442000A4E70127A2E70000DC0000206734300089
:10443000214E002067343100684C00206734320080
:1044400067343400673435006734360030B5264CA5
:10445000B3B00225A18AE08A01F150021E3080B279
:10446000503989B292B2CDE90210CDE9042008207A
:10447000CDE9000594F8542001231CA106A800F002
:10448000F4FC0F2206A91A48FCF749F8E08AA18A31
:1044900004222330553180B289B202950592CDE9CC
:1044A000031001210A20CDE900100B4694F8542096
:1044B00010A106A800F078FC0D480F2206A90F30C5
:1044C000FBF7E8FF0A49592210316846FCF727F844
:1044D0006C22074917A8FCF722F817AC94E80F00E4
:1044E00000F060FB33B030BDDC00002067353000E9
:1044F0005C4F00206735310000B595B01E48FBF7D2
:10450000AAFF81B20220CDE902101221CDE90001FB
:1045100019484FF43873A0227638CDE9042390F877
:104520002420012315A106A800F08CFB0F2206A968
:104530001348FBF7F4FF12490F2201F10F00FBF7BC
:10454000A9FF0F481E220C491E30FBF7A3FF0C49A0
:104550001D221F316846FBF79DFF09492D220F31AF
:1045600008A8FBF797FF0DF1200C9CE80F0000F066
:10457000D5FA15B000BD000052010020676330007D
:10458000C84C002000B595B01E48FBF764FF81B20F
:104590000220CDE902101221CDE9000119484FF4A3
:1045A0001C73A0229438CDE9042390F8282001231D
:1045B00015A106A800F046FB0F2206A91348FBF739
:1045C000AEFF12490F2201F10F00FBF763FF0F4806
:1045D0001E220C491E30FBF75DFF0C491D221F31C6
:1045E0006846FBF757FF09492D220F3108A8FBF752
:1045F00051FF0DF1200C9CE80F0000F08FFA15B070
:1046000000BD00007001002067633100044D0020F0
:1046100000B595B01E48FBF71EFF81B20220CDE920
:1046200002101221CDE9000119484FF40E73A022A7
:10463000B238CDE9042390F82C20012315A106A857
:1046400000F000FB0F2206A91348FBF768FF124990
:104650000F2201F10F00FBF71DFF0F481E220C492E
:104660001E30FBF717FF0C491D221F316846FBF770
:1046700011FF09492D220F3108A8FBF70BFF0DF19F
:10468000200C9CE80F0000F049FA15B000BD0000B6
:104690008E01002067633200404D002000B595B0C8
:1046A0001E48FBF7D8FE81B20220CDE9021012218C
:1046B000CDE9000119484FF42A73A0225838CDE9FA
:1046C000042390F83020012315A106A800F0BAFABF
:1046D0000F2206A91348FBF722FF12490F2201F10E
:1046E0000F00FBF7D7FE0F481E220C491E30FBF7C8
:1046F000D1FE0C491D221F316846FBF7CBFE09494C
:104700002D220F3108A8FBF7C5FE0DF1200C9CE807
:104710000F0000F003FA15B000BD000034010020C6
:10472000676333008C4C002070B52F4C94B0022688
:10473000606B28B1A66320780825012803D003E028
:104740000120A063F7E704252748D030FBF783FE5C
:1047500080B2CDE902061620CDE9005040F2E222F7
:1047600040F25111CDE9041294F8382001231FA121
:1047700006A800F067FA0F2206A91D48FBF7CFFE36
:104780001B4D20781E351A4901284FF00F0201F108
:104790000F0022D0FBF77EFE13491E22EE31284681
:1047A000FBF778FE12491D221F316846FBF772FEA7
:1047B0000F492D220F3108A8FBF76CFE08AD95E8D4
:1047C0000F0000F0ABF9606B0A21401C90FBF1F286
:1047D00001FB1200606314B070BDFBF75BFE024981
:1047E0001E22D031DBE70000DC00002067633400CC
:1047F0007C4D002010B50448FCF75DFABDE8104080
:104800000148FEF779B80000F80500200B4882B097
:1048100001680A684A680092CA6842F01002CA60D9
:1048200001684A6942F040024A610168806B4FF4B6
:10483000AF73034A091D02B0FCF70CBAF80500205B
:10484000904700207047000010B50448FCF733FA89
:10485000BDE810400148FEF74FB800003C060020BC
:104860000C4808B501680A684A680092CA6842F0B4
:104870001002CA6001684A6942F040024A6112218E
:1048800000910168044B806BA3F11802091DFCF72D
:104890006DF808BD3C060020064900207047000066
:1048A00010B50448FCF707FABDE810400148FEF7D0
:1048B00023B80000800600200B4882B001680A6817
:1048C0004A680092CA6842F01002CA6001684A69E8
:1048D00042F040024A610168806BC823034A091D07
:1048E00002B0FCF7B7B90000800600201E49002086
:1048F000704700000B4882B001680A684A6800925D
:10490000CA6842F01002CA6001684A6942F0400277
:104910004A610168806BC823034A091D02B0FCF795
:1049200099B9000070050020E649002000F090BB16
:104930000B4882B001680A684A680092CA6842F06F
:104940001002CA6001684A6942F040024A61016887
:10495000806BC823034A091D02B0FCF77BB9000035
:10496000B4050020AE4A00207047FEE730B50C4683
:10497000050014D0022C12D90A48A11E028828462C
:10498000FCF7B2F92919C2B211F8023C9A4206D1D9
:1049900011F8011CB1EB102F01D1012030BD002016
:1049A00030BD00008E00002030B50C4605000ED052
:1049B000022C0CD9601E81B2FF222846FCF7AAF90E
:1049C000291911F8011C814201D1012030BD0020BC
:1049D00030BD0907090E002804DB00F1E02080F853
:1049E0000014704700F00F0000F1E02080F8141D63
:1049F000704700000A4801680A48B1F83B20130AD2
:104A00000370427031F8332F130A8370C2704988E3
:104A10000A0A0271417102462E210348FBF73ABF90
:104A2000D80000209E00002064040020174882B0B7
:104A300000220068018E16480B0A037041704FF483
:104A40009671090A81702C21C1709621ADF8001071
:104A5000027141710F48017801290CD0ADF8002096
:104A60000B48BDF800100838094AC1812F210A48B7
:104A700002B0FBF70FBF4078012804D04FF440701C
:104A8000ADF80000ECE74FF4E060F9E7D800002053
:104A9000A6000020D60000206404002070B5034664
:104AA000114D00886E4240BA00B2DFED0E0AB3EE3F
:104AB0000E0A2A46314600F0B7FA0C4CFBEE040A07
:104AC0002A4684ED000A5888B3EE040A40BA00B2C0
:104AD000314600F0A9FA84ED010A988840BA208195
:104AE00070BD0000000000000083FFFF784B002035
:104AF00008480068017E0848012906D0652903D1CD
:104B0000017040F26511418070470121017040F24F
:104B10000111F8E7D8000020F40000200FB41FB501
:104B2000A5208DF800003320ADF8010000201B4CBB
:104B30008DF80300009844F8030B05211748FBF794
:104B4000BBFD40F2013060804FF48870ADF800008A
:104B500013480F220178ADF802104088ADF8040028
:104B600000986060BDF8040020810C4806A90D3053
:104B7000FBF790FC09481E220DF127011C30FBF7C2
:104B800089FC3C210548FBF783FD04B03C2110BCA7
:104B900002485DF814EB00F0CBBE0000E84B0020AB
:104BA000F40000200FB41FB5A5208DF800006F2081
:104BB000ADF801000020174C8DF80300009844F870
:104BC000030B05211348FBF777FD40F201306080AD
:104BD0004FF48270ADF800000F4869220178ADF8FB
:104BE00002104088ADF8040000986060BDF8040031
:104BF0002081084806A90D30FBF74CFC78210548B8
:104C0000FBF746FD04B0782110BC02485DF814EBB8
:104C100000F08EBEE84B0020F40000200068016820
:104C200041F4002101600148FFF738BEEE48002042
:104C30000068016821F4002101600148FFF72EBEE1
:104C4000064900202DE9FF4781460CA890E8F011A5
:104C50000888ADF8000088788DF802009DF8030000
:104C60004EF2030162F3020040F038008DF80300B9
:104C7000BDF803000F2263F38910ADF803009DF81F
:104C8000040064F385008DF80400BDF8040065F3AA
:104C90008E10ADF80400BDF8050066F3CF10ADF836
:104CA0000500BDF8070067F30900ADF80700BDF87F
:104CB000080068F38C00ADF80800BDF809006CF33B
:104CC0004F10ADF80900BDF80B006FF30900ADF807
:104CD0000B00BDF80C000840ADF80C009DF80D006D
:104CE000694600F01F00ADF80D004846FBF7D2FB07
:104CF000BDE8FF872DE9FF410DF12808B1F800E07C
:104D000098E8F010ADF800E089788DF802109DF871
:104D1000031062F3020121F0380110318DF8031005
:104D2000BDF8031048F23F0263F38911ADF8031098
:104D30009DF8041064F385018DF80410BDF804108B
:104D40001140ADF804109DF805104EF2030201F079
:104D50007F01ADF80510BDF8071065F30901ADF846
:104D60000710BDF8081066F38C01ADF80810BDF807
:104D7000091067F34F11ADF80910BDF80B106CF373
:104D80000901ADF80B10BDF80C101140ADF80C1076
:104D90009DF80D100F2201F01F01ADF80D106946AE
:104DA000FBF778FBBDE8FF812DE9FF470DF13008E7
:104DB000814698E8E010B1F80080ADF8008089786D
:104DC0008DF802109DF80310DDE9104062F3020136
:104DD00021F0380130318DF80310BDF80310820A3C
:104DE00063F38911ADF803109DF8041065F3850194
:104DF0008DF80410BDF8041066F38E11ADF80410A0
:104E00009DF8051001F07F01ADF80510BDF8071001
:104E100067F30901ADF80710BDF808106CF38C01B9
:104E2000ADF80810BDF8091064F34F11ADF8091082
:104E3000BDF80B1060F30901ADF80B10BDF80C10B4
:104E400062F38C01ADF80C104FF6FF7101EA60516E
:104E5000BDF80D000F2261F34F10ADF80D0069464B
:104E60004846FBF717FBBDE8FF872DE9FF47814662
:104E70000CA890E8F0110888ADF8000088788DF84B
:104E800002009DF8030048F23F0162F3020020F0A7
:104E900038008DF80300BDF803000F2263F389107A
:104EA000ADF803009DF8040064F385008DF804005C
:104EB000BDF804000840ADF804009DF805006946FF
:104EC00000F07F00ADF80500BDF8070065F30900AC
:104ED000ADF80700BDF8080066F38C00ADF80800D7
:104EE000BDF8090067F34F10ADF80900BDF80B00DD
:104EF0006FF30900ADF80B00BDF80C0068F38C00EF
:104F0000ADF80C00BDF80D006CF34F10ADF80D00BE
:104F10004846FBF7BFFABDE8FF872DE9FF4781460A
:104F20000CA890E8F0110888ADF8000088788DF89A
:104F300002009DF8030048F23F0162F3020020F0F6
:104F4000380008308DF80300BDF803000F2263F32A
:104F50008910ADF803009DF8040064F385008DF816
:104F60000400BDF804000840ADF804009DF80500F9
:104F7000694600F07F00ADF80500BDF8070065F355
:104F80000900ADF80700BDF8080066F38C00ADF825
:104F90000800BDF8090067F34F10ADF80900BDF82F
:104FA0000B006FF30900ADF80B00BDF80C0068F3BF
:104FB0008C00ADF80C00BDF80D006CF34F10ADF88F
:104FC0000D004846FBF766FABDE8FF8710B5FBF712
:104FD00019FCFBF737FCFFF719FCFFF741FCFFF763
:104FE0006BFCFFF787FCFFF7A3FCBDE81040FEF762
:104FF000C3BA000009480B4990ED000A084880ED4B
:10500000070A4A7802708A784270CA7882700A79F0
:10501000C2704A790271C98841827047784B00207A
:10502000DC000020684C0020801A01EE100A881A6B
:10503000F8EEC11A01EE100AB8EEC12A81EE821A0A
:1050400070EE601AB0EE600A01EE210A70470000AF
:1050500070B504460026002C2BD0164D2178286808
:10506000A529017028681FD1D4F80110C0F80210DA
:1050700005212046FFF798FC012815D128684088B3
:10508000093086B231462046FFF770FC012805D171
:10509000B4F80500A880E11D00F00EF828684188EA
:1050A000E01D08440088E880A05DA52801D13444B3
:1050B000D0E770BD9000002070B52B4A40F2032568
:1050C000A0F203241368A8423FD010DC012817D0B7
:1050D000A01C24D0012812D103F133001022FBF7C9
:1050E000D9F9FFF787FCBDE8704000F04FBB032CF7
:1050F00032D0042C1ED0062C01D10868186070BD77
:105100000888188188789872197A04221748B2EBB7
:10511000111F01D1012100E00021417070BD03F198
:1051200018001B22FBF7B6F9FFF780FCBDE87040C2
:1051300000F04EBB086843F8430F88889880887950
:105140009871BDE8704000F067BBBDE8704003F1A6
:105150004A001022FBF79EB9087883F85A00BDE890
:105160007040FBF7B9BA0000D8000020D60000203C
:10517000FCF7BEFCFEF740FAFEF736F8FDF7B8FF85
:10518000FDF76EFFFDF790FFFEF764F8FEF79EF95E
:10519000FEF7B8F9FEF7D2F9FEF760F9FEF77AF9F3
:1051A000FEF7A2F8FEF706F9FEF76AF8FFF70EFF22
:1051B000FDF7FCFF00F00EF8FEE701460020842911
:1051C00000D0C81C704710B500B9012000F080FC69
:1051D000002010BD10B500F0A1FC002010BD7FB56F
:1051E0000D4604464169B0F9080081B1A16971B169
:1051F000FFF7E3FFD4E905128DE80700D4E90010BA
:105200002B46226900F09DFD039004B070BDFFF7AE
:10521000D4FF03A9CDE90001208A2B4682B2D4E94C
:10522000001000F061FD012801D00020EDE7039897
:10523000EBE700002DE9F041184C0F460546E66803
:105240002068001D00F07CFB38B9206890F82C1015
:1052500001208840216981432161681C07D137B151
:105260002168BDE8F0410E48091D00F0ADBB206883
:105270003544B5424560216805D2A06BBDE8F041D8
:10528000091D00F089BB606B091D00F085FBA06A59
:10529000854200D2A562BDE8F08100001C0000201C
:1052A000480B00202DE9F041054600F099FB2E4CFB
:1052B000A068401CA06020682C4F10B1606940B30A
:1052C0002DE02560A068012829D1002606EB860084
:1052D00007EB800000F052FB761C072EF6D3234824
:1052E0008C3000F04BFB2148A03000F047FB1F48FA
:1052F000B43000F043FB1D48C83000F03FFB1B48B2
:10530000DC3000F03BFB19488C3060631430A06344
:1053100005E02068E96AC06A884200D82560606AB2
:10532000401C6062E96A01202269884010432061C4
:1053300001EB810007EB8000291D00F045FB00F028
:105340006FFB606900280CD02068E96AC06A884257
:1053500007D207494FF080500860BFF34F8FBFF36B
:105360006F8FBDE8F08100001C0000206C0A002057
:1053700004ED00E010B5044690F8510058B1012842
:105380000CD002280FD0502080F31188BFF34F8F2C
:10539000BFF36F8FFEE7206B00F056FB2046BDE8A1
:1053A000104000F051BB10BD10484FF4705142073F
:1053B00006D0C01D0D4920F00700411AC1F57051FB
:1053C0000B4A00230144C2E900030839183A21F0CE
:1053D000070111604B600B600B1AC0E9001393606A
:1053E0004FF0004053605061704700005C0B00209C
:1053F00070000020144E154CA6F1C8074FF08058DD
:10540000DFF84C9012E000BF00F0EAFAF068C568DF
:10541000281D00F095FAA068401EA0606068401E3C
:10542000606000F0FDFA2846FFF7A4FF60680028DE
:10543000EAD138680128F9D9C9F80080BFF34F8F45
:10544000BFF36F8FF2E70000340B00201C00002038
:1054500004ED00E02DE9F0479A46DDE90984814634
:105460006FF00303206B03EB82021044089E20F0D0
:105470000707780707D0502080F31188BFF34F8FBC
:10548000BFF36F8FFEE7002561B1002023180A5C8F
:1054900083F834200A5C12B1401C1028F6D384F83B
:1054A000435001E084F83450072E00D30626E6620C
:1054B000C4E91165201D00F06CFA04F1180000F039
:1054C00068FA2461C6F107006462A061E56484F8AB
:1054D000505052464946384600F0C0F82060B8F1B6
:1054E000000F01D0C8F80040BDE8F08730B5114981
:1054F00000E011460A688242FBD34B685C18844284
:1055000003D1406818444860084643681C18944218
:1055100009D1084C183C2468A24209D052681A44A8
:1055200042600A6812680260814200D0086030BDA3
:105530000460F9E7700000200648416B096829B152
:10554000416BC968C9684968816270474FF0FF3193
:10555000FAE700001C00002008484068401C4FF09B
:10556000500080F3118804D0BFF34F8FBFF36F8FCB
:10557000FEE7BFF34F8FBFF36F8FFEE77800002089
:105580002DE9F0410546002700F0FEFA324E306862
:1055900008B9FFF709FF706905424ED1C5B3083558
:1055A00068070ED005F00700C0F108000544680741
:1055B00007D0502080F31188BFF34F8FBFF36F8F58
:1055C000FEE72DB37068854237D82348183001466E
:1055D0000C6801E020460C466168A94202D22168AD
:1055E0000029F7D131688C4227D007682168016013
:1055F00060680837411B10290FD96019420708D08D
:10560000502080F31188BFF34F8FBFF36F8FFEE7F9
:1056100013E041606560FFF769FF61687068401AD8
:105620007060B268904200D2B0607069014300209F
:10563000C4E90001F068401CF06000F013FC78073A
:1056400007D0502080F31188BFF34F8FBFF36F8FC7
:10565000FEE73846BDE8F0815800002010B5031F72
:105660004FF080741C601B1F21F001011960191F8D
:10567000044B0B6014390A60091F6FF002024438B2
:105680000A6010BD5955000870B50826FFF7B2FC36
:10569000FFF72EFA3C4C0025607908286AD2DFE833
:1056A00000F004141727373A4A5AE088022802D833
:1056B000FEF722FF05E0FEF7EBFAE0880A2800D3A8
:1056C000E580E088401CE08054E0FEF7E1FA51E01C
:1056D000E089022802D8FEF709FC05E0FEF7B6FED5
:1056E000E089042800D3E581E089401CE08141E0A5
:1056F000208A022802D8FEF7DBFC05E0FFF714F849
:10570000208A0A2800D32582208A401C208231E08A
:10571000FEF7B6FD2EE02089022802D8FEF732FF00
:1057200005E0FEF7B5FA20890A2800D325812089F3
:10573000401C20811EE06089022802D8FEF768FF25
:1057400005E0FEF7A5FA60890A2800D36581608923
:10575000401C60810EE0A089022802D8FEF79EFF5F
:1057600005E0FEF795FAA0890A2800D3A581A08953
:10577000401CA0816079401CC0B2B0FBF6F106FB72
:105780001100607170BD0000DC0000200D48016850
:105790000D480A78B1F83B300380B1F841304380BE
:1057A000022A0DD0002202714A8BA0F80520097A46
:1057B000054A0909C1714FF480710448FBF76AB8C2
:1057C0000122F0E7D8000020AE0000203C040020B9
:1057D0000E480F49006801F10803828D0A81027E9C
:1057E000012A02D0652A02D003E0002200E0012253
:1057F0009A70028E21F80B2FC08D4880044A40F227
:10580000011108320348FBF745B80000D80000201A
:10581000AE0000203C040020064801680648D1F88C
:105820004610016100F110024FF481710348FBF74B
:1058300031B80000D8000020AE0000203C04002059
:1058400038B50446006801684068009030488442DA
:105850000CD1A06B0068016821F0010101602D48A6
:10586000FEF7F0FF4FF4AF712A484DE02A4884421A
:105870001CD1A06B0068016821F001010160A06BE0
:1058800001684A68062A06D10968090301D5416CF6
:1058900000E0C16B8847A16B182009684860A06BC5
:1058A0000068016841F00101016038BD1B48844275
:1058B0000BD1A06B0068016821F00101016018485C
:1058C000FFF716F8C82116481EE0164884420DD18D
:1058D000A06B0068016821F0010101601048C83028
:1058E000FFF724F80E48C821C8300DE00E48844266
:1058F000DBD1A06B0068016821F0010101600B4859
:10590000FFF732F8C8210948FAF73BFEC7E7000065
:10591000F8050020904700203C060020800600206B
:105920001E49002070050020B4050020AE4A00206A
:105930000A4601460148FDF749BB000070050020FA
:10594000D0E9013201699A60D0E901235A604A68BE
:10595000824201D182684A60002202610868401ECA
:105960000860086870470000034B036003F15400AF
:105970000860802010607047E801002000F10801F5
:105980004FF0FF32C0E90112C160016100210160E6
:10599000704700210161704730B50B685A1C02D076
:1059A00000F1080202E0026904E02246546825681A
:1059B0009D42FAD953684B6099608A6051600861D2
:1059C0000168491C016030BD42684A6093688B6081
:1059D00093685960916008610168491C01607047D3
:1059E000502080F31188BFF34F8FBFF36F8F0A49A8
:1059F0004868401C486001280CD10848006810F035
:105A0000FF0F07D0502080F31188BFF34F8FBFF3F3
:105A10006F8FFEE7704700007800002004ED00E083
:105A20000849486828B1401E486001D180F31188B8
:105A30007047502080F31188BFF34F8FBFF36F8FF3
:105A4000FEE700007800002070B500282AD0164D2F
:105A5000A0F1080460686969084207D1502080F30A
:105A60001188BFF34F8FBFF36F8FFEE722683AB103
:105A7000502080F31188BFF34F8FBFF36F8FFEE785
:105A80008843606000F080F8606869680844686076
:105A90002046FFF72BFD2869401C2861BDE87040B7
:105AA00000F0E0B970BD0000580000204FF0E02089
:105AB00000210161816105494FF47A720968B1FBE7
:105AC000F2F1491E41610721016170471800002071
:105AD00010B5020014D00F48006B38B1502080F38D
