:020000040800F2
:1000000070480020E90200081F2500086923000845
:100010001D250008430500084B29000800000000CA
:10002000000000000000000000000000290200089D
:100030003D0900080000000085020008292500088D
:100040000303000803030008030300080303000878
:100050000303000803030008030300080303000868
:100060000303000803030008030300080303000858
:100070000303000803030008030300080303000848
:1000800071060008030300080303000803030008C7
:100090006D050008030300080303000803030008BC
:1000A0000303000803030008030300080303000818
:1000B00001260008030300080303000803030008E7
:1000C00003030008030300080303000803030008F8
:1000D00003030008030300080129000803030008C4
:1000E00003030008030300080303000803030008D8
:1000F00003030008030300080303000803030008C8
:1001000003030008030300080303000803030008B7
:1001100003030008030300080303000803030008A7
:100120000303000803030008030300080303000897
:100130000303000803030008030300080303000887
:100140001106000803030008030300080303000866
:100150000303000803030008030300080303000867
:100160000303000803030008030300080303000857
:100170000303000803030008030300080000000055
:10018000030300080303000800F002F800F03CF845
:100190000AA090E8000C82448344AAF10107DA45E2
:1001A00001D100F031F8AFF2090EBAE80F0013F0F8
:1001B000010F18BFFB1A43F001031847E834000091
:1001C00008350000103A24BF78C878C1FAD8520721
:1001D00024BF30C830C144BF04680C6070470000C1
:1001E0000023002400250026103A28BF78C1FBD840
:1001F000520728BF30C148BF0B6070471FB503F0DE
:1002000011FA1FBD10B510BD00F061F91146FFF7DE
:10021000F5FF02F00CFC00F07FF903B4FFF7F2FFEA
:1002200003BC00F087F900002C4B19680868B0E89F
:10023000F04F80F30988BFF36F8F4FF0000080F319
:10024000118870470000000008480068006880F3CB
:1002500008884FF0000080F3148862B661B6BFF3DF
:100260004F8FBFF36F8F00DF00BF00BF08ED00E0CE
:10027000DFF80C00016841F470010160704700BFB5
:1002800088ED00E0EFF30980BFF36F8F134B1A681E
:100290001EF0100F08BF20ED108A20E9F04F10600B
:1002A00009B44FF0500080F31188BFF34F8FBFF3B4
:1002B0006F8F02F0EFFF4FF0000080F3118809BC50
:1002C00019680868B0E8F04F1EF0100F08BFB0ECD6
:1002D000108A80F30988BFF36F8F70471C000020DD
:1002E000EFF3058070470000094880470948004740
:1002F000FEE7FEE7FEE7FEE7FEE7FEE7FEE7FEE7D6
:10030000FEE7FEE704480549054A064B7047000032
:10031000F125000889010008704200207048002083
:10032000704400207044002053EA020C00F0698001
:100330002DE9F04B4FF00006002B1FBFB3FA83F5F9
:1003400003FA05F424FA05F65E4012BF1643B2FA2A
:1003500082F502FA05F4C5F120051EBF22FA05FC5C
:1003600044EA0C04203556EA044C4FEA144418BF02
:10037000641C4FF000084FF00009904271EB030C31
:1003800039D3002919BFB1FA81F701FA07F6B0FA9B
:1003900080F700FA07F6C7F120071EBF20FA07FC16
:1003A00046EA0C062037B6FBF4FCA7EB0507103F26
:1003B00007F01F0BCBF120060CFA0BFB2CFA06F60C
:1003C00044BFB3460026202FA4BF5E464FF0000B6B
:1003D0005BEA060C08BF4FF0010B19EB0B09ABFBF6
:1003E000027C48EB0608C01B06FB02CC0BFB03CCCF
:1003F00071EB0C01C1E70B46024641464846BDE899
:10040000F08B13B54FF000004FF00001AFF3008008
:10041000BDE81C40704710B5203AC0F00B80B1E831
:100420001850203AA0E81850B1E81850A0E8185029
:10043000BFF4F5AF5FEA027C24BFB1E81850A0E832
:10044000185044BF18C918C0BDE810405FEA827C4C
:1004500024BF51F8043B40F8043B08BF7047D20763
:1004600028BF31F8023B48BF11F8012B28BF20F804
:10047000023B48BF00F8012B70474FF0000200B567
:10048000134694469646203922BFA0E80C50A0E8B7
:100490000C50B1F12001BFF4F7AF090728BFA0E865
:1004A0000C5048BF0CC05DF804EB890028BF40F831
:1004B000042B08BF704748BF20F8022B11F0804F73
:1004C00018BF00F8012B704770477047704775469A
:1004D00000F02CF8AE4605006946534620F00700B0
:1004E000854618B020B5FFF70DFFBDE820404FF05E
:1004F00000064FF000074FF000084FF0000B21F00E
:100500000701AC46ACE8C009ACE8C009ACE8C009DA
:10051000ACE8C0098D46704710B50446AFF30080C3
:100520002046BDE81040FFF778BE00000048704745
:100530000C42002001491820ABBEFEE72600020055
:100540007047FEE700B58BB0684600F068F8694672
:10055000054800F06DFA0221034800F0F2F9024864
:1005600000F09EFD0BB000BD3C030020014800F0F0
:100570005ABB00003C0300201CB50A88120A8DF803
:1005800000200A788DF801204A88120A8DF802208E
:100590008A788DF803208A88120A8DF804200A7957
:1005A0008DF80520CA88120A8DF8062089798DF801
:1005B000071001466A46024800F03EF81CBD0000E4
:1005C0003C030020B0F5017F0AD106480A6842606A
:1005D0004A6882600A8852BA0280498849BA4180D2
:1005E000704700008400002000B58BB0684600F022
:1005F00016F86946054800F01BFA0221034800F08E
:10060000A0F9024800F04CFD0BB000BD64030020CF
:10061000014800F008BB000064030020704700217F
:10062000016041608160C160016101224161C0E9F6
:100630000612C0E90821704710B50B4C036888B05A
:10064000A34202D0094CA3420BD100910021029198
:1006500003910821049106AB694600F084F9002853
:1006600000D0012008B010BD0064004000680040C8
:10067000014800F0A3BD0000DC0300202DE9F04F8D
:1006800085680024099E802D18D0894DC563894D49
:10069000456490F83450012D15D0012580F8345070
:1006A00090F83550012D10D0002180F8341002242C
:1006B000002180F834102046BDE8F08F4FF480719F
:1006C00041650120F8E70220F6E7022580F8355061
:1006D0000025456505682F6847F480272F60056869
:1006E0002B6103685E608368402B03682AD09960A1
:1006F0000168CA60714D704E704FDFF8BC81DFF841
:10070000B891DFF8B8A1DFF8B4B1EA14DFF8A8E1D6
:100710000168183630379302A9F148090AF1600AD6
:100720000BF1180BAEF1300E4FF0006C41452DD996
:10073000A94205D0494503D0514501D0B14205D168
:10074000202220E09A600268D160D3E759451AD090
:10075000714518D0594D7835A94214D0564D3035D1
:10076000A94210D0B9420BD0534A183A914207D04F
:10077000524A9032914203D04F4A4832914201D1BD
:100780001A4600E062464C494C392EE0DFF82C81D5
:1007900008F1A80841452AD9A94205D0494503D006
:1007A000514501D0B14201D120221CE059451AD057
:1007B000714518D0414D7835A94214D03E4D3035A1
:1007C000A94210D0B9420BD03B4A183A914207D007
:1007D0003A4A9032914203D0374A4832914201D18D
:1007E0001A4600E06246344950390A605AE0DFF8A0
:1007F000CC8008F1480841452AD9A94205D049458D
:1008000003D0514501D0B14201D120221CE059450D
:100810001AD0714518D0294D7835A94214D0264DEB
:100820003035A94210D0B9420BD0234A183A914230
:1008300007D0224A9032914203D01F4A4832914257
:1008400001D11A4600E062461C491039CA6029E00D
:10085000A94205D0494503D0514501D0B14201D14B
:1008600020221CE059451AD0714518D0134D783517
:10087000A94214D0104D3035A94210D0B9420BD046
:100880000D4A183A914207D00C4A9032914203D057
:10089000094A4832914201D11A4600E062460749AE
:1008A00010398A6001680A6842F001020A60FFE6B6
:1008B000F5290008092A0008586402401060024027
:1008C00001681823CAB2103AB2FBF3F2054B6FF37A
:1008D0000901032A9B5CC36500D9091D816508468F
:1008E000704700006836000810B5014600208B698B
:1008F0008A6A4FF0C07453B1B3F5005F15D072B17E
:10090000012A0CD0022A0AD0032A09D104E01AB124
:10091000012A06D0022A03D1C96AC90100D50120E3
:1009200010BDC96AA142FAD010BD002AF7D0012A31
:10093000F2D0022AF3D0032AF3D010BD704772B66A
:10094000FEE790F82020012A07D0022A05D0416A4C
:1009500041F48021416201207047006842690A43E6
:10096000426100207047F0B590F820500468A468F8
:10097000012D05D0022D03D0416A41F4802153E0BE
:1009800014F0406F01D1E5004BD5C4F30164022C93
:1009900003D9416A41F4000146E00125A5401D60EC
:1009A0008D684FF4C0739DB1CE6835434E6845EAFB
:1009B000C605066803EB0417F5514FF4C2750768C6
:1009C00005EB04150E697E51097D012905D009E06A
:1009D0000E88CD6845EA4655EBE701684E5946F466
:1009E00080764E511179D2F805504FF4C67641EA1F
:1009F0000525016806EB04168D511178D2F8012007
:100A00004FF4C47541EA0221026805EB0415515107
:100A1000006803EB0411425842F0010242500020EA
:100A2000F0BD416A41F4001141620120F0BD0000B7
:100A300010B590F82020012A07D0022A05D0416A7B
:100A400041F480214162012010BD3B48D0F80022D2
:100A500042F00102C0F80022D0F8002222F47C52B9
:100A6000C0F80022D0F800224B6A42EA0322C0F804
:100A700000220A7D02F01F0301229A40D0F81C32A6
:100A80009343C0F81C32CB69B3B9D0F80C3293430E
:100A9000C0F80C328C894B6864F31F434C6900EB3F
:100AA000C404C4F840320C890B6864F31F434C69DA
:100AB00000EBC404C4F84432CB69012B16D1D0F842
:100AC0000C321343C0F80C320C884B6864F31F439C
:100AD0004C6900EBC404C4F840320C89CB6864F361
:100AE0001F434C6900EBC404C4F844328B69002BEB
:100AF000D0F804320ED01343C0F804320B69002B37
:100B0000D0F8143208D01343C0F81432096A01290E
:100B100004D008E09343EFE79343F5E7D0F81C12C5
:100B20001143C0F81C12D0F8001221F00101C0F8E6
:100B30000012002010BD000000640040704730B576
:100B400090F82040012C05D0022C03D0416A41F4DA
:100B500080215DE00468002955D02469A40754D0A1
:100B60004FF4D874056804EB01142D5915F00405F1
:100B7000956005682D594ED0ED08556005682C59D3
:100B800004F00204D4604FF4DA74056804EB011435
:100B90002D5905F00F05156105682D59C5F3072579
:100BA000956105682C59240C54614FF4DC7204687B
:100BB00002EB0112A4581C700468A458240A5C704B
:100BC0000468A458240C9C700468A258120EDA70B1
:100BD0004FF4DE72046802EB0112A4581C71046821
:100BE000A458240A5C710468A458240C9C710468FD
:100BF000A258120EDA71006881B1016941F020013A
:100C00000161002030BDE468A8E7416A41F40011A9
:100C10004162012030BD6D0D1560AFE7C16841F044
:100C20002001C160EDE72DE9F05F05460068002472
:100C30004669D0F804908768D0F80CB0D0F810A0BE
:100C4000D0F81880F10748D0F90714D0012181604D
:100C5000B80703D5284600F050FA0CE0780702D513
:100C60004FF4006407E0380702D54FF4805402E0E7
:100C7000284600F041FAF80516D529684FF480702F
:100C80008860B80503D5284600F039FA0CE07805ED
:100C900002D544F4005407E0380502D544F48044FA
:100CA00002E0284600F02AFAF80316D529684FF426
:100CB00080308860B80303D5284600F022FA0CE0A3
:100CC000780302D544F4004407E0380302D544F425
:100CD000803402E0284600F013FA300707D55FEAB7
:100CE000CB6004D52968102044F40074C8607007F4
:100CF0004FF0080707D55FEA0B7004D52868C76076
:100D0000284600F099F9B00706D52868C068800722
:100D100002D0284600F092F9700607D55FEACA6053
:100D200004D52968102044F480640861B00607D512
:100D30005FEA0A7004D528680761284600F0ACF91C
:100D4000F00606D528680069800702D0284600F022
:100D5000A4F9B00308D55FEAC96005D52968102059
:100D60004860284600F09AF9F00307D55FEA097059
:100D700004D528684760284600F0C4F9300446D5F9
:100D80005FEA497040D5F00504D55FEAC87001D02C
:100D900044F00104B00504D55FEA887001D544F041
:100DA0000204700504D55FEA487001D544F00404DC
:100DB000300529D518F0700F26D008F070004028B3
:100DC00015D006DC102809D020280AD0302816D1EA
:100DD0000AE050280ED0602811D10EE044F008043B
:100DE0000DE044F010040AE044F0200407E044F071
:100DF000400404E044F0800401E044F48074286876
:100E0000816921F070018161296804204860002C0B
:100E100005D0686A204368622846FFF78FFEBDE868
:100E2000F09F70B5040003D094F8200010B104E0E6
:100E3000012070BD204600F081F82068016841F073
:100E40000101016000F0ECFB0546052604E000F01E
:100E5000E7FB401B0A2811D820684068C007F6D07D
:100E60002068016821F00201016000F0D9FB05460D
:100E70000BE000F0D5FB401B0A2806D9606A40F45D
:100E80000030606284F82060D2E720684068800704
:100E9000EFD4207E0128206801683DD021F0800138
:100EA0000160607E01282068016838D021F040018F
:100EB0000160A07E01282068016833D021F0200164
:100EC0000160E07E0128206801682ED041F0100109
:100ED0000160207F01282068016829D021F00801E5
:100EE0000160607F01282068016824D021F004019E
:100EF0000160D4E902010843D4E904121143084314
:100F00006168491E08432168C861002060620120B1
:100F100084F82000002070BD41F08001C0E741F05E
:100F20004001C5E741F02001CAE721F01001CFE7F9
:100F300041F00801D4E741F00401D9E7F0B587B0EA
:100F4000044614216846FFF798FA364B3648DFF816
:100F5000D0E01968D4F800C0334A032502260927D7
:100F600010300024491CF44522D11960012907D111
:100F7000016841F000710160006800F000700590A8
:100F8000106840F0080010601068CDE9005600F0CD
:100F90000800CDE9047069462448CDE9024500F017
:100FA00047FA00220521142000F0FAFB142032E059
:100FB000DFF87CE0F44530D1D0F800C04CF0806C14
:100FC000C0F800C0D0F800C001290CF0806CCDF84A
:100FD00014C0196007D1016841F000710160006818
:100FE00000F000700590106840F00200106010687A
:100FF00002AB00F0020005906020CDE9000683E816
:10100000B00069460B4800F013FA00220521402089
:1010100000F0C6FB402000F0B5FB07B0F0BD0000BB
:10102000006400400800002030380240000C0240FC
:10103000006800400004024070470000134910B5EA
:1010400088420ED1124B00211C46A3F11C02FFF76F
:1010500076FD0F4821461C380068BDE81040FFF7B8
:10106000B1BA0C4988420FD1094B002124331C46E8
:10107000A3F11C02FFF763FD054821460830006814
:10108000BDE81040FFF7CABA10BD00003C030020C5
:1010900090410020640300207047704770470000B3
:1010A00070B5044690F82000012804D0606A40F42E
:1010B0000020606218E0022084F8200020680168A7
:1010C00021F00101016000F0ABFA05460EE000BF1F
:1010D00000F0A6FA401B0A2808D9606A40F40030E4
:1010E0006062052084F82000012070BD20684068FF
:1010F000C007EDD1606270BD7047704770477047A0
:101100007047704770472DE9F0410446876D00F045
:1011100087FA064694F835000025022806D080207C
:10112000606584F834500120BDE8F08120680168D2
:1011300021F0160101602068416921F080014161C0
:10114000206C08B9A06C20B12068016821F008016A
:1011500001602068016821F0010101600CE000F0ED
:101160005FFA801B052807D920206065032084F8DA
:10117000350084F83450D7E720680068C007EED106
:1011800094F85C103F208840B860012084F8350056
:1011900084F834500020C7E790F83510022903D0B6
:1011A0008021416501207047052180F835100068D5
:1011B000016821F001010160002070472DE9F8432A
:1011C00004464FF00009CDF8009063484FF41651E3
:1011D000A56D0068B0FBF1F72E6894F85C1008204C
:1011E00000FA01F131420FD021680A6852070BD58D
:1011F0000A6822F004020A6094F85C108840A86033
:10120000606D40F00100606594F85C104FF00108DB
:1012100008FA01F0304208D021684969090604D56E
:10122000A860606D40F00200606594F85C100420D6
:101230008840304208D021680968890704D5A86031
:10124000606D40F00400606594F85C1010208840E8
:10125000304218D021680968090714D5A8602068B1
:101260000168490304D50068000308D5A16C07E0B4
:101270000168C90503D4016821F008010160216CEF
:1012800009B12046884794F85C10202088403042FD
:1012900031D021680968C9062DD5A86094F83500B9
:1012A00005282068016806D0490347D50068000377
:1012B0001DD4616C1CE021F01601016020684169B9
:1012C00021F080014161206C08B9A06C20B1206838
:1012D000016821F00801016094F85C103F2088400B
:1012E000A86084F8358084F83490216D1FE0E16BAC
:1012F00009B120468847606D00282BD0606DC0077B
:1013000014D0052084F835002068016821F001011F
:1013100001600098401C0090B84203D82068006823
:10132000C007F6D184F8358084F83490E16C002948
:1013300010D001B02046BDE8F04308470168C90558
:10134000D5D4016821F01001016084F8358084F85B
:101350003490CCE7BDE8F883180000202DE9F04177
:10136000044600F05DF906465CB1022084F83500C1
:10137000002584F834502068016821F001010160E3
:101380000DE00120BDE8F08100F04AF9801B05283E
:1013900005D920206065032084F83500F2E7206835
:1013A0000068C007F0D12268116820480140D4E9E4
:1013B00001031843D4E903363343184363691843E0
:1013C000A3691843E3691843236A18430843616A11
:1013D000042903D1D4E90B13194308431060206892
:1013E0004069666A20F0070130460E430127042851
:1013F0000CD1A06A0643E06A40B12046FFF774FAB8
:1014000020B14020606584F83570BAE720684661F5
:101410002046FFF755FA94F85C203F219140816007
:10142000656584F835700020ACE700003F8010F05F
:101430002DE9F84FDFF8BCA1002201250AF1040BC9
:1014400003264FF00F090BF1040E00BF0B6805FADD
:1014500002F42340A34270D10F7907F00307012F54
:1014600001D0022F16D187684FEA420806FA08FC1D
:1014700027EA0C07D1F80CC00CFA08FC4CEA070C60
:10148000C0F808C04768A7430C79C4F3001494401F
:101490003C4344600C79E443A4070AD0C4684FEA93
:1014A000420C06FA0CF7BC438F6807FA0CF7274387
:1014B000C7600C7904F00304022C12D1D40800EBAD
:1014C000840CDCF820405707FF0E09FA07F824EADD
:1014D0000804D1F8108008FA07F848EA0408CCF8A4
:1014E000208004684FEA420C06FA0CF7BC430F79DF
:1014F00007F0030707FA0CF7274307604C6814F45A
:10150000403F70D03C4C276847F4804727602468F0
:1015100022F0030704F480440094384C07EB040CD9
:10152000DCF8084897074FEA177809FA08F7BC4330
:10153000334FB84202D1002724E054E0314FB84283
:1015400001D101271EE0304FB84201D1022719E036
:101550002E4FB84201D1032714E02D4FB84201D1DC
:1015600004270FE02B4FB84201D105270AE02A4F8C
:10157000B84201D1062705E0284FB84201D107271C
:1015800000E0082707FA08F72743CCF80878DAF8CC
:1015900000405746D1F804C09C435FEACC3C00D5DC
:1015A0001C433C60DBF800405F46D1F804C09C431C
:1015B0005FEA8C3C00D51C433C60DEF80040774677
:1015C000D1F804C09C435FEACC2C00D51C433C609E
:1015D000084F0C373C68D1F804C09C435FEA8C2C60
:1015E00000D51C433C60521C102AFFF42FAFBDE80D
:1015F000F88F0000003C01404438024000300140B8
:10160000000002400004024000080240000C0240BA
:10161000001002400014024000180240001C02406A
:1016200001488068704700000C00002070B504007D
:1016300011D021684CF6CC400860216845F2555025
:101640000860D4E9000141602168A0688860FFF764
:10165000E7FF05460DE0012070BD00BFFFF7E0FF8A
:10166000401B312805D92068C068800701D00320BD
:1016700070BD2068C0688007F0D121684AF6AA20B2
:101680000860002070BD00684AF6AA2101600020B1
:1016900070470000024881680278114481607047F9
:1016A0000C0000200B4810B5016841F40071016086
:1016B000016841F480610160016841F4807101605A
:1016C000032000F08DF80F2000F006F800F03EF83F
:1016D000002010BD003C024010B5014688B0002239
:1016E0001C2000F05DF81C2000F04CF81448002489
:1016F000016841F001010160006805A900F00100E6
:101700000690684600F018F900F036F90D494000DF
:10171000B0FBF1F10C484FF08042491E026040F2EC
:10172000E732C0E90324C0E9011400F02FFB10B137
:10173000012008B010BD044800F056FBF9E7000096
:101740004038024040420F003C0400200C4882B068
:10175000016841F480410160006800F4804000901D
:101760000748001F016841F08051016000680022B5
:1017700000F0805000900F21901E02B000F010B8D1
:1017800044380240002809DB00F01F02012191408B
:101790004009800000F1E020C0F80011704700000F
:1017A000F0B40E4B1B680C46C3F30223C3F10705CC
:1017B000042D00D90425191D072901D2002300E0BA
:1017C000DB1E012606FA05F1491E214099409E4084
:1017D000761E16403143F0BC01F0B8B80CED00E0C5
:1017E000064900F0070208684FF6FF03184040EA78
:1017F0000220034A10430860704700000CED00E02F
:101800000000FA052DE9F0470E46050065D0DFF827
:101810001481D8F80000F7B200F00700B04207D2F8
:1018200088F80070D8F8000000F00700B04254D1EA
:1018300028683D4C810712D5400703D5206840F445
:10184000E05020602878000703D5206840F460400D
:1018500020602068A96820F0F00008432060287804
:10186000C0072DD0304968680839012812D00228F5
:1018700013D0032811D00968890700292DDA2168BF
:1018800021F0030101432160FFF7CAFE814641F2C6
:10189000883A0EE009688903EFE709688901ECE7F7
:1018A000FFF7BEFEA0EB0901514502D90320BDE8B8
:1018B000F0872068696800F00C00B0EB810FEFD171
:1018C000D8F80010404601F00701B14207D907706F
:1018D000006800F00700B04201D00120E7E7287857
:1018E000400705D52068E96820F4E05008432060EF
:1018F0002878000706D52068296920F4604040EA6E
:10190000C100206000F058F82168084AC1F30311B3
:10191000515CC8400649086006480068FFF7DCFED5
:101920000020C4E7003C024008380240703600083E
:1019300018000020100000200F2202600C4A1368DB
:1019400003F003034360136803F0F003836013683C
:1019500003F4E053C36012684FF4E05303EAD20289
:1019600002610448006800F007000860704700004A
:1019700008380240003C02400448054900680968F4
:10198000044AC1F38221515CC8407047180000200E
:101990000838024080360008044805490068096894
:1019A000044AC1F34231515CC8407047180000201E
:1019B0000838024080360008154810B5006810F05D
:1019C0000C02144813D01449042A0FD0082A0ED14F
:1019D0000F4C241F2268236802F03F025B0207D5E8
:1019E0002068C0F38810A0FB010106E0084610BD86
:1019F0002168C1F38811A1FB00010023FEF794FCCC
:101A00002168C1F30141491C4900B0FBF1F010BD50
:101A1000083802400024F40040787D012DE9F84F99
:101A200004006ED02078DFF84C93C007A9F10405BC
:101A30004AD009F104000168C1F38101012908D0ED
:101A40000068C0F3810002280AD1D9F800004002E2
:101A500006D52868800337D560680028E1D033E0D8
:101A60006068B0F5803F10D0B0F5A02F286810D086
:101A700020F480302860286820F480202860606886
:101A8000A8B1FFF7CDFD06460DE0286840F4803090
:101A9000F4E740F480202860F7E700BFFFF7C0FDBF
:101AA000801B642873D828688003F7D50CE0FFF703
:101AB000B7FD064605E000BFFFF7B2FD801B6428B6
:101AC000F0D828688003F7D42078DFF8AC8280074C
:101AD0004FF0000A3ED5A748001D016811F00C0F19
:101AE00008D00068C0F3810002280BD1D9F80000AB
:101AF000400207D42868800716D5E068012800D185
:101B000012E033E1E068B8B10120C8F80000FFF747
:101B100087FD064605E000BFFFF782FD801B022817
:101B2000C0D828688007F7D52868216920F0F80018
:101B300040EAC10028600DE0C8F800A0FFF770FD82
:101B4000064604E0FFF76CFD801B02281FD82868BA
:101B50008007F7D42078000722D5864F874861692F
:101B6000703771B101210160FFF75AFD064604E0AC
:101B7000FFF756FD801B022809D838688007F7D583
:101B80000EE0C0F800A0FFF74BFD064605E082E03E
:101B9000FFF746FD801B02287DD838688007F7D400
:101BA0002078400768D5DFF8CCB100270BF13C0B5B
:101BB000DBF80000C0000BD4DBF8001041F08051CE
:101BC000CBF80010DBF80000012700F080500090F7
:101BD0006B4E3068C00510D4306840F480703060BF
:101BE000FFF71EFD009005E0FFF71AFD0099401A6F
:101BF000022850D83068C005F6D55E4EA0686C3615
:101C000001280FD00528306810D020F00100306086
:101C1000306820F004003060A068B8B1FFF700FD24
:101C200000900FE0306840F00100F4E740F004005D
:101C30003060F7E7FFF7F4FC0099411A41F2883071
:101C4000814266D830688007F4D50EE0FFF7E8FCE3
:101C5000009007E0FFF7E4FC0099411A41F2883058
:101C6000814256D830688007F4D42FB1DBF80010D9
:101C700021F08051CBF80010A069C8B33D49091D7F
:101C80000968C1F3810102294AD00228504607D0D1
:101C9000C8F8600000E03CE0FFF7C2FC04463BE00F
:101CA0004746C8F86000FFF7BBFC064605E000BFEA
:101CB000FFF7B6FC801B02282BD828688001F7D4D8
:101CC000D4E907010843A16A2E4A490802EB014101
:101CD000626A41EA8211084394F82C1040EA0161DB
:101CE000C9F8001001203866FFF79AFC044606E0A8
:101CF0003EE000BFFFF794FC001B022809D82868CB
:101D00008001F7D534E000BFFFF78AFC001B0228F2
:101D100002D90320BDE8F88F28688001F4D427E0B9
:101D20000128F7D0D9F80000E26900F4800191425F
:101D30001CD1226A00F03F01914217D147F6C071D1
:101D4000626A0140B1EB821F10D1A26A4FF0FF33EB
:101D500000F4403103EB5202B1EB024F06D194F88C
:101D60002C1000F07060B0EB016F01D00120D1E7C2
:101D70000020CFE70438024000004742800E47426F
:101D8000007000400000FFFF7047704710B504006E
:101D900003D094F83D0010B107E0012010BD0020F1
:101DA00084F83C00204600F01EF8022084F83D0034
:101DB000211D206800F02AFC012084F8460084F8E8
:101DC0003E0084F83F0084F8400084F8410084F825
:101DD000420084F8430084F8440084F8450084F805
:101DE0003D00002010BD704790F83D10012901D042
:101DF00001207047022180F83D100168CA6842F056
:101E00000102CA6000681149884214D0B0F1804FC5
:101E100011D00F4988420ED00E4988420BD00E498E
:101E2000884208D00D49884205D00D49884202D029
:101E30000C49884204D1816801F00701062903D0CA
:101E4000016841F00101016000207047000001407D
:101E50000004004000080040000C00400004014065
:101E60000040014000180040704770B5044600680B
:101E700001694FF00005C943890715D4C168C943FA
:101E8000890711D4E91E016101202077206880694B
:101E90008007204602D0FFF7E7FF04E000F098F843
:101EA000204600F096F8257720680169C943490764
:101EB00017D4C168C943490713D46FF00401016105
:101EC000022020772068806910F4407F204602D0ED
:101ED000FFF7CAFF04E000F07BF8204600F079F835
:101EE000257720680169C943090716D4C168C94329
:101EF000090712D46FF008010161042020772068DF
:101F0000C0698007204602D0FFF7AEFF04E000F072
:101F10005FF8204600F05DF8257720680169C94325
:101F2000C90617D4C168C943C90613D46FF010019C
:101F30000161082020772068C06910F4407F2046A6
:101F400002D0FFF791FF04E000F042F8204600F0D5
:101F500040F8257720680169C943C90708D1C168DD
:101F6000C943C90704D1891E0161204600F032F837
:101F700020680169C943090609D4C168C943090633
:101F800005D46FF0800101612046FFF7FDFE206857
:101F90000169C943490609D4C168C943490605D442
:101FA0006FF040010161204600F01BF820680169D4
:101FB000C94389060BD4C168C943890607D46FF0A9
:101FC000200101612046BDE87040FFF7DEBE70BD14
:101FD000704770470068B0F1804F01D1FFF75ABBDE
:101FE0007047704770477047F8B501680446086845
:101FF000CA684B6910F00F0F4FF000055AD003F07C
:10200000010602F49077374365D0C10705D0D105AA
:1020100003D5216C41F001012164410705D5D907A1
:1020200003D0216C41F002012164810705D5D90755
:1020300003D0216C41F004012164010707D502F0AF
:102040002001314303D0216C41F008012164216C4F
:1020500000293BD0800604D5900602D5204600F02A
:1020600068FB20684069216CC0F3801001F0080112
:10207000014320462BD000F035FB20684069400624
:1020800021D52068143050E8001F21F0400140E8BD
:102090000012002AF5D1A06BA8B16C490165A06BB4
:1020A000FFF77AF8002811D0A06B016D01B0BDE8F0
:1020B000F040084783060ED593060CD52046BDE8B0
:1020C000F84000F036BB2046FFF78DFFF8BDFFF764
:1020D0008AFF2564F8BD266B2023012E79D1C60620
:1020E00077D5D60675D508684868009048694006D7
:1020F00040D5A16B086840680004000CEAD0A28DAE
:102100008242E7D9E085C869B0F5807F2DD020688C
:102110000C3050E8001F21F4807140E80012002AC2
:10212000F5D12068143050E8001F21F0010140E88B
:102130000012002AF5D12068143050E8001F21F069
:10214000400140E80012002AF5D184F83E302563B2
:1021500020680C3050E8001F21F0100140E8001208
:10216000002AF5D1A06BFEF7CEFFA08DE18D401ABD
:1021700081B229E0A08DE18D401A81B2E08D002866
:10218000A8D00029A6D020680C3050E8002F22F4F7
:10219000907240E80026002EF5D12068143050E8F7
:1021A000002F22F0010240E80026002EF5D184F82D
:1021B0003E30256320680C3050E8002F22F01002DA
:1021C00040E80023002BF5D12046FFF70BFFF8BDB8
:1021D000FFE705062BD5150629D594F83D002128E3
:1021E000F5D1A068B0F5805F01D12069B0B1206A57
:1021F000411C2162216800784860E08C401E000488
:10220000000CE084E3D12068C16821F08001C16046
:102210002068C16841F04001C160D8E7206A0088A9
:10222000C0F308004860206A801C2062E5E7400691
:10223000CDD55006CBD5CA68204622F04002CA60F0
:1022400084F83D3000F08FF8C1E70000D526000883
:1022500070B5040004D094F83D00002510B106E0EC
:10226000012070BD84F83C50204600F023F8242063
:1022700084F83D002068C16821F40051C160204607
:1022800000F0B8FA2068016921F4904101612068EA
:10229000416921F02A0141612068C16841F400517F
:1022A000C1602564202084F83D0084F83E000020B1
:1022B00070BD000070B586B0064614216846FEF772
:1022C000DCF823493068884240D122480025016863
:1022D00041F400310160006800F4003005901D48B1
:1022E0001038016841F0010101600068694600F0A2
:1022F000010005900C2000900220CDE9010503208B
:102300000390072004901448FFF792F8144C1348E8
:1023100020604FF00060C4E901054014C4E9035097
:1023200080106561C4E90650256220466562FFF7AA
:1023300015F808B1FEF703FBB4630022052126203F
:10234000A663FFF72DFA2620FFF71CFA06B070BD32
:1023500000440040403802400000024088600240D3
:10236000DC03002070477047FEE70000104810B5FE
:102370000E4901600321416000214FF40022816079
:10238000C0E903124FF44012426101760122427605
:102390008276C17601774277FEF743FD002803D0AD
:1023A000BDE81040FEF7CBBA10BD0000006400404D
:1023B0003C030020104810B50E4901600321416024
:1023C00000214FF400228160C0E903124FF4401253
:1023D00042610176012242768276C17601774277A8
:1023E000FEF71FFD002803D0BDE81040FEF7A7BA96
:1023F00010BD00000068004064030020094808B5D3
:10240000016841F4001101600068002200F400102E
:10241000009005211020FFF7C3F9BDE80840102007
:10242000FFF7B0B93038024010B58EB01C220B490E
:102430006846FDF7F0FF0021684600F021FB084CDC
:1024400006491C2220601C3107A8FDF7E4FF00218B
:1024500007A800F015FB60600EB010BD3036000814
:1024600000000020114808B5016841F080010160BA
:10247000016801F080010091016841F001010160F3
:10248000016801F001010091016841F0080101605B
:10249000016801F008010091016841F0020101604A
:1024A000006800F00200009008BD000030380240D3
:1024B000094810B5074901600021416040F6FF71ED
:1024C0008160FFF7B3F8002803D0BDE81040FEF7A5
:1024D00036BA10BD003000408C0300200D4810B506
:1024E0000B4901600C49416000214FF4806281601A
:1024F000C0E903120C22C0E90521C161FFF7A8FE63
:10250000002803D0BDE81040FEF719BA10BD000046
:102510000044004098030020A0860100FEE7FEE78B
:10252000012000F0A1FAFBE710B5502080F31188DC
:10253000BFF34F8FBFF36F8F00F0ACFF18B10449AA
:102540004FF080500860002080F3118810BD00001B
:1025500004ED00E030B593B030216846FDF78DFF03
:1025600014210CA8FDF789FF1F480025016841F0E0
:1025700080510160006800F0805011901B48016894
:1025800041F4804101600068022400F48040119011
:10259000092000904FF4803001900120CDE905041E
:1025A00080050790192008904FF4A870CDE9090420
:1025B00004200B906846FFF731FA08B172B6FEE7C7
:1025C0000CA90F2081E831004FF4A0500F904FF478
:1025D0008050109005210CA8FFF714F9002801D0B5
:1025E00072B6FEE713B030BD4038024000700040C4
:1025F0000248016841F470010160704788ED00E015
:102600000148FFF732BC00003C040020F0B502682E
:10261000254C264D264E274F274B4FF0804CA0428D
:1026200009D0604507D0A84205D0B04203D0B842D7
:1026300001D0984204D122F0700E4A6842EA0E029C
:10264000A0421BD0604519D0A84217D0B04215D087
:10265000B84213D0984211D0184DA8420ED0184D50
:10266000A8420BD0174DA84208D0174DA84205D05C
:10267000164DA84202D0164DA84203D122F440754F
:10268000CA682A434D6922F080022A4302608A68A0
:10269000C2620A688262A04201D0984201D10969EF
:1026A000016301214161F0BD0000014000040040D0
:1026B00000080040000C00400004014000400140C0
:1026C000004401400048014000180040001C004048
:1026D0000020004010B5806B0021C185C184FFF748
:1026E00082FC10BD01680C3151E8002F22F4907279
:1026F00041E80023002BF5D10168143151E8002F87
:1027000022F0010241E80023002BF5D1016B0129E1
:1027100009D101680C3151E8002F22F0100241E884
:102720000023002BF5D1202180F83E100021016309
:10273000704708B590F83E10222901D0022008BD4C
:1027400082684FF480539A4201D1016921B1816AB4
:102750009A421BD04AB10AE00268816A5268C2F309
:1027600008020A80816A891C08E0026972B1026865
:10277000526802F07F020A70816A491C8162C18D31
:10278000491E0904090CC18503D019E0026852688A
:10279000F1E70168CA6822F02002CA600168CA68CD
:1027A00022F48072CA6001684A6922F001024A611B
:1027B000202180F83E10016B012903D0FFF7D2FDE4
:1027C000002008BD0021016301680C3151E8002F91
:1027D00022F0100241E80023002BF5D101680A68BD
:1027E000D20602D50A6849680091818DFFF7FAFB8D
:1027F000E6E7000070B5044600680169E26821F46C
:102800004051114301612169A068E269084361698F
:10281000114308432168CA6849F20C639A43024392
:10282000CA6020684169A26921F440711143416185
:1028300031492068884202D03049884202D1FFF7EE
:10284000ABF801E0FFF798F8E2690023192164254D
:102850003226B2F5004F626828D0A0FB0101930F29
:102860009200FDF761FD0146B0FBF5F06FF0180234
:10287000504301EB800006EB0010B0FBF5F000F0D8
:10288000F002B1FBF5F002EB0012B1FBF5F06FF0D6
:102890001803584301EB800006EB0010B0FBF5F085
:1028A00000F00F0021681044886070BDA0FB01019A
:1028B00092185B41FDF738FD0146B0FBF5F00201CF
:1028C000B1FBF5F06FF01803584301EB800006EB05
:1028D000C000B0FBF5F000F0F80002EB4002B1FBE5
:1028E000F5F0584301EB800006EBC000B0FBF5F0BB
:1028F00000F00700D6E7000000100140001401407E
:102900000148FFF771BB0000980300200C4808B590
:1029100001680A684A680092CA6842F01002CA60F8
:1029200001684A6942F040024A611221009101683F
:10293000044B806BA3F11802091DFDF79FFE08BD33
:1029400098030020F44100207047FEE70907090EB4
:10295000002804DB00F1E02080F80014704700F04C
:102960000F0000F1E02080F8141D70470E4810B5EC
:10297000B0F900000D4C00EE100A2046B8EEC00A77
:1029800084ED010A00F0F0FA94ED080A0849BDEE62
:10299000C00A10EE100A08800649C880BDE8104041
:1029A0004FF40070FDF7E8BD86000020980000207D
:1029B000DC0000209000002010B5044800F08AF8E8
:1029C00004489FED030A80ED000A10BDD8000020E6
:1029D00000C01D4498000020FFF7EEFF0448FEF7FA
:1029E00052FEFFF7C3FF012000F03EF8F6E70000BB
:1029F0008C0300200068016841F400210160014857
:102A0000FFF7A2BFDC4100200068016821F400212B
:102A100001600148FFF798BFF441002010B5FDF7B1
:102A200091FDFDF7E1FDBDE81040FFF76FBFFEF738
:102A300039FEFFF78FFDFFF715FDFFF7DFFCFFF70E
:102A400095FCFFF7B7FCFFF749FDFFF731FDFFF7F6
:102A5000E5FFFFF7E9FC00F00EF8FEE70146002075
:102A6000842900D0C81C704710B500B9012000F0BF
:102A7000ADFB002010BD10B500F0CEFB002010BD56
:102A80007FB50D4604464169B0F9080081B1A169DE
:102A900071B1FFF7E3FFD4E905128DE80700D4E92F
:102AA00000102B46226900F0CAFC039004B070BDF0
:102AB000FFF7D4FF03A9CDE90001208A2B4682B29B
:102AC000D4E9001000F08EFC012801D00020EDE7D1
:102AD0000398EBE701689FED0E0A81ED000A01689B
:102AE00081ED010A016881ED020A016881ED030AA6
:102AF000016881ED050A016881ED060A016881ED32
:102B0000070A016881ED080A006880ED040A704731
:102B1000000000002DE9F041184C0F460546E6681C
:102B20002068001D00F08AFA38B9206890F82C104F
:102B300001208840216981432161681C07D137B198
:102B40002168BDE8F0410E48091D00F0BBBA2068BD
:102B50003544B5424560216805D2A06BBDE8F0411F
:102B6000091D00F097BA606B091D00F093FAA06A86
:102B7000854200D2A562BDE8F08100001C00002063
:102B8000600500202DE9F041054600F0A7FA2E4C23
:102B9000A068401CA06020682C4F10B1606940B351
:102BA0002DE02560A068012829D1002606EB8600CB
:102BB00007EB800000F060FA761C072EF6D323485E
:102BC0008C3000F059FA2148A03000F055FA1F4827
:102BD000B43000F051FA1D48C83000F04DFA1B48DF
:102BE000DC3000F049FA19488C3060631430A0637F
:102BF00005E02068E96AC06A884200D82560606AFA
:102C0000401C6062E96A012022698840104320610B
:102C100001EB810007EB8000291D00F053FA00F062
:102C20007DFA606900280CD02068E96AC06A884291
:102C300007D207494FF080500860BFF34F8FBFF3B2
:102C40006F8FBDE8F08100001C000020840400208C
:102C500004ED00E010B5044690F8510058B1012889
:102C60000CD002280FD0502080F31188BFF34F8F73
:102C7000BFF36F8FFEE7206B00F064FA2046BDE8DB
:102C8000104000F05FBA10BD10484FF47051420779
:102C900006D0C01D0D4920F00700411AC1F5705142
:102CA0000B4A00230144C2E900030839183A21F015
:102CB000070111604B600B600B1AC0E900139360B1
:102CC0004FF00040536050617047000074050020D1
:102CD00070000020144E154CA6F1C8074FF0805824
:102CE000DFF84C9012E000BF00F0F8F9F068C5681A
:102CF000281D00F0A3F9A068401EA0606068401E77
:102D0000606000F00BFA2846FFF7A4FF6068002817
:102D1000EAD138680128F9D9C9F80080BFF34F8F8C
:102D2000BFF36F8FF2E700004C0500201C0000206D
:102D300004ED00E02DE9F0479A46DDE9098481467B
:102D40006FF00303206B03EB82021044089E20F017
:102D50000707780707D0502080F31188BFF34F8F03
:102D6000BFF36F8FFEE7002561B1002023180A5CD6
:102D700083F834200A5C12B1401C1028F6D384F882
:102D8000435001E084F83450072E00D30626E66253
:102D9000C4E91165201D00F07AF904F1180000F073
:102DA00076F92461C6F107006462A061E56484F8E5
:102DB000505052464946384600F0C0F82060B8F1FD
:102DC000000F01D0C8F80040BDE8F08730B51149C8
:102DD00000E011460A688242FBD34B685C188442CB
:102DE00003D1406818444860084643681C18944260
:102DF00009D1084C183C2468A24209D052681A44F0
:102E000042600A6812680260814200D0086030BDEA
:102E10000460F9E7700000200648416B096829B199
:102E2000416BC968C9684968816270474FF0FF31DA
:102E3000FAE700001C00002008484068401C4FF0E2
:102E4000500080F3118804D0BFF34F8FBFF36F8F12
:102E5000FEE7BFF34F8FBFF36F8FFEE778000020D0
:102E60002DE9F0410546002700F00CFA324E30689B
:102E700008B9FFF709FF706905424ED1C5B308359F
:102E800068070ED005F00700C0F108000544680788
:102E900007D0502080F31188BFF34F8FBFF36F8F9F
:102EA000FEE72DB37068854237D8234818300146B5
:102EB0000C6801E020460C466168A94202D22168F4
:102EC0000029F7D131688C4227D00768216801605A
:102ED00060680837411B10290FD96019420708D0D4
:102EE000502080F31188BFF34F8FBFF36F8FFEE741
:102EF00013E041606560FFF769FF61687068401A20
:102F00007060B268904200D2B060706901430020E6
:102F1000C4E90001F068401CF06000F021FB780774
:102F200007D0502080F31188BFF34F8FBFF36F8F0E
:102F3000FEE73846BDE8F0815800002010B5031FB9
:102F40004FF080741C601B1F21F001011960191FD4
:102F5000044B0B6014390A60091F6FF002024438F9
:102F60000A6010BD392E000890EC020A30EE600AAB
:102F700080ED020AB5EEC00AF1EE10FA01DCB1EE06
:102F8000400AD0ED090AB4EEE00AF1EE10FA03D8D7
:102F90009FED290A80ED020A90ED040AD0ED020AA5
:102FA00030EE200A80ED040A90ED0E2AD0ED0A1AC8
:102FB00032EE211AB4EEC01AF1EE10FA06D331EE59
:102FC000C21AB4EEC01AF1EE10FA01DDB0EE410AF9
:102FD00080ED040A90ED0B1A21EE201A80ED051AFF
:102FE000D0ED0C1A61EE801AC0ED061A90ED030ABE
:102FF00090ED0D2A31EE211A30EEC00A20EE020AC1
:1030000080ED070A31EE000A80ED080A90ED0F1AF4
:10301000B4EEC10AF1EE10FA06DCB1EE411AB4EEDC
:10302000C10AF1EE10FA01D2B0EE410A80ED080AB1
:10303000C0ED030A7047000000000000D0E9013233
:1030400001699A60D0E901235A604A68824201D13D
:1030500082684A60002202610868401E08600868B1
:1030600070470000034B036003F1540008608020A8
:1030700010607047E800002000F108014FF0FF32B7
:10308000C0E90112C16001610021016070470021A7
:103090000161704730B50B685A1C02D000F108027C
:1030A00002E0026904E02246546825689D42FAD98C
:1030B00053684B6099608A60516008610168491CDF
:1030C000016030BD42684A6093688B6093685960C4
:1030D000916008610168491C01607047502080F3CD
:1030E0001188BFF34F8FBFF36F8F0A494868401CA8
:1030F000486001280CD10848006810F0FF0F07D085
:10310000502080F31188BFF34F8FBFF36F8FFEE71E
:10311000704700007800002004ED00E0084948688E
:1031200028B1401E486001D180F3118870475020BB
:1031300080F31188BFF34F8FBFF36F8FFEE700005E
:103140007800002070B500282AD0164DA0F10804A0
:1031500060686969084207D1502080F31188BFF385
:103160004F8FBFF36F8FFEE722683AB1502080F394
:103170001188BFF34F8FBFF36F8FFEE78843606006
:1031800000F080F860686968084468602046FFF7CE
:103190001DFE2869401C2861BDE8704000F0E0B9C0
:1031A00070BD0000580000204FF0E02000210161B8
:1031B000816105494FF47A720968B1FBF2F1491E49
:1031C00041610721016170471800002010B502001D
:1031D00014D00F48006B38B1502080F31188BFF332
:1031E0004F8FBFF36F8FFEE700F04CF800211046C1
:1031F000FFF790FC00F0B4F9002807D105494FF023
:1032000080500860BFF34F8FBFF36F8F10BD000079
:103210001C00002004ED00E010B586B000240394EB
:1032200005AA04A903A80494FFF71CFFDDE9030124
:103230000094CDE9011000230EA11048059A00F07A
:10324000FEF80F490028C86211D0502080F3118881
:10325000BFF34F8FBFF36F8F4FF0FF3088620120B5
:103260004861CC6006B0BDE8104000F041B806B03F
:1032700010BD000049444C4500000000D52C00085A
:103280001C0000200248016B491C016370470000CC
:103290001C0000201448016B11B10121C16170476D
:1032A0000021C1610169B1FA81F1C1F11F0101EB96
:1032B00081020E4951F822306BB101EB820101F11C
:1032C00008034A6852684A609A4201D152684A60CB
:1032D000D16801607047502080F31188BFF34F8F91
:1032E000BFF36F8FFEE700001C0000208404002065
:1032F0001CB537480168374A914207D1502080F306
:103300001188BFF34F8FBFF36F8FFEE7006831491D
:10331000491E884207D1502080F31188BFF34F8F98
:10332000BFF36F8FFEE72C4908780190FF200870EB
:1033300008788DF800009DF800009DF8002000F04E
:10334000F000904207D0502080F31188BFF34F8FD8
:10335000BFF36F8FFEE79DF80000204C00F0500097
:1033600020700720A06005E09DF8002052008DF835
:103370000020401E9DF800201206F5D4A06003280E
:1033800007D0502080F31188BFF34F8FBFF36F8FAA
:10339000FEE74FF44070A060019808700C482030A0
:1033A000016841F470010160016841F07041016001
:1033B000FFF7FAFE00206060FCF75AFF084801683A
:1033C00041F040410160FCF73FFF00201CBD0000C0
:1033D00000ED00E071C20F4100E400E07800002041
:1033E00034EF00E02DE9FF5F8346DDE90E87994663
:1033F00016468A469000FFF733FD05001CD0542086
:10340000FFF72EFD040014D00020256384F851003E
:10341000CDE90240CDE900874B4632465146584639
:10342000FFF788FC2046FFF7ADFB012004B0BDE8A4
:10343000F09F2846FFF786FE4FF0FF30F6E7F0B525
:1034400085B0DDE90B640A9DA6B1DCB15427009775
:103450002663022684F85160002604AFCDE90246B7
:10346000CDE90057FFF766FC2046FFF78BFB049879
:1034700005B0F0BD502080F31188BFF34F8FBFF32C
:103480006F8FFEE7502080F31188BFF34F8FBFF39B
:103490006F8FFEE72DE9F0412F4C0026206B28B1FD
:1034A000A069401CA0613046BDE8F081E5686D1C54
:1034B000E56013D1606B006838B1502080F311884B
:1034C000BFF34F8FBFF36F8FFEE7606BA16B61633C
:1034D000A063206A401C2062FFF79EFCA06ADFF810
:1034E0007C80854209D3606B0068A0B1606BC068C6
:1034F000C7687868854211D2A0622068C06A00EB74
:10350000800158F82100012800D90126E06900282F
:10351000C9D00126C7E74FF0FF30EDE7381DFFF7B0
:103520008DFDB86A18B107F11800FFF787FDF96A39
:103530000120226988401043206101EB810108EBE2
:103540008100391DFFF7BEFDF86A2168C96A88420B
:10355000C9D30126C7E700001C0000208404002016
:103560002DE9F0472C4D00242746286B38B1FFF792
:10357000B5FD286B401E2863286B40B146E0502003
:1035800080F31188BFF34F8FBFF36F8FFEE7A968F9
:10359000224E0120D1B3A6F1B40980463068E8B1CB
:1035A000F068C46804F11800FFF748FD201DFFF71C
:1035B00045FDE06A2A6908FA00F11143296100EB30
:1035C000800109EB8100211DFFF77CFDE06A29687D
:1035D000C96A8842E2D3C5F81C80DFE70CB1FFF767
:1035E0001BFCAC6944B14646FFF754FF00B1EE61E5
:1035F000641EF9D10020A861E86938B108490127A3
:1036000038070860BFF34F8FBFF36F8FFFF786FD5A
:103610003846BDE8F08700001C0000203805002077
:1036200004ED00E04FF04070E1EE100A704700003A
:103630009836000821250008000000000000000066
:103640008000000000000000000000008836000834
:10365000D92900080000000000000000000400005C
:103660000000000000000000000610160006101602
:103670000000000000000000010203040607080922
:103680000000000001020304436F6E74726F6C5FF0
:103690005461736B0000000064656661756C74545E
:1036A00061736B00C436000800000020E8000000D1
:1036B000C4010008AC370008E8000020884700007B
:1036C000E001000800000000000000000000000011
:1036D0000100000010000000000000000024F400C1
:1036E00000000000000000000000000000000000DA
:1036F00000000000000000000000000000000000CA
:1037000000000000000000000000000000000000B9
:1037100000000000000000000000000000000000A9
:103720000000000000000000000000000000000099
:103730000000000000000000000000000000000089
:10374000AAAAAAAA000000000000000000000000D1
:103750000000000000000000000000000000000069
:103760000000000000000000000000000000000059
:103770000000000000000000000000000000000049
:1037800000000000000000000000F040CDCC4C3EE6
:103790000000000000803B4500409C459800002050
:0C37A0000000000000000000000000001D
:040000050800018965
:00000001FF
