:020000040800F2
:100000007079002031030008756500087D3C000808
:1000100005470008C90F00087F6E000800000000B7
:100020000000000000000000000000007102000855
:10003000131B000800000000CD02000869670008DB
:100040004B0300084B0300084B0300084B03000858
:100050004B0300084B0300084B0300084B03000848
:100060004B0300084B0300084B0300084917000826
:1000700055170008611700086D1700087917000868
:10008000851700084B0300084B0300084B030008CA
:10009000F50F00084B0300084B0300084B03000852
:1000A0004B0300084B0300084B0300084B030008F8
:1000B000416800084B0300084B0300084B0300088D
:1000C0004B0300084B0300084B0300084B030008D8
:1000D0004B030008F96C0008416D0008B56D00087D
:1000E0004B0300084B0300084B0300084B030008B8
:1000F0004B0300084B0300084B030008911700084E
:100100004B0300084B0300084B0300084B03000897
:10011000ED690008056A00084B0300084B0300085E
:100120004B0300084B0300089D1700084B03000811
:100130004B0300084B0300084B0300084B03000867
:10014000551100084B0300084B0300084B0300083F
:100150004B0300084B030008A91700084B030008D5
:100160004B0300084B0300084B0300084B03000837
:100170004B0300084B0300084B030008000000007D
:100180004B0300084B03000800F002F800F060F891
:100190000AA090E8000C82448344AAF10107DA45E2
:1001A00001D100F055F8AFF2090EBAE80F0013F0D4
:1001B000010F18BFFB1A43F001031847E40E0100BA
:1001C000040F01000A444FF0000C10F8013B13F03B
:1001D000070408BF10F8014B1D1108BF10F8015BA0
:1001E000641E05D010F8016B641E01F8016BF9D193
:1001F00013F0080F1EBF10F8014BAD1C0C1B09D1EA
:100200006D1E58BF01F801CBFAD505E014F8016B5B
:1002100001F8016B6D1EF9D59142D6D370470000ED
:100220000023002400250026103A28BF78C1FBD8FF
:10023000520728BF30C148BF0B6070471FB50EF092
:1002400014FC9DE8030000F03FFA1FBD10B510BD7F
:1002500000F0A6FA1146FFF7F1FF0AF091FA00F05C
:10026000C4FA03B4FFF7F2FF03BC00F0F5FA000094
:100270002C4B19680868B0E8F04F80F30988BFF389
:100280006F8F4FF0000080F311887047000000006E
:1002900008480068006880F308884FF0000080F389
:1002A000148862B661B6BFF34F8FBFF36F8F00DF64
:1002B00000BF00BF08ED00E0DFF80C00016841F46A
:1002C00070010160704700BF88ED00E0EFF3098026
:1002D000BFF36F8F134B1A681EF0100F08BF20ED8D
:1002E000108A20E9F04F106009B44FF0500080F3FD
:1002F0001188BFF34F8FBFF36F8F0DF0B3FB4FF03B
:10030000000080F3118809BC19680868B0E8F04F54
:100310001EF0100F08BFB0EC108A80F30988BFF3FD
:100320006F8F704724000020EFF3058070470000B6
:100330000948804709480047FEE7FEE7FEE7FEE779
:10034000FEE7FEE7FEE7FEE7FEE7FEE704480549B5
:10035000054A064B70470000316800088901000813
:100360007073002070790020707500207075002077
:1003700070B5064600F08CF9056806F10B0020F018
:100380000704B4429CBF002070BD2B466A68BAB116
:100390001068A04210D304F1080188423CBF5068A5
:1003A000586007D35168101941601168091B01603A
:1003B00058601460101D70BD13465268002AE7D1C2
:1003C0002146284600F06CF90028DED170BD70B5DA
:1003D0000446051F00F05CF90068002C14BF446857
:1003E00070BD002C18BFAC423CBF20466468F8D3F7
:1003F00001680A18AA4218BF456003D12A68054659
:100400001144016028684119A1421CBF6C6070BD95
:100410006168696021680844286070BD53EA020C75
:1004200000F069802DE9F04B4FF00006002B1FBF54
:10043000B3FA83F503FA05F424FA05F65E4012BF19
:100440001643B2FA82F502FA05F4C5F120051EBF83
:1004500022FA05FC44EA0C04203556EA044C4FEA23
:10046000144418BF641C4FF000084FF0000990427C
:1004700071EB030C39D3002919BFB1FA81F701FAE6
:1004800007F6B0FA80F700FA07F6C7F120071EBF9B
:1004900020FA07FC46EA0C062037B6FBF4FCA7EB73
:1004A0000507103F07F01F0BCBF120060CFA0BFBE2
:1004B0002CFA06F644BFB3460026202FA4BF5E46A2
:1004C0004FF0000B5BEA060C08BF4FF0010B19EB75
:1004D0000B09ABFB027C48EB0608C01B06FB02CCF9
:1004E0000BFB03CC71EB0C01C1E70B460246414606
:1004F0004846BDE8F08B13B54FF000004FF0000107
:10050000AFF30080BDE81C407047032A40F2308002
:1005100010F0030C00F0158011F8013BBCF1020F44
:10052000624498BF11F801CB00F8013B38BF11F8C5
:10053000013BA2F1040298BF00F801CB38BF00F8DC
:10054000013B11F0030300F02580083AC0F0088059
:1005500051F8043B083A51F804CBA0E80810F5E73D
:10056000121D5CBF51F8043B40F8043BAFF3008020
:10057000D20724BF11F8013B11F801CB48BF11F895
:10058000012B24BF00F8013B00F801CB48BF00F865
:10059000012B704710B5203AC0F00B80B1E818501D
:1005A000203AA0E81850B1E81850A0E81850BFF45D
:1005B000F5AF5FEA027C24BFB1E81850A0E81850FC
:1005C00044BF18C918C0BDE810405FEA827C24BF50
:1005D00051F8043B40F8043B08BF7047D20728BFDE
:1005E00031F8023B48BF11F8012B28BF20F8023B2D
:1005F00048BF00F8012B70474FF000020429C0F0FB
:10060000128010F0030C00F01B80CCF1040CBCF144
:10061000020F18BF00F8012BA8BF20F8022BA1EB96
:100620000C0100F00DB85FEAC17C24BF00F8012B7B
:1006300000F8012B48BF00F8012B70474FF0000273
:1006400000B5134694469646203922BFA0E80C50C8
:10065000A0E80C50B1F12001BFF4F7AF090728BFA3
:10066000A0E80C5048BF0CC05DF804EB890028BF1F
:1006700040F8042B08BF704748BF20F8022B11F048
:10068000804F18BF00F8012B7047704770477047C4
:1006900000487047187300207047704770477047D4
:1006A00038B504460A4600206946AFF300800028AA
:1006B00008BF38BD02460099204600F04FF80120DF
:1006C00038BD012000F064B8F8B5AFF300800546EE
:1006D00000200C46102000BF0646A819A0420DD9E4
:1006E000324669460020AFF30080070008BF00F0E3
:1006F0004FF80098A04218BF0546C419FFF7C8FF7D
:1007000005600746F01D20F007004619284600F056
:100710000AF8B44208BFF8BDA21B31463868BDE8EC
:10072000F84000F01BB800210160C0E901107047DB
:100730001020704710B500F00DF8006810BD10B51E
:10074000044600F007F8046010BD00000048704740
:100750001073002000487047107300200346406863
:100760008C46002818BF88423CBF03464068F8D337
:1007700018681844884207D00CF1030020F00700E5
:10078000001D411A521A0146081D0A60FFF71FBEDC
:1007900010B500F039F8BDE8104000F02FB87047F0
:1007A0007546FFF7D3FFAE4605006946534620F075
:1007B0000700854618B020B5FFF7C8FDBDE820400A
:1007C0004FF000064FF000074FF000084FF0000B0D
:1007D00021F00701AC46ACE8C009ACE8C009ACE8C0
:1007E000C009ACE8C0098D46704710B50446AFF3A8
:1007F00000802046BDE81040FFF733BD002801D03F
:1008000000F02AB87047000010B5012805D000217B
:1008100003A000F027F8012010BD09A1F8E70000AF
:1008200053494752544D454D3A204F7574206F66D9
:100830002068656170206D656D6F72790000000041
:100840003A2048656170206D656D6F727920636F25
:10085000727275707465640001491820ABBEFEE7C2
:100860002600020070B505460C460A2000E06D1C0B
:1008700000F011F835B128780028F8D102E0641CA6
:1008800000F009F814B120780028F8D1BDE87040D4
:100890000A20AFF3008008B569468DF800000320F8
:1008A000ABBE08BD30B50C4605000CD0022C0AD9F1
:1008B0000548A11E0288284601F08AF9291901F885
:1008C000020D000A487030BDB000002030B50C4663
:1008D00005000AD0022C08D9601E81B2FF222846EA
:1008E00001F08CF9291901F8010C30BD2DE9FF5FE9
:1008F00099462DED0C8B1EAE92468B46DDE91C40D1
:1009000096E82E00D4ED000AFE4CDFF8FC83C4ED1F
:10091000110A90ED000A84ED120A91ED000A84EDAF
:10092000130A92ED000A84ED140A93ED000A84ED97
:10093000150A95ED000A454684ED160A98F80C1044
:100940009FEDF28AFDEEE00AB0EE480A10EE900A42
:1009500000B209F0E7FE84ED110AD4ED120A297BFA
:10096000B0EE480AFDEEE00A10EE900A00B209F07F
:10097000D9FE84ED120AD4ED130A297BB0EE480AA1
:10098000FDEEE00A10EE900A00B209F0CBFE10EE88
:10099000105A606C0DF0F8FF9FEDDD8B53EC182BB7
:1009A0000DF032FD0DF0A4FA07466064A06C0DF066
:1009B000EBFF53EC182B0DF027FD0DF099FA0646CE
:1009C000A06428460DF0E0FF53EC182B0DF01CFD41
:1009D0000DF08EFAE766E064C4E91C60D4ED140AF9
:1009E00094ED150A94ED161AB0EE008A20EE800AF6
:1009F00020EE010AB5EEC00AF1EE10FA7ED0FDEE4F
:100A0000E00A454698F80C1010EE900AB0EE000A85
:100A100000B209F09BFE84ED140AD4ED150A297B7F
:100A2000B0EE000AFDEEE00A10EE900A00B209F006
:100A30008DFE84ED150AD4ED160A297BB0EE000A6E
:100A4000FDEEE00A10EE900A00B209F07FFEF0EE33
:100A5000400AC4ED160A94ED140A94ED151A20EE1E
:100A6000000A01EE010A00EEA00A09F0E5FD84ED9E
:100A70000A0AD4ED140A04F1380060EE803AC4ED9D
:100A8000143AD4ED150A20EE804A84ED154AD4EDCF
:100A9000160A20EE801A84ED161AD4ED072AD4ED3A
:100AA000090A94ED060AD4ED081A22EEA02A00EEF7
:100AB000612A22EE083A20EE222A20EE000A84ED76
:100AC0000B3A01EEA02A02EEE20A22EE082A01EE1B
:100AD000E10A84ED0C2A63EE821A00EEA00A44EECD
:100AE000431A84ED0D0A64EE000A41EE420A21EE3B
:100AF000031A03EEC01AC0EC030A00E013E094ED01
:100B0000112A94ED000A00EE202A84ED112AD4ED7A
:100B1000120A40EE010AC4ED120AD4ED130A40EEA7
:100B2000210AC4ED130A94ED060A84ED170A94ED28
:100B3000072AF0EE405A84ED182A94ED081A84ED45
:100B4000191AD4ED091AC4ED1A1AD4ED113A94ED1C
:100B5000125A94ED134A62EE630A60EE232AD4ED32
:100B6000014A41EE450A41EE042A41EEC40A41EE33
:100B7000C52A40EEA45AF0EE420A42EEA40A60EE04
:100B8000052A20EE040AC4ED065A42EE442A02EE7B
:100B9000050AC4ED070AB0EE603AF0EE410A41EEF4
:100BA000A32A01EE630A42EEA40A40EE241A25EEBF
:100BB000A50AC4ED080A03EE030AF0EE602AC4EDAC
:100BC000091A02EEA20A01EEA10A09F035FD84ED30
:100BD0000A0AD4ED060A20EE80BA84ED06BAD4EDF6
:100BE000070A60EE809AC4ED079AD4ED080A60EE19
:100BF000808AC4ED088AD4ED090A20EE809A2BEE93
:100C00000B0A84ED099A09EEE90A08EEE80A09EEF2
:100C1000090A10EE100A0DF0B7FE28EE880A6BEEF6
:100C2000080A41EC1A0B20EE090A00EEA90A10EEA0
:100C3000100A0DF0A9FE41EC100BB0EE4A1AF0EECE
:100C40006A1A06F0E1FC9FED34AB51EC100B53EC4B
:100C50001A2B0DF0D9FB0DF04BF9CBF8000094EDF9
:100C6000070AD4ED090A94ED081A20EE080A20EECE
:100C7000200AD4ED060A60EE880A00EEC10A10EEE2
:100C8000100A0DF081FE41EC100B06F0A1F99FED6A
:100C9000249B51EC100B53EC192B0DF0B5FB0DF010
:100CA00027F90C990860D4ED068A94ED07CA94EDF3
:100CB00008DA28EEA80AD4ED09CA0CEE0C0A0DEEEB
:100CC0004D0A0CEEEC0A10EE100A0DF05DFE2CEE53
:100CD0000D0A41EC1B0B08EEAC0A20EE080A10EEE0
:100CE000100A0DF051FE41EC100BB0EE4B1AF0EE75
:100CF0006B1A06F089FC53EC192B51EC100B0DF01C
:100D000083FB11E058010020F86C00200000FA4439
:100D1000514CDE0033DF913F000000E0DBA54C408A
:100D2000000000E0DBA54CC00DF0E2F8CAF80000BE
:100D3000774D94ED020A85ED020AD4ED032AF0EE18
:100D4000403AC5ED032A94ED042A85ED042AD4ED3A
:100D5000051AC5ED051A94ED1B4A94ED1C5AD4ED05
:100D60001D4A62EEC40A20EE041A60EE055A20EE17
:100D7000240A42EE450A02EE241A94ED013A02EEEC
:100D8000850A42EEE45A41EEE40A01EEC51A02EE8B
:100D9000440A41EE845A40EE833AF0EE620A41EE94
:100DA000030A40EE031AB0EE421A23EEA30A05EE40
:100DB000831AC4ED1E3AC4ED1F0A00EEA00A85ECAA
:100DC000021A01EE010A01EEA10A09F035FC84EDD8
:100DD0000A0AD4ED1E0A20EE80DA84ED1EDAD4ED84
:100DE0001F0A20EE80BA84ED1FBAD5ED000A60EE2E
:100DF000808AC5ED008AD5ED010A60EE80BA2DEE3D
:100E00000D0AC5ED01BA0BEE4B0A08EEE80A0BEE2F
:100E1000AB0A10EE100A0DF0B7FD28EE880A6DEE51
:100E2000080A41EC1C0B20EE2B0A00EE8B0A10EE98
:100E3000100A0DF0A9FD41EC100BB0EE4C1AF0EECB
:100E40006C1A06F0E1FB53EC1A2B51EC100B0DF071
:100E5000DBFA0DF04DF81A99086094ED1F0AD5EDF4
:100E6000010A95ED001A20EE080A20EE200AD4EDC2
:100E70001E0A60EE880A00EEC10A10EE100A0DF09C
:100E800083FD41EC100B06F0A3F853EC192B51EC49
:100E9000100B0DF0B9FA0DF02BF8C9F80000D4EDE5
:100EA0001E8AD4ED1FAA95ED00CA28EEA80A95ED7A
:100EB00001AA0AEEAA0A0CEE4C0A0AEE4A0A10EE41
:100EC000100A0DF061FD2AEE8C0A41EC1B0B08EEB6
:100ED0008A0A20EE080A10EE100A0DF055FD41ECCA
:100EE000100BB0EE4B1AF0EE6B1A06F08DFB53ECC4
:100EF000192B51EC100B0DF087FA0CF0F9FF1B9930
:100F000008600020BDEC0C8B04B0BDE8F09F000031
:100F1000D80100202DE9FE4F1546DDE90C9A0E465A
:100F200007460C221C466946104603F0E7F9BDF857
:100F30000080BDF802C0BDF80430BDF80620BDF841
:100F40000810BDF80A00A4F80080A9F800C0AAF8AB
:100F500000303A8031802880BDE8FE8F38B51948CE
:100F600007F0EEFD07F060FA164807F021FA044694
:100F700007F05AFA24BB01208DF800000146114AFF
:100F8000684607F06BFE07F04FFA0E4805F0BCFB11
:100F900000208DF800000B4A0121684607F05EFE34
:100FA00007F042FA074805F085FB02208DF80000A3
:100FB000044A0121684607F051FE044607F034FA5E
:100FC000204638BDF86C0020FEE7000000B58BB06D
:100FD000684600F015F96946054800F04DFF02210A
:100FE000034800F0D3FE024801F07EFA0BB000BDCA
:100FF00094230020014801F03AB800009423002017
:101000001CB50A88120A8DF800200A788DF8012094
:101010004A88120A8DF802208A788DF803208A887F
:10102000120A8DF804200A798DF80520CA88120A60
:101030008DF8062089798DF8071001466A46024826
:1010400000F0ECF81CBD000094230020F0B440F246
:1010500002232F4CA0F20222984224D016DC2D4A03
:101060004FF480774FF0000513684FF00106B84247
:101070002ED0A0F58070013837D0012845D0B84275
:1010800041D108222046D4F8AC321FE0012A0FD00B
:10109000022A12D0052A15D0062A34D11E48082269
:1010A000D0F8AC3212E008221C48D4F87C350DE0B0
:1010B00008221B48D4F84C3808E008221948D4F814
:1010C0001C3B03E018480822D0F8AC32F0BC1847AB
:1010D0000888188010684B8843810B798376B1F8B3
:1010E00005304382C979017509E00888188188783C
:1010F0001873B1F80300D881B1F805001882506860
:10110000858050688670F0BC70470868D861FAE73F
:10111000F4010020FC200020340D0020C404002035
:1011200094070020640A0020D412002000B58BB080
:10113000684600F065F86946054800F09DFE02210A
:10114000034800F023FE024801F0CEF90BB000BDC9
:10115000BC230020014800F08ABF0000BC2300200F
:101160001CB50A88120A8DF800200A788DF8012033
:101170004A88120A8DF802208A788DF803208A881E
:10118000120A8DF804200A798DF80520CA88120AFF
:101190008DF8062089798DF8071001466A460248C5
:1011A00000F03CF81CBD0000BC230020104AA0F554
:1011B000007002380FD0032808D0042812D0052868
:1011C00015D1D2F81C3B08220A4818470A480822C1
:1011D000D0F87C3503E0D2F87C350548082200F5CC
:1011E0003470F2E7D2F84C3808220448EDE7704733
:1011F000D4120020441B0020340D0020741800205D
:101200000021016041608160C16001610122416192
:10121000C0E90612C0E908217047000010B50B4C68
:10122000036888B0A34202D0094CA3420BD10091BD
:101230000021029103910821049106AB694600F058
:10124000B7FD002800D0012008B010BD00640040A8
:101250000068004008B1012802D1024981F831003C
:101260007047000004010020704700B5034608687D
:101270000A46002821D0506800281ED09068002817
:101280001BD0D068002818D0106910B90020FFF7D3
:10129000E1FF906898601068186050685860D068E6
:1012A000D8604FF4FA50988642F6E060D886002065
:1012B00083F83100322083F8300000BD2DE9F04181
:1012C000044600686268B0F90210B2F90270A268C0
:1012D000D0F8C032B2F90260E268B2F90250B4F953
:1012E000202000EE102A00F12C021046F8EEC00A71
:1012F00000EE101AB8EEC00A9847BDEEC00A10EE14
:10130000100A2085B4F9220000EE100A6068F8EE99
:10131000C00A00EE107A00F12C01D0F8C022B8EE1D
:10132000C00A08469047BDEEC00A10EE100A60855C
:10133000B4F9240000EE100AA068F8EEC00A00EE2E
:10134000106AD0F8C0122C30B8EEC00A8847BDEE43
:10135000C00A10EE100AA085B4F9260000EE100AAB
:10136000E068F8EEC00A00EE105A00F12C01D0F847
:10137000C022B8EEC00A08469047BDEEC00A4F49E9
:1013800010EE100A00B2E0854968B4F910208968AF
:10139000B1F90030D21A002A01DD012500E0D5178D
:1013A000B4F91220B1F90230D21A002A01DD01236A
:1013B00000E0D317B4F91420B1F90410511A002930
:1013C00001DD012200E0CA17B4F92810002901DD6F
:1013D0000E4600E04E4200EE106AEF18BE18F8EE1E
:1013E000C00A00EE106AB8EEC00A20EE801A00EEC5
:1013F000101AF8EEC00A9FED320A41EE000AFDEE27
:10140000E00A10EE901A2185B4F92A10002901DDB6
:101410000E4600E04E4200EE906A5E1B1644B8EEA7
:10142000E01A00EE906AF8EEE00A21EE201A00EED3
:10143000901AF8EEE00A41EE000AFDEEE00A10EE26
:10144000901A6185B4F92C10002901DD0E4600E0E8
:101450004E4200EE906AEB1A1344B8EEE01A00EE2A
:10146000903A0028F8EEE00A21EE201A00EE901AD9
:10147000F8EEE00A41EE000AFDEEE00A10EE901AE6
:10148000A18501DD014600E0414200EE901AD11B2A
:10149000B8EEE01A00EE901AF8EEE00A21EE201AFB
:1014A00000EE900AF8EEE00A41EE000ABDEEE00A16
:1014B00010EE100AE085BDE8F0810000301E00202B
:1014C000CDCCCC3DFCB53749B0F92840364EC96B80
:1014D0009FED361AB1F90010ADF8004000EE101A79
:1014E000B0F92A30ADF80230B8EEC00AB0F92C20BD
:1014F000ADF8042010EE105AB0F92E10ADF8061019
:10150000B54201DDB0EE410A10EE105AC0EE010AFC
:10151000274FBD4201DA60EEA00A10EE105A9FED8F
:10152000250AB54201DA20EE800A002C00DC644274
:10153000002B00DC5B422344002A00DC52421A44A8
:10154000002900DC4942114400EE901AF8EEE00A4E
:1015500080EE201AF4EEC00AF1EE10FA14DB00213E
:101560004FEA0D0232F9113000EE103AB8EEC00A1F
:1015700020EE010ABDEEC00A10EE103A22F811303A
:10158000491CC9B20429EDD3BDF800100185BDF88E
:1015900002104185BDF804108185BDF80610C18593
:1015A000FCBD0000040100200000704200007042F9
:1015B0000000C8410000FA4630B58C1800EE104A11
:1015C000254DB8EEC01A00EE103AF8EEC00A95EDBF
:1015D000000A00EE801AD5ED010A21EE201ABDEEB8
:1015E000C11A11EE105A0584551A01EE105A891AC3
:1015F000F8EEC11A01EE103AB8EEC11A41EE001A27
:1016000021EEA01ABDEEC11A11EE105A01EE101A09
:101610004584F8EEC11A01EE103AB8EEC11A41EE57
:10162000001A21EEA01ABDEEC11A11EE101A818423
:10163000614201EE101AF8EEC11A01EE103AB8EE4E
:10164000C11A41EE001A21EEA00ABDEEC00A10EE4A
:10165000101AC18430BD0000FC00002030B5B0F984
:101660001030002B01DD194600E05942B0F912207C
:10167000002A01DD144600E054420D19B0F914109F
:10168000002901DD0C4600E04C422C44C58E24B2FA
:10169000A5420ADA00EE105AF8EE400A00EE104AAF
:1016A000B8EEC01A80EE810A01E0B7EE000A00EE43
:1016B000903AF8EEE00A60EE800AFDEEE00A10EEE5
:1016C000903A00EE902A0382F8EEE00A60EE800A7B
:1016D000FDEEE00A10EE902A00EE901A4282F8EE3B
:1016E000E00A20EE800ABDEEC00A10EE101A8182D8
:1016F00030BD000010B50446B0F91010B0F912204A
:10170000B0F91430FFF758FF2046FFF7A7FF204637
:10171000FFF7D4FD2046FFF7D5FE0548218D018057
:10172000618D4180A18D8180E18DC18010BD00005F
:101730009000002008B1012802D1024981F832004E
:101740007047000004010020014800F05BBF00006A
:1017500004260020014800F055BF0000E4270020C7
:10176000014800F04FBF000044250020014800F070
:1017700049BF000044280020014800F043BF00009A
:10178000A4250020014800F03DBF00008427002070
:10179000014800F037BF000064260020014800F037
:1017A00031BF0000C4260020014800F02BBF00001C
:1017B000242700202DE9F04F85680024099E802D04
:1017C00018D0894DC563894D456490F83450012D7A
:1017D00015D0012580F8345090F83550012D10D0E7
:1017E000002180F834100224002180F834102046B3
:1017F000BDE8F08F4FF4807141650120F8E70220C9
:10180000F6E7022580F835500025456505682F6804
:1018100047F480272F6005682B6103685E6083684A
:10182000402B03682AD099600168CA60714D704EE0
:10183000704FDFF8BC81DFF8B891DFF8B8A1DFF8AE
:10184000B4B1EA14DFF8A8E1016818363037930222
:10185000A9F148090AF1600A0BF1180BAEF1300E3C
:101860004FF0006C41452DD9A94205D0494503D020
:10187000514501D0B14205D1202220E09A60026892
:10188000D160D3E759451AD0714518D0594D7835F4
:10189000A94214D0564D3035A94210D0B9420BD0D0
:1018A000534A183A914207D0524A9032914203D09B
:1018B0004F4A4832914201D11A4600E062464C49F3
:1018C0004C392EE0DFF82C8108F1A80841452AD9CF
:1018D000A94205D0494503D0514501D0B14201D1BB
:1018E00020221CE059451AD0714518D0414D783559
:1018F000A94214D03E4D3035A94210D0B9420BD088
:101900003B4A183A914207D03A4A9032914203D06A
:10191000374A4832914201D11A4600E062463449C2
:1019200050390A605AE0DFF8CC8008F14808414598
:101930002AD9A94205D0494503D0514501D0B14229
:1019400001D120221CE059451AD0714518D0294DEB
:101950007835A94214D0264D3035A94210D0B9426D
:101960000BD0234A183A914207D0224A9032914232
:1019700003D01F4A4832914201D11A4600E0624624
:101980001C491039CA6029E0A94205D0494503D055
:10199000514501D0B14201D120221CE059451AD055
:1019A000714518D0134D7835A94214D0104D3035FB
:1019B000A94210D0B9420BD00D4A183A914207D033
:1019C0000C4A9032914203D0094A4832914201D1E7
:1019D0001A4600E06246074910398A6001680A68C1
:1019E00042F001020A60FFE6DD910008F191000873
:1019F000586402401060024001681823CAB2103ACD
:101A0000B2FBF3F2054B6FF30901032A9B5CC3653C
:101A100000D9091D8165084670470000F0EA0008FA
:101A200010B5014600208B698A6A4FF0C07453B12B
:101A3000B3F5005F15D072B1012A0CD0022A0AD08A
:101A4000032A09D104E01AB1012A06D0022A03D1DF
:101A5000C96AC90100D5012010BDC96AA142FAD0E6
:101A600010BD002AF7D0012AF2D0022AF3D0032AAF
:101A7000F3D010BD30B50468256825F480252560B5
:101A8000046863608368402B036803D09960006832
:101A9000C26030BD9A600068C16030BD70B590F81A
:101AA00034500024012D0CD0012580F8345090F8DA
:101AB00035600025012E06D080F8345002242046DF
:101AC00070BD022070BD022680F83560456505684E
:101AD0002E6826F480262E6005686B608368402B94
:101AE000036808D099600168CA600068016841F025
:101AF00001010160E3E79A600268D160F5E70168DF
:101B00000A68D20604D5C968C90601D50BF0ACBD78
:101B10007047704710B5094808F03FFC084809F0C5
:101B2000E1FC03F0E1F803F00DFE04F0DBF903F053
:101B3000D5FFBDE8104004F037BC0000EC000020E9
:101B4000CC00002010B5C4684068D4F8B012C06A58
:101B500090ED020A2046B8EEC00A8847BDEEC00AE2
:101B6000034A216A10EE100A22F8110010BD00008D
:101B7000A000002010B5C4684068D4F8B812C06A4C
:101B8000B0F9060000EE100A2046B8EEC00A8847F9
:101B9000BDEEC00A034A216A10EE100A22F81100B5
:101BA00010BD0000A000002010B5FFF70FFAFFF7EE
:101BB000BDFA05F0A7F805F0CFF805F007F905F034
:101BC00023F9BDE8104005F03DB972B6FEE700000C
:101BD00010B558B1084C491E0BD310F8013B5340C7
:101BE000DBB234F8133083EA1222F4E74FF6FF70C9
:101BF00010BD104610BD000010EC000810B5064CDA
:101C000004E000BF10F8013B5340E25C491E89B27A
:101C1000F8D2104610BD000010EB00080269916870
:101C2000B1F9001001F50063B3F5805F08D9002910
:101C300001DD012300E0CB175B4201EB033109B268
:101C400000EE101AD168B8EEC00A81ED010A0069F1
:101C500081684069498801807047000070B5054679
:101C6000C46803F0D9FD2869D4F8BC320322416866
:101C7000806891ED031AD0ED050A90ED030A04F592
:101C8000137104F502709847BDEEC00A034A216A39
:101C900010EE100A22F8110070BD0000A80000200C
:101CA00070B50546C46803F0B7FD2869D4F8BC32A6
:101CB00001224168806891ED011AB0F90610B0F96F
:101CC000020000EE101A04F59E71F8EEC00A00EE54
:101CD000100A04F1F800B8EEC00A9847BDEEC00A39
:101CE000034A216A10EE100A22F8110070BD0000AC
:101CF000A800002070B50546846803F02BFE286913
:101D0000D4F8BC3203224168806891ED021AD0ED0C
:101D1000040A90ED020A04F5137104F50270984765
:101D2000BDEEC00A034A216A10EE100A22F8110023
:101D300070BD0000A000002070B50546846803F067
:101D400009FE2869D4F8BC3201224168806891ED0F
:101D5000001AB0F90410B0F9000000EE101A04F5F2
:101D60009E71F8EEC00A00EE100A04F1F800B8EE19
:101D7000C00A9847BDEEC00A034A216A10EE100A55
:101D800022F8110070BD0000A000002090F8202073
:101D9000012A07D0022A05D0416A41F4802141621C
:101DA00001207047006842690A4342610020704781
:101DB000F0B590F820500468A468012D05D0022DDC
:101DC00003D0416A41F4802153E014F0406F01D107
:101DD000E5004BD5C4F30164022C03D9416A41F4F8
:101DE000000146E00125A5401D608D684FF4C073D9
:101DF0009DB1CE6835434E6845EAC605066803EBDB
:101E00000417F5514FF4C275076805EB04150E6908
:101E10007E51097D012905D009E00E88CD6845EA8B
:101E20004655EBE701684E5946F480764E511179DC
:101E3000D2F805504FF4C67641EA0525016806EB55
:101E400004168D511178D2F801204FF4C47541EA7F
:101E50000221026805EB04155151006803EB0411DF
:101E6000425842F0010242500020F0BD416A41F464
:101E7000001141620120F0BD10B590F82020012A28
:101E800007D0022A05D0416A41F480214162012035
:101E900010BD3B48D0F8002242F00102C0F80022F9
:101EA000D0F8002222F47C52C0F80022D0F80022A0
:101EB0004B6A42EA0322C0F800220A7D02F01F03A7
:101EC00001229A40D0F81C329343C0F81C32CB69EF
:101ED000B3B9D0F80C329343C0F80C328C894B68FC
:101EE00064F31F434C6900EBC404C4F840320C890E
:101EF0000B6864F31F434C6900EBC404C4F844321C
:101F0000CB69012B16D1D0F80C321343C0F80C3238
:101F10000C884B6864F31F434C6900EBC404C4F89D
:101F200040320C89CB6864F31F434C6900EBC40456
:101F3000C4F844328B69002BD0F804320ED013431E
:101F4000C0F804320B69002BD0F8143208D01343C8
:101F5000C0F81432096A012904D008E09343EFE77E
:101F60009343F5E7D0F81C121143C0F81C12D0F8C7
:101F7000001221F00101C0F80012002010BD000085
:101F800000640040704730B590F82040012C05D027
:101F9000022C03D0416A41F480215DE004680029ED
:101FA00055D02469A40754D04FF4D874056804EBC5
:101FB00001142D5915F00405956005682D594ED072
:101FC000ED08556005682C5904F00204D4604FF404
:101FD000DA74056804EB01142D5905F00F0515613D
:101FE00005682D59C5F30725956105682C59240C02
:101FF00054614FF4DC72046802EB0112A4581C70A7
:102000000468A458240A5C700468A458240C9C70CA
:102010000468A258120EDA704FF4DE72046802EB04
:102020000112A4581C710468A458240A5C71046845
:10203000A458240C9C710468A258120EDA7100682E
:1020400081B1016941F020010161002030BDE468E7
:10205000A8E7416A41F400114162012030BD6D0DD5
:102060001560AFE7C16841F02001C160EDE72DE9DF
:10207000F05F0546006800244669D0F80490876840
:10208000D0F80CB0D0F810A0D0F81880F10748D0E4
:10209000F90714D001218160B80703D5284600F064
:1020A00050FA0CE0780702D54FF4006407E03807D7
:1020B00002D54FF4805402E0284600F041FAF805BA
:1020C00016D529684FF480708860B80503D5284676
:1020D00000F039FA0CE0780502D544F4005407E02A
:1020E000380502D544F4804402E0284600F02AFA7C
:1020F000F80316D529684FF480308860B80303D5FB
:10210000284600F022FA0CE0780302D544F400449B
:1021100007E0380302D544F4803402E0284600F09A
:1021200013FA300707D55FEACB6004D52968102081
:1021300044F40074C86070074FF0080707D55FEAE1
:102140000B7004D52868C760284600F099F9B007DD
:1021500006D52868C068800702D0284600F092F9AA
:10216000700607D55FEACA6004D52968102044F4D8
:1021700080640861B00607D55FEA0A7004D5286854
:102180000761284600F0ACF9F00606D5286800691A
:10219000800702D0284600F0A4F9B00308D55FEA12
:1021A000C96005D5296810204860284600F09AF9D2
:1021B000F00307D55FEA097004D528684760284610
:1021C00000F0C4F9300446D55FEA497040D5F00507
:1021D00004D55FEAC87001D044F00104B00504D50D
:1021E0005FEA887001D544F00204700504D55FEA07
:1021F000487001D544F00404300529D518F0700F5B
:1022000026D008F07000402815D006DC102809D030
:1022100020280AD0302816D10AE050280ED0602895
:1022200011D10EE044F008040DE044F010040AE07F
:1022300044F0200407E044F0400404E044F080044B
:1022400001E044F480742868816921F070018161A3
:10225000296804204860002C05D0686A2043686221
:102260002846FFF78FFEBDE8F09F70B5040003D04D
:1022700094F8200010B104E0012070BD204600F069
:1022800081F82068016841F00101016000F03CFC28
:102290000546052604E000F037FC401B0A2811D84B
:1022A00020684068C007F6D02068016821F002016C
:1022B000016000F029FC05460BE000F025FC401B06
:1022C0000A2806D9606A40F40030606284F8206011
:1022D000D2E7206840688007EFD4207E012820687C
:1022E00001683DD021F080010160607E01282068F6
:1022F000016838D021F040010160A07E01282068EB
:10230000016833D021F020010160E07E01282068BF
:1023100001682ED041F010010160207F0128206863
:10232000016829D021F008010160607F0128206840
:10233000016824D021F004010160D4E902010843BE
:10234000D4E90412114308436168491E0843216817
:10235000C86100206062012084F82000002070BD68
:1023600041F08001C0E741F04001C5E741F02001A4
:10237000CAE721F01001CFE741F00801D4E741F0AE
:102380000401D9E7F0B587B0044614216846FEF78A
:1023900055F9364B3648DFF8D0E01968D4F800C05C
:1023A000334A03250226092710300024491CF4452E
:1023B00022D11960012907D1016841F00071016043
:1023C000006800F000700590106840F00800106090
:1023D0001068CDE9005600F00800CDE904706946A8
:1023E0002448CDE9024500F091FA0022052114208D
:1023F00000F04AFC142032E0DFF87CE0F44530D1F4
:10240000D0F800C04CF0806CC0F800C0D0F800C01C
:1024100001290CF0806CCDF814C0196007D1016857
:1024200041F000710160006800F0007005901068D4
:1024300040F002001060106802AB00F0020005904E
:102440006020CDE9000683E8B00069460B4800F043
:102450005DFA00220521402000F016FC402000F02B
:1024600005FC07B0F0BD0000006400401000002033
:1024700030380240000C0240006800400004024076
:1024800070470000134910B588420ED1124B00214D
:102490001C46A3F11C02FFF776FD0F4821461C38AD
:1024A0000068BDE81040FEF7D1BD0C4988420FD14D
:1024B000094B002124331C46A3F11C02FFF763FDE6
:1024C0000548214608300068BDE81040FEF76EBEA2
:1024D00010BD000094230020E0690020BC230020F0
:1024E000704770477047000070B5044690F82000B0
:1024F000012804D0606A40F40020606218E00220E5
:1025000084F820002068016821F00101016000F0DA
:10251000FBFA05460EE000BF00F0F6FA401B0A2861
:1025200008D9606A40F400306062052084F8200019
:10253000012070BD20684068C007EDD1606270BDA9
:1025400070477047704770477047704770472DE974
:10255000F0410446876D00F0D7FA064694F835003E
:102560000025022806D08020606584F834500120C0
:10257000BDE8F0812068016821F016010160206843
:10258000416921F080014161206C08B9A06C20B143
:102590002068016821F0080101602068016821F0CD
:1025A000010101600CE000F0AFFA801B052807D99B
:1025B00020206065032084F8350084F83450D7E784
:1025C00020680068C007EED194F85C103F20884076
:1025D000B860012084F8350084F834500020C7E743
:1025E00090F83510022903D0802141650120704701
:1025F000052180F835100068016821F001010160B3
:10260000002070472DE9F84304464FF00009CDF84B
:10261000009063484FF41651A56D0068B0FBF1F7C8
:102620002E6894F85C10082000FA01F131420FD0B6
:1026300021680A6852070BD50A6822F004020A6072
:1026400094F85C108840A860606D40F001006065FF
:1026500094F85C104FF0010808FA01F0304208D0FD
:1026600021684969090604D5A860606D40F0020040
:10267000606594F85C1004208840304208D02168DE
:102680000968890704D5A860606D40F004006065A2
:1026900094F85C1010208840304218D021680968F6
:1026A000090714D5A86020680168490304D50068AB
:1026B000000308D5A16C07E00168C90503D40168CF
:1026C00021F008010160216C09B12046884794F887
:1026D0005C1020208840304231D021680968C9064A
:1026E0002DD5A86094F8350005282068016806D02B
:1026F000490347D5006800031DD4616C1CE021F03C
:10270000160101602068416921F080014161206C5F
:1027100008B9A06C20B12068016821F008010160AF
:1027200094F85C103F208840A86084F8358084F8D5
:102730003490216D1FE0E16B09B120468847606D40
:1027400000282BD0606DC00714D0052084F8350018
:102750002068016821F0010101600098401C009090
:10276000B84203D820680068C007F6D184F83580E5
:1027700084F83490E16C002910D001B02046BDE807
:10278000F04308470168C905D5D4016821F010015C
:10279000016084F8358084F83490CCE7BDE8F88394
:1027A000200000202DE9F041044600F0ADF9064676
:1027B0005CB1022084F83500002584F8345020688C
:1027C000016821F0010101600DE00120BDE8F08108
:1027D00000F09AF9801B052805D9202060650320A8
:1027E00084F83500F2E720680068C007F0D122685D
:1027F000116820480140D4E901031843D4E90336A5
:102800003343184363691843A3691843E3691843C2
:10281000236A18430843616A042903D1D4E90B13DE
:1028200019430843106020684069666A20F0070178
:1028300030460E43012704280CD1A06A0643E06A03
:1028400040B12046FFF7ECF820B14020606584F8E5
:102850003570BAE7206846612046FFF7CDF894F856
:102860005C203F2191408160656584F835700020CF
:10287000ACE700003F8010F02DE9F0410446866D82
:1028800090F83400002501280DD0012084F8340090
:1028900094F835700020012F07D084F83400022509
:1028A0002846BDE8F0810220FBE7022784F8357056
:1028B00060652046FFF7DEF894F85C103F20884002
:1028C000B0602068016841F016010160206C20B101
:1028D0002068016841F0080101602068016841F04A
:1028E00001010160DCE7000070B5044600F00CF95E
:1028F0000546601C02D004480078044400F004F946
:10290000401BA042FAD370BD140000202DE9F84FFF
:10291000DFF8BCA1002201250AF1040B03264FF0C9
:102920000F090BF1040E00BF0B6805FA02F42340F7
:10293000A34270D10F7907F00307012F01D0022FB6
:1029400016D187684FEA420806FA08FC27EA0C0706
:10295000D1F80CC00CFA08FC4CEA070CC0F808C00F
:102960004768A7430C79C4F3001494403C43446087
:102970000C79E443A4070AD0C4684FEA420C06FA73
:102980000CF7BC438F6807FA0CF72743C7600C7934
:1029900004F00304022C12D1D40800EB840CDCF800
:1029A00020405707FF0E09FA07F824EA0804D1F877
:1029B000108008FA07F848EA0408CCF82080046878
:1029C0004FEA420C06FA0CF7BC430F7907F00307F5
:1029D00007FA0CF7274307604C6814F4403F70D0A7
:1029E0003C4C276847F480472760246822F003079F
:1029F00004F480440094384C07EB040CDCF80848DD
:102A000097074FEA177809FA08F7BC43334FB842E3
:102A100002D1002724E054E0314FB84201D1012710
:102A20001EE0304FB84201D1022719E02E4FB842C4
:102A300001D1032714E02D4FB84201D104270FE044
:102A40002B4FB84201D105270AE02A4FB84201D1E5
:102A5000062705E0284FB84201D1072700E00827E4
:102A600007FA08F72743CCF80878DAF80040574609
:102A7000D1F804C09C435FEACC3C00D51C433C60C9
:102A8000DBF800405F46D1F804C09C435FEA8C3C11
:102A900000D51C433C60DEF800407746D1F804C006
:102AA0009C435FEACC2C00D51C433C60084F0C379C
:102AB0003C68D1F804C09C435FEA8C2C00D51C43D1
:102AC0003C60521C102AFFF42FAFBDE8F88F0000C5
:102AD000003C014044380240003001400000024008
:102AE0000004024000080240000C024000100240B6
:102AF0000014024000180240001C02400AB181612B
:102B000070470904FBE70000014880687047000037
:102B10001400002070B5040011D021684CF6CC40A0
:102B20000860216845F255500860D4E90001416011
:102B30002168A0688860FFF7E7FF05460DE00120E7
:102B400070BD00BFFFF7E0FF401B312805D92068AA
:102B5000C068800701D0032070BD2068C06880076E
:102B6000F0D121684AF6AA200860002070BD0068F4
:102B70004AF6AA21016000207047000002488168DF
:102B80000278114481607047140000200B4810B592
:102B9000016841F400710160016841F480610160E5
:102BA000016841F480710160032000F08DF80F206E
:102BB00000F006F800F03EF8002010BD003C024096
:102BC00010B5014688B000221C2000F05DF81C20E2
:102BD00000F04CF814480024016841F00101016044
:102BE000006805A900F001000690684600F02AF987
:102BF00000F048F90D494000B0FBF1F10C484FF0EE
:102C00008042491E026040F2E732C0E90324C0E975
:102C1000011400F041FB10B1012008B010BD0448C0
:102C200000F068FBF9E700004038024040420F0026
:102C3000A42800200C4882B0016841F48041016062
:102C4000006800F4804000900748001F016841F0D0
:102C5000805101600068002200F0805000900F2138
:102C6000901E02B000F010B844380240002809DB82
:102C700000F01F02012191404009800000F1E02096
:102C8000C0F8001170470000F0B40E4B1B680C46F2
:102C9000C3F30223C3F10705042D00D90425191D30
:102CA000072901D2002300E0DB1E012606FA05F108
:102CB000491E214099409E40761E16403143F0BC8B
:102CC00004F076B90CED00E0064900F00702086850
:102CD0004FF6FF03184040EA0220034A1043086001
:102CE000704700000CED00E00000FA05BFF34F8FC5
:102CF00005480168054A01F4E06111430160BFF332
:102D00004F8F00BFFDE700000CED00E00400FA0566
:102D10002DE9F0470E46050065D0DFF81481D8F89C
:102D20000000F7B200F00700B04207D288F8007048
:102D3000D8F8000000F00700B04254D128683D4C9C
:102D4000810712D5400703D5206840F4E050206089
:102D50002878000703D5206840F460402060206890
:102D6000A96820F0F000084320602878C0072DD023
:102D7000304968680839012812D0022813D0032886
:102D800011D00968890700292DDA216821F0030193
:102D900001432160FFF7B8FE814641F2883A0EE018
:102DA00009688903EFE709688901ECE7FFF7ACFEE2
:102DB000A0EB0901514502D90320BDE8F087206846
:102DC000696800F00C00B0EB810FEFD1D8F800106B
:102DD000404601F00701B14207D90770006800F0D2
:102DE0000700B04201D00120E7E72878400705D569
:102DF0002068E96820F4E050084320602878000744
:102E000006D52068296920F4604040EAC1002060AE
:102E100000F058F82168084AC1F30311515CC8401A
:102E20000649086006480068FFF7CAFE0020C4E7AC
:102E3000003C024008380240F8EA00082000002068
:102E4000180000200F2202600C4A136803F00303ED
:102E50004360136803F0F0038360136803F4E053E6
:102E6000C36012684FF4E05303EAD20202610448DF
:102E7000006800F007000860704700000838024052
:102E8000003C02400448054900680968044AC1F34F
:102E90008221515CC8407047200000200838024061
:102EA00008EB00080448054900680968044AC1F3B2
:102EB0004231515CC8407047200000200838024071
:102EC00008EB0008154810B5006810F00C02144813
:102ED00013D01449042A0FD0082A0ED10F4C241FF6
:102EE0002268236802F03F025B0207D52068C0F326
:102EF0008810A0FB010106E0084610BD2168C1F35F
:102F00008811A1FB00010023FDF788FA2168C1F3B5
:102F10000141491C4900B0FBF1F010BD08380240E6
:102F20000024F40040787D012DE9F84F04006ED0B4
:102F30002078DFF84C93C007A9F104054AD009F1C5
:102F400004000168C1F38101012908D00068C0F3C1
:102F5000810002280AD1D9F80000400206D528686D
:102F6000800337D560680028E1D033E06068B0F5B1
:102F7000803F10D0B0F5A02F286810D020F480300A
:102F80002860286820F4802028606068A8B1FFF7D6
:102F9000BBFD06460DE0286840F48030F4E740F4BD
:102FA00080202860F7E700BFFFF7AEFD801B642894
:102FB00073D828688003F7D50CE0FFF7A5FD064617
:102FC00005E000BFFFF7A0FD801B6428F0D828684B
:102FD0008003F7D42078DFF8AC8280074FF0000A36
:102FE0003ED5A748001D016811F00C0F08D00068FD
:102FF000C0F3810002280BD1D9F80000400207D4A9
:103000002868800716D5E068012800D112E033E176
:10301000E068B8B10120C8F80000FFF775FD06466A
:1030200005E000BFFFF770FD801B0228C0D82868AC
:103030008007F7D52868216920F0F80040EAC10030
:1030400028600DE0C8F800A0FFF75EFD064604E02A
:10305000FFF75AFD801B02281FD828688007F7D485
:103060002078000722D5864F87486169703771B193
:1030700001210160FFF748FD064604E0FFF744FD2B
:10308000801B022809D838688007F7D50EE0C0F801
:1030900000A0FFF739FD064605E082E0FFF734FDAA
:1030A000801B02287DD838688007F7D42078400735
:1030B00068D5DFF8CCB100270BF13C0BDBF8000042
:1030C000C0000BD4DBF8001041F08051CBF80010A9
:1030D000DBF80000012700F0805000906B4E306854
:1030E000C00510D4306840F480703060FFF70CFDEC
:1030F000009005E0FFF708FD0099401A022850D81B
:103100003068C005F6D55E4EA0686C3601280FD039
:103110000528306810D020F001003060306820F0C1
:1031200004003060A068B8B1FFF7EEFC00900FE03B
:10313000306840F00100F4E740F004003060F7E749
:10314000FFF7E2FC0099411A41F28830814266D8CB
:1031500030688007F4D50EE0FFF7D6FC009007E05A
:10316000FFF7D2FC0099411A41F28830814256D8CB
:1031700030688007F4D42FB1DBF8001021F08051C3
:10318000CBF80010A069C8B33D49091D0968C1F317
:10319000810102294AD00228504607D0C8F86000B1
:1031A00000E03CE0FFF7B0FC04463BE04746C8F8CF
:1031B0006000FFF7A9FC064605E000BFFFF7A4FC8E
:1031C000801B02282BD828688001F7D4D4E9070196
:1031D0000843A16A2E4A490802EB0141626A41EAAA
:1031E0008211084394F82C1040EA0161C9F80010DC
:1031F00001203866FFF788FC044606E03EE000BF89
:10320000FFF782FC001B022809D828688001F7D547
:1032100034E000BFFFF778FC001B022802D903202E
:10322000BDE8F88F28688001F4D427E00128F7D0A2
:10323000D9F80000E26900F4800191421CD1226AB1
:1032400000F03F01914217D147F6C071626A014018
:10325000B1EB821F10D1A26A4FF0FF3300F440316E
:1032600003EB5202B1EB024F06D194F82C1000F0A0
:103270007060B0EB016F01D00120D1E70020CFE7F3
:103280000438024000004742800E47420070004070
:103290000000FFFF7047704710B5040003D094F89A
:1032A0003D0010B107E0012010BD002084F83C0073
:1032B000204600F01EF8022084F83D00211D206801
:1032C00003F0CCFA012084F8460084F83E0084F82C
:1032D0003F0084F8400084F8410084F8420084F8FC
:1032E000430084F8440084F8450084F83D00002041
:1032F00010BD704790F83D10012901D001207047A2
:10330000022180F83D100168CA6842F00102CA60DB
:1033100000681149884214D0B0F1804F11D00F4994
:1033200088420ED00E4988420BD00E49884208D000
:103330000D49884205D00D49884202D00C49884287
:1033400004D1816801F00701062903D0016841F02A
:1033500001010160002070470000014000040040AE
:1033600000080040000C0040000401400040014003
:1033700000180040704770B50446006801694FF0BE
:103380000005C943890715D4C168C943890711D409
:10339000E91E0161012020772068806980072046AE
:1033A00002D0FFF7E7FF04E000F098F8204600F0B5
:1033B00096F8257720680169C943490717D4C16881
:1033C000C943490713D46FF004010161022020773B
:1033D0002068806910F4407F204602D0FFF7CAFFC2
:1033E00004E000F07BF8204600F079F825772068AB
:1033F0000169C943090716D4C168C943090712D432
:103400006FF008010161042020772068C0698007FF
:10341000204602D0FFF7AEFF04E000F05FF8204640
:1034200000F05DF8257720680169C943C90617D403
:10343000C168C943C90613D46FF0100101610820A7
:1034400020772068C06910F4407F204602D0FFF743
:1034500091FF04E000F042F8204600F040F82577A4
:1034600020680169C943C90708D1C168C943C907B0
:1034700004D1891E0161204600F032F820680169FC
:10348000C943090609D4C168C943090605D46FF0C8
:10349000800101612046FFF7FDFE20680169C943F4
:1034A000490609D4C168C943490605D46FF04001F3
:1034B0000161204600F01BF820680169C9438906B4
:1034C0000BD4C168C943890607D46FF0200101619C
:1034D0002046BDE87040FFF7DEBE70BD7047704704
:1034E0000068B0F1804F01D1FFF748BB70477047CB
:1034F00070477047F8B5016804460868CA684B69A8
:1035000010F00F0F4FF000055AD003F0010602F43F
:103510009077374365D0C10705D0D10503D5216C1D
:1035200041F001012164410705D5D90703D0216C81
:1035300041F002012164810705D5D90703D0216C30
:1035400041F004012164010707D502F02001314355
:1035500003D0216C41F008012164216C00293BD08B
:10356000800604D5900602D5204603F0DFFA2068D5
:103570004069216CC0F3801001F00801014320462E
:103580002BD003F09EFA20684069400621D52068C0
:10359000143050E8001F21F0400140E80012002ADA
:1035A000F5D1A06BA8B16C490165A06BFFF718F8C5
:1035B000002811D0A06B016D01B0BDE8F0400847B4
:1035C00083060ED593060CD52046BDE8F84003F0DF
:1035D000ADBA2046FFF78DFFF8BDFFF78AFF2564DF
:1035E000F8BD266B2023012E79D1C60677D5D606E5
:1035F00075D50868486800904869400640D5A16BB9
:10360000086840680004000CEAD0A28D8242E7D925
:10361000E085C869B0F5807F2DD020680C3050E877
:10362000001F21F4807140E80012002AF5D12068C3
:10363000143050E8001F21F0010140E80012002A78
:10364000F5D12068143050E8001F21F0400140E817
:103650000012002AF5D184F83E30256320680C3032
:1036600050E8001F21F0100140E80012002AF5D1B7
:10367000A06BFEF76CFFA08DE18D401A81B229E0AE
:10368000A08DE18D401A81B2E08D0028A8D00029DC
:10369000A6D020680C3050E8002F22F4907240E849
:1036A0000026002EF5D12068143050E8002F22F0BB
:1036B000010240E80026002EF5D184F83E30256353
:1036C00020680C3050E8002F22F0100240E8002360
:1036D000002BF5D12046FFF70BFFF8BDFFE70506ED
:1036E0002BD5150629D594F83D002128F5D1A068E1
:1036F000B0F5805F01D12069B0B1206A411C216220
:10370000216800784860E08C401E0004000CE084D2
:10371000E3D12068C16821F08001C1602068C168E0
:1037200041F04001C160D8E7206A0088C0F308007A
:103730004860206A801C2062E5E74006CDD550062F
:10374000CBD5CA68204622F04002CA6084F83D30DA
:1037500000F092FAC1E700001D6A000870B504008D
:1037600004D094F83D00002510B106E0012070BDA2
:1037700084F83C50204600F023F8242084F83D00D3
:103780002068C16821F40051C160204603F02EFA80
:103790002068016921F4904101612068416921F0AC
:1037A0002A0141612068C16841F40051C16025646B
:1037B000202084F83D0084F83E00002070BD000009
:1037C0002DE9F04F87B0044614216846FCF736FF18
:1037D000F748DFF8D88310380222D4F800C0F44B41
:1037E0000321DFF8D0E30025960607154FF4807912
:1037F0004FF0400AC44557D1D3F800C0A8464CF456
:10380000002CC3F800C01B6803F400230593036871
:1038100043F001030360006800F0010005908DE8AB
:1038200026000820CDE9031069467046FFF76EF8C0
:10383000DFF888B3E0495846CBF80010C0E90165CD
:10384000C0E90357CBF81450C0E90659CBF8205013
:10385000CBF82450FEF7A6FF08B1FEF7B6F9D74D16
:10386000D548C4F838B060353030CBF8384085E8FA
:103870004104C5E90387C5F81480C5F81880C5F868
:103880001C80C5F820802846C5F82480FEF78AFFF2
:1038900008B1FEF79AF96563002205213420AC6374
:1038A000FFF7F2F9342073E0DFF81483C44575D1D3
:1038B000D3F800C000254CF4801CC3F800C01B687E
:1038C00003F480130593036843F004030360036863
:1038D00003F004030593036843F0080303600068E2
:1038E0004FF0080800F0080005904FF48050CDE933
:1038F00000020320CDE9025093466946CDF81080BE
:10390000B048FFF703F80420CDE9000B0320CDE910
:1039100002506946CDF81080AB48FEF7F7FFDFF89C
:103920009C82A54908F1C00830394046C8F800100B
:10393000C0E90165C0E90357C8F81450C0E9065949
:10394000C8F82050C8F82450FEF72CFF08B1FEF745
:103950003CF999489D4DC4F838807830C8F8384013
:1039600085E841040020C5E903076861A861E861B2
:10397000286268622846FEF715FF08B1FEF725F9B0
:103980006563002205213520AC63FFF77DF9352002
:10399000FFF76CF907B0BDE8F08FFFE7DFF8308282
:1039A0004FF0070BC4455ED1814BA8461B1DD3F8D1
:1039B00000C04CF0100CC3F800C01B6803F01003EB
:1039C0000593036843F0010303600068CDE90251E9
:1039D00000F0010005904FF4C060CDE90002CDF881
:1039E00010B069467046FEF791FFDFF8E0B1794903
:1039F0000BF1600B5846CBF80010C0E90165C0E937
:103A00000357CBF81450C0E90659CBF82050CBF837
:103A10002450FEF7C7FE08B1FEF7D7F86B4D6D488E
:103A2000C4F838B0C0357830CBF8384085E8410468
:103A3000C5E90387C5F81480C5F81880C5F81C804F
:103A4000C5F820802846C5F82480FEF7ABFE08B1F3
:103A5000FEF7BBF86563002205212520AC63FFF764
:103A600013F9252094E7DFF87081C4453FD1D3F8DE
:103A700000C04CF4003CC3F800C01B6803F40033E2
:103A80000593036843F0010303600068CDE9025128
:103A900000F0010005900C20CDE90002CDF810B037
:103AA00069467046FEF732FF4349DFF830814831FE
:103AB0004046C8F80010C0E90165C0E90357C8F8DE
:103AC0001450C0E90659C8F82050C8F82450FEF731
:103AD00069FE08B1FEF779F8C4F8388000220521A4
:103AE0002620C8F83840FFF7CFF8262050E7DFF847
:103AF000F080C4457FF44EAFD3F800C04CF4802C66
:103B0000C3F800C01B6803F480230593036843F0E7
:103B1000020303600068CDE9025100F00200059045
:103B20004FF44060CDE90002CDF810B069462D4851
:103B3000FEF7ECFEDFF8A4B01F490BF1600B18395B
:103B40005846CBF80010C0E90165C0E90357CBF82F
:103B50001450C0E906594FF40039CBE90895B8462E
:103B6000FEF720FE08B1FEF730F81C4FC4F838B05D
:103B7000C037CBF83840C7E903587D61BD61C7E95C
:103B800007590D487D62183087E841043846FEF732
:103B900009FE08B1FEF719F8676300220521272006
:103BA000BC63FFF771F82720F2E60000004C0040EC
:103BB000403802400000024040600240442500209E
:103BC0000050004000080240000C02406426002023
:103BD000001001404064024000440040842700205F
:103BE00000480040000402407047000070B50446E1
:103BF00090F83D00202836D191B38AB394F83C0068
:103C0000012830D0012084F83C002162A284E284A3
:103C100000252564212084F83D00636B1348D86398
:103C2000636B13481864636B1248D864606B134667
:103C300005652668606B321DFEF71EFE21686FF079
:103C40004000086084F83C502068143050E8001FA1
:103C500041F0800140E80012002AF5D1002070BD3B
:103C6000FFE70120FBE70220F9E70000776A000880
:103C7000B96A00082D6A000870477047FEE710B562
:103C800001F018F801F04EFDBDE8104002F010B947
:103C900010B5084C0020616809690870064802F0F8
:103CA000F1FC002804D060684178012900D101703E
:103CB00010BD0000DC200020CC00002070B50446C0
:103CC00041680D4800250A784068012A807805D0AF
:103CD000012805D1FFF7DCFF657070BD012806D013
:103CE0000120607025700D706068457070BD2046C1
:103CF000BDE8704002F088BCCC00002070B50D4CCF
:103D00000025C4F8B4520C48016821F0404101601C
:103D1000016841F080410160C4F8BC52022004F502
:103D20002D7405F04FFA01202060022005F04AFAB8
:103D3000256070BD008040420004024070B50D4C0B
:103D40000025C4F8B4520C48016821F040410160DC
:103D5000016841F0804101600126C4F8BC62022084
:103D600004F52D7405F02EFA2660022005F02AFADB
:103D7000256070BD00804042000402402DE9F047FC
:103D8000814616480024016821F040410160016825
:103D90000160134E254627464FF00108C6F8B4725D
:103DA000022005F00FFAC6F8B4826006040ED6F8B9
:103DB0003C0208B1641CE4B2012005F003FA6D1C5A
:103DC000EDB2082DEAD3B9F1000F04D0FFF796FF4A
:103DD0002046BDE8F087FFF7B1FFF9E70004024095
:103DE000008040422DE9F04106461448016821F068
:103DF00040410160016841F080410160104C0027A2
:103E0000C4F8B4723D464FF00108F009C4F8BC0292
:103E10007006060E022005F0D5F9C4F8B48202201F
:103E200005F0D0F9C4F8B472022005F0CBF96D1C8E
:103E3000EDB2082DE9D3BDE8F08100000004024096
:103E40000080404270B50D48016821F0404101609A
:103E5000016841F080410160094C0120C4F8BC02B6
:103E6000C4F8B402042004F52D7405F0ABF9002564
:103E7000A560042005F0A6F9256070BD000402408D
:103E8000008040420E4810B5016821F040410160B9
:103E9000016841F0804101600A4C0020C4F8B4027E
:103EA000C4F8BC02042004F52D7405F08BF9012040
:103EB0002060A060BDE81040042005F083B9000038
:103EC000000402400080404270B51248002401689E
:103ED00021F040410160016801600F4D0126C5F8E5
:103EE000BC62304605F06EF9C5F8B462012005F0F9
:103EF00069F907E0641CE4B2FA2C03D9FFF7C2FFAA
:103F0000012070BDD5F83C020028F3D1C5F8B402F9
:103F100070BD00000004024000804042074909686B
:103F200091F86910052908D2DFE801F003050305BF
:103F30000500022100E0032141707047CC00002001
:103F400030B51649096891F881200021052A0AD266
:103F5000DFE802F0030A030A0A004268D26811711E
:103F600040688068C17130BD42680123D268137116
:103F700042689268D479012C0ED05479012C00D07B
:103F800000249579012D00D000252C4304D05171D7
:103F900040688068817130BDD37130BDCC00002095
:103FA0000A49096891F8331002290CD2DFE801F0C0
:103FB0000B014178022906D1406801218068C2794D
:103FC000012A01D00170704781717047CC00002038
:103FD000134910B50968002391F851201149022AAC
:103FE00009D2DFE802F001094278022A03D04068D2
:103FF000406803700B6010BD4278022AFBD10A684A
:10400000521C0A6012F0010106D00029F3D040686A
:1040100001214068017010BD40684068037010BD08
:10402000CC000020D82000200949096891F85710D9
:10403000022909D2DFE801F0080140680121C068C7
:104040000279012A01D081707047C1707047000069
:10405000CC00002007490968C97E052908D2DFE89D
:1040600001F007030703030040680121C0680170E5
:1040700070470000CC0000200949096891F8211020
:10408000012905D0022908D0032901D0042903D130
:10409000012140680069017070470021F9E70000C4
:1040A000CC0000200A49096891F8271002290CD297
:1040B000DFE801F00B014178022906D140680121B7
:1040C0008068C279012A01D0417070474171704700
:1040D000CC0000200849096891F8391005290AD256
:1040E000DFE801F0030503050500002100E00121E0
:1040F0004068006941707047CC0000200849096899
:1041000091F87B200021052A07D2DFE802F003079F
:104110000307070040684068817070470121F9E794
:10412000CC00002010B50446FFF794FF2046FFF7AF
:10413000A3FF2046FFF7B6FF2046FFF731FF2046DA
:10414000FFF746FF2046FFF7E9FE204600F014F88F
:104150002046FFF7BFFF2046FFF766FF2046FFF728
:10416000CDFF2046FFF7ECFE204600F02FF820465A
:10417000BDE8104000F014B80849096891F86F10C4
:10418000022909D2DFE801F008014178022903D1B0
:10419000406801218068817070470000CC000020D9
:1041A0000949096891F8631002290CD2DFE801F08F
:1041B000010540680021C06804E04068C0680179DA
:1041C000012900D141717047CC00002009490968DC
:1041D00091F85D1002290CD2DFE801F0010540687A
:1041E0000021C06804E04068C0680179012900D15D
:1041F00081717047CC00002010B5014644694068C9
:10420000C26AB2F9000000F5FA53B3F57A5F09D932
:10421000002801DD012000E0C0174FF4FA5310FB25
:1042200003F010804868D4F8B812C06AB0F90000F2
:1042300000EE100A2046B8EEC00A8847BDEEC00A5C
:10424000034A216A10EE100A22F8110010BD000086
:10425000A800002010B5014684694068C26AB2F91E
:10426000020000F5FA53B3F57A5F09D9002801DDA1
:10427000012000E0C0174FF4FA5310FB03F0508008
:104280004868D4F8B812C06AB0F9020000EE100A0B
:104290002046B8EEC00A8847BDEEC00A034A216A2C
:1042A00010EE100A22F8110010BD0000A800002036
:1042B00070B50546FFF7C6FD0F4C20784006000E8E
:1042C000FFF790FDFFF700FE2846FFF78BFDFFF795
:1042D000FBFDFFF7B7FD2078012101EB4000C0B2E4
:1042E000FFF780FDFFF7F0FD0020FFF747FD0446D4
:1042F000FFF7C8FD204670BDF00100202DE9F04118
:1043000016460D460746FFF79DFD134C20784006E4
:10431000000EFFF767FDFFF7D7FD3846FFF762FD98
:10432000FFF7D2FDFFF78EFD2078012101EB400061
:10433000C0B2FFF757FDFFF7C7FD002406E00120DC
:10434000FFF71CFD641C05F8010BE4B2B442F6D380
:10435000BDE8F041FFF796BDF0010020104810B510
:104360000E4901600321416000214FF40022816069
:10437000C0E903124FF440124261017601224276F5
:104380008276C17601774277FDF76FFF002803D070
:10439000BDE81040FDF719BC10BD000000640040EE
:1043A00094230020104810B50E490160032141609C
:1043B00000214FF400228160C0E903124FF4401243
:1043C00042610176012242768276C2760177427797
:1043D000FDF74BFF002803D0BDE81040FDF7F5BB0B
:1043E00010BD000000680040BC2300202D4808B527
:1043F000016841F400110160016801F400110091AD
:10440000016841F4800101600068002200F480002E
:10441000009005210B20FEF737FC0B20FEF726FC51
:10442000002205210C20FEF72FFC0C20FEF71EFCBD
:10443000002205210D20FEF727FC0D20FEF716FCBB
:10444000002205210E20FEF71FFC0E20FEF70EFCB9
:10445000002205210F20FEF717FC0F20FEF706FCB7
:10446000002205211020FEF70FFC1020FEF7FEFBB6
:10447000002205212F20FEF707FC2F20FEF7F6FB78
:10448000002205213A20FEF7FFFB3A20FEF7EEFB63
:10449000002205214620FEF7F7FBBDE80840462034
:1044A000FEF7E4BB3038024010B59CB01C22164920
:1044B0006846FCF76FF80021684606F08FFC134C45
:1044C00011491C2220601C3107A8FCF763F8002169
:1044D00007A806F083FC0C4960601C2238310EA846
:1044E000FCF758F800210EA806F078FC0649A060F9
:1044F0001C22543115A8FCF74DF8002115A806F030
:104500006DFCE0601CB010BD80EA000800000020D7
:1045100070B586B014216846FCF790F82448002551
:10452000016841F080010160016801F0800105919E
:10453000016841F001010160016801F0010105918C
:10454000016841F002010160016801F0020105917A
:10455000016841F004010160016801F00401059166
:10456000016841F0080101600068124E00F0080087
:10457000059001224FF470413046FEF7BFFA4FF428
:10458000A0400124CDE900040220CDE902406946A3
:104590003046FEF7BBF94FF420408DE83100032090
:1045A000039069463046FEF7B1F906B070BD0000D1
:1045B0003038024000040240094810B50749016044
:1045C0000021416040F6FF718160FEF7A3FA0028E8
:1045D00003D0BDE81040FDF7F8BA10BD0030004030
:1045E000E42300200C4810B50A4901604FF4E13182
:1045F0004160002181600C22C160C0E90412816128
:10460000C161FFF7ABF8002803D0BDE81040FDF70B
:10461000DCBA10BD004C0040F02300200C4810B55F
:104620000A4901604FF4E1314160002181600C22B0
:10463000C160C0E904128161C161FFF78FF80028F1
:1046400003D0BDE81040FDF7C0BA10BD00500040D7
:10465000342400200C4810B50A4901604FF4E131C0
:104660004160002181600C22C160C0E904128161B7
:10467000C161FFF773F8002803D0BDE81040FDF7D3
:10468000A4BA10BD00100140782400200D4810B5D8
:104690000B4901600C49416000214FF48062816048
:1046A000C0E903120C22C0E90521C161FFF756F8E9
:1046B000002803D0BDE81040FDF787BA10BD000008
:1046C00000440040BC240020A08601000C4810B526
:1046D0000A4901604FF4E1314160002181600C2200
:1046E000C160C0E904128161C161FFF737F8002899
:1046F00003D0BDE81040FDF768BA10BD0048004087
:1047000000250020FEE700000E4A516849688B78BA
:104710004168012B08D0B7EE000A00BF81ED000A06
:10472000C068018A31B902E0B0EE000AF6E7408ABB
:10473000002806D05168002089684871516889684E
:1047400088717047DC2000202DE9F04FDFF82084CD
:1047500004462DED0A8B8DB000263746B146D8F8B9
:104760001000C068049090ED010ABDEEC00A10EE82
:10477000100A00B2824609F01CFE9FEDFE1B53ECAE
:10478000112B09F041FE9FEDFD1B53EC112B09F09D
:104790003BFE09F0ADFB0546206802789FEDF98AE3
:1047A000DFF8E4B372B1012A20D0DFEDF80A9FED03
:1047B000F80AF848022A0178584600682CD0032AE3
:1047C00014D17FE0606840F2DC55F34B4168002073
:1047D000086048608860A2681168491C1160A2687E
:1047E000A94204D118605860481E1060BCE162689C
:1047F0009268B2F900C0B2F90280B2F90420C44450
:104800006244C82A04DCA94202D218605860ABE1B5
:10481000E068416C8847A7E111B10129E6D10BE0BE
:10482000606840688188408901EB4101890000EBA4
:1048300040000EB2800096E130F92E1F01EE101AF2
:10484000F8EEC11A81EEA01A21EE001ABDEEC11ACF
:1048500011EE101A06FA81F1B0F9182001EE102AB3
:10486000F8EEC11A81EEA01A21EE001ABDEEC11AAF
:1048700011EE102A891AB0F91E2009B201EE102A91
:10488000F8EEC11A81EEA01A21EE001ABDEEC11A8F
:1048900011EE102A07FA82F2B0F9120001EE100AA6
:1048A000B8EEC11AC1EE201A21EE800ABDEEC00A90
:1048B00010EE100A00EE101A101A626800B2D2ED63
:1048C000000A70E011B1012990D180E028460AF079
:1048D0005BF841EC100B02F0F3FFDBF80000B0EEE8
:1048E000409AF0EE609A5E46B0F9040009F061FD6E
:1048F00053EC192B09F088FD41EC1A0B28460AF0FD
:1049000043F841EC100B02F077FF3068B0EE409AAC
:10491000F0EE609AB0F9060009F04BFD53EC192B4C
:1049200009F072FD53EC1A2B09F044FF09F012FD57
:1049300007B228460AF028F841EC100B02F0C0FF3D
:104940003068B0EE409AF0EE609AB0F9060009F0D7
:1049500030FD53EC192B09F057FD41EC1A0B28469A
:104960000AF012F841EC100B02F046FF3068B0EE8E
:10497000409AF0EE609AB0F9040009F01AFD53EC89
:10498000192B09F041FD53EC1A2B09F0E3FA09F059
:10499000E1FCD8F8101000B2C96891ED000A60EE91
:1049A000080A00EE107AB8EEC00A20EE800ABDEECA
:1049B000C00A10EE101A00EE100A0EB2B8EEC00ACD
:1049C00020EE800ABDEEC00A10EE100ACBE030F9EE
:1049D0002E1F01EE101AB8EEC11A81EE202A9FEDAB
:1049E0006F1AB0F91820F0EE411A42EE001AFDEEEF
:1049F000E11A11EE901A01EE902A09B2F8EEE11ACE
:104A000081EEA02A01EE901AF8EEE11A42EE401A69
:104A1000FDEEE11A11EE901A09B20391B0F91E10E1
:104A2000B0F9120001EE901AB8EEE12AC2EE201A97
:104A300001EE801ABDEEC11A11EE101A01EE100A35
:104A400009B2F8EEC11A81EEA01A00EE901AF8EE43
:104A5000E00A41EE400ABDEEE00A10EE100A06B28E
:104A60006068006809F090FF41EC1A0B0498006838
:104A700009F08AFF41EC190B284609F085FF41EC4B
:104A8000100B02F01DFFB0EE40BAF0EE60BA3046F7
:104A900009F08FFC074653EC1B2B009109F0B4FC86
:104AA00041EC1B0B284609F06FFF41EC100B02F0A4
:104AB000A3FEB0EE40CAF0EE60CA039809F079FC9C
:104AC00053EC1C2B09F0A0FC53EC1B2B09F072FEDD
:104AD00053EC192B09F098FC53EC1A2B09F094FCB9
:104AE00009F038FC06B26068006809F04DFF41EC3F
:104AF0001A0BD8F81000C068006809F045FF41ECB7
:104B0000190B284609F040FF41EC100B02F0D8FECB
:104B1000B0EE40BAF0EE60BA304609F04AFC53EC11
:104B20001B2B09F071FC41EC1B0B284609F02CFFF4
:104B300041EC100B02F060FE009953EC102B41EC9D
:104B4000117B51EC110B09F05FFC53EC1B2B09F0AE
:104B500001FA53EC192B09F057FC53EC1A2B09F00E
:104B600053FC09F0F7FB07B220684078052817E0EE
:104B7000381F0020000000000000303F6E861BF050
:104B8000F92109407CF04141CC00002000007A442A
:104B90000000FA45DC20002090000020000000000A
:104BA00041D2DFE800F00340091F600033490020D4
:104BB00049684968087036E03048007810B101282B
:104BC00031D10AE0DBF80000B0F9000000EE100A75
:104BD000B8EEC00A20EE080A1FE0DBF8040090EDF2
:104BE000030A1AE000EE10AA0AF16300C628B8EE24
:104BF000C00A33D9F1EE080ABAF1000F20EE200AFC
:104C000001DD012001E04FEAEA7000EE900A9FED1D
:104C10001C1AF8EEE00A00EEC10ABDEEC00A10EE62
:104C2000100A0FFA80F9E16806EBD670401008828E
:104C300007EBD7704110E06841820A2199FBF1F03F
:104C4000E16888820D484078012812D0E068416C04
:104C50000DB0BDEC0A8BBDE8F04F0847F0EE080A36
:104C600020EE200AD9E76068DFED060A90ED000A21
:104C7000F6E70DB0BDEC0A8BBDE8F08FDC2000201C
:104C8000000096430000484510B5044600F074F853
:104C9000204600F0D3F8054841688978012903D1FE
:104CA00003490068C968C86310BD0000FC200020EB
:104CB000301E002010B50B4C2046D4F8A0128847B7
:104CC000D4F8701504F534708847D4F8401804F50A
:104CD000B460884704F50760D4F8101BBDE81040A5
:104CE00008470000F40100202DE9F0411E4C204649
:104CF000D4F89C12884704F53470D4F86C15074634
:104D0000884704F5B460D4F83C180646884704F593
:104D10000760D4F80C1B05468847D4F8A422134931
:104D200004F12C009047D4F87425104904F53F7025
:104D30009047D4F844280D4904F2CC509047D4F859
:104D4000142B0A4904F69C00904709480749C0E91A
:104D50000047C0E9026507481C31C860026CBDE825
:104D6000F041034910470000F4010020141E002008
:104D7000606D00200401002030B52F4C40680022F7
:104D800021684068B1F906100180B0F90230A1EB4A
:104D9000030379B103F11E053C2D09D9002B01DD78
:104DA000012300E0DB17C3EB031301EB4301018098
:104DB000418010E003F12805502D0AD9002B01DDB8
:104DC000012300E0DB17C3EB031301EB8301018038
:104DD00001E0028042802168B1F90410C18091B1E4
:104DE000B0F908208A1A02F11E033C2B09D9002AC7
:104DF00001DD012200E0D217C2EB021201EB4201F9
:104E0000C180018113E0B0F90830CB1A03F1280406
:104E1000502C0AD9002B01DD012200E0DA17C2EB89
:104E2000021201EB8201C18001E0C280028101888F
:104E30008180C188418130BDCC00002070B5C2683E
:104E40001168B1F902305168B1F902409168D26835
:104E50001D1BB1F90210B2F902200D44AD1AEE1774
:104E600005EB967546681C44AD10B668631A9B1A2C
:104E70003580DD1703EB957345689B102144AD68C1
:104E80001144CA176B80406801EB927189108068E9
:104E9000818070BD30B51B4901234C7864B100227C
:104EA000012C0ED0022C11D0032C04D10268022157
:104EB00011700068417030BD01680B70006843706C
:104EC00030BD01680A700068427030BD0568032477
:104ED0002C7005686C704C68A468A478012C01D112
:104EE000046863704B685B681B78012BEDD1006828
:104EF0000423437048688068427148688068827102
:104F000030BD0000DC20002010B50748FFF7FCFB97
:104F10000548FFF7BFFF0448FFF7B6FEBDE81040A5
:104F20000148FFF711BC0000301E00202DE9F047BA
:104F30000446407A01264FF0DC0940F6C4180025EB
:104F400030B101280AD002280CD003284BD17AE0D6
:104F50002069A549006A21F8105044E06068C06AE1
:104F600085803DE06068818A012908D0022909D046
:104F700003290AD00A290CD0C06A85802DE0C0F828
:104F8000189008E04FF4AF7101E04FF402718161B5
:104F900001E0C0F818806068406A407901281FD09D
:104FA0002068C169491CC16161684EF2C000C96ACC
:104FB000888020686168C0698969884208D2206950
:104FC00064229FED8A0AD0F8CC320121984738B18B
:104FD0006068C06A85802068C5616068406A467103
:104FE000204601F0C9FA607A032798B3012844D01B
:104FF000022850D0032824D16068C06AC580206888
:105000000561206805626068406A85716068406A71
:1050100005712046FCF7AEFD607A022811D1606868
:10502000416A8A79012A0CD14979012909D167722B
:10503000406A45716068406A85716D484068C06823
:10504000C570BDE8F0876068C06A85806068406AA6
:105050004571C5E7FFE7E0686649006A21F810502E
:105060006068406AC5706068406A057120680561C3
:105070002068C56020680561CEE76068406AC57039
:105080006068406A0571206805612068C560206815
:1050900005616772D5E76068416A4A79012A08D0DC
:1050A0002268D3698269323A934202D2828A022A02
:1050B0006BD3C97801293DD0828A48F2C821012AE0
:1050C0001DD0022A1FD0032A25D00A2A28D0227AEE
:1050D000032A2BD0C5616168C1F820906068816A9D
:1050E000C269C06A8968114481606068C160606893
:1050F000406AC6706068816A8968016145E0C16183
:105100004FF4C87004E04EF66021C1614FF4FA70AC
:1051100061680862E2E73849C1614FF41670F7E749
:105120003649C1616168C1F82080D7E7C161206854
:105130008562D0E7E06850229FED310AD0F8CC328A
:1051400002219847E8BB6068416A0979012939D092
:10515000E16891ED620AB5EEC00AF1EE10FA01DCE9
:10516000B1EE400A10EE101A264A91420DDCC16AD7
:10517000826A89689268891A81606068406AC5702D
:105180006068406A86712068C56021680869401CB3
:105190000861D4E90012126A90420ED1CD602068F5
:1051A00005616068406AC5706068406A0571606842
:1051B000816AC06A8968816067722046FCF7C2FC18
:1051C0002AE7FFE76068406A8178012903D0C67149
:1051D0006068406A86716068406A05716068816ACB
:1051E000C06A8968C8E70000980000200000FA4300
:1051F000DC200020A00000204019010020BF020098
:1052000000007A4400007A4430B53D4B9FED3D0AE2
:1052100059688A6800215478012C08D104696468AF
:10522000D4ED020A70EEC00AC4ED020A517014787F
:10523000012C08D104696468D4ED020A30EE800ABA
:1052400084ED020A11709478012C32D14568AC6863
:10525000A4B1641CAC60856895ED840AB5EEC00A03
:10526000F1EE10FA01DCB1EE400A10EE105AB5F181
:10527000804F12DC9170426891601AE00269DFEDA4
:10528000220A526892ED020A30EE200A82ED020AEA
:1052900042689468641C94600BE040F2DC55AC42B8
:1052A00007D30469A568646895ED020A84ED020AD3
:1052B000E0E75C682269157841F28832012D03D05D
:1052C0000578022D02D108E0042404705C68A4680B
:1052D000A1715B689B68597106E0A1688B79012B0D
:1052E00005D04979012905D00069028030BD41F21D
:1052F000887101E040F688710069018030BD0000CE
:10530000DC20002000003442000034432DE9F0414D
:10531000037804469FEDC60ADFEDC60A9FEDC61A64
:10532000C74DC64E0027D5E900103278DFF8148348
:10533000052B09D2DFE803F0030942707F00A06863
:10534000C149006A21F81070B8E020690121826823
:10535000BA48B2F9003040686433C82B04D8B2F9B7
:1053600002206432C82A25D963685A68A2F5806C85
:10537000BCF5EE7C1ED0521C5A602069406880ED5E
:10538000000A2069406880ED010A2046FCF7D4FC41
:105390002046FCF785FC20698168406891ED020A8F
:1053A00080ED020A20698168406891ED030A80ED72
:1053B000030A83E0417060684760DEE712B1012AAA
:1053C0001ED10EE0B1F9000000EE100A2069B8EE1F
:1053D000C00A406880EE201A90ED020A31EE000A01
:1053E00009E090ED030A2069C0EE010A406890EDE3
:1053F000020A30EE800A80ED020A2046FCF77AFCB1
:10540000206981684068B1F9001000EE101AB8EE0A
:10541000C00A80ED000A51E02069406880ED000A72
:105420002046FCF789FC20698168406891ED020AFA
:1054300080ED020A42E0D8F804C043469CF802C05E
:10544000BCF1010F06D1D3F814C09CF80CC0BCF11C
:10545000010F03D04AB1012A22D115E0D8F8080083
:1054600090ED000A2069406818E0B1F9000000EEF4
:10547000100A2069B8EEC00A406880EE201A90ED4C
:10548000020A31EE000A09E090ED030A2069C0EE3D
:10549000010A406890ED020A30EE800A80ED020AAF
:1054A000206981684068B1F9001000EE101AB8EE6A
:1054B000C00A80ED000A2046FCF71CFC20789FED16
:1054C000630AF3EE090A9FED621A052809D2DFE8A4
:1054D00000F003080A3F6C00E0685E49006A21F8AA
:1054E0001070BDE8F081307810B1012824D111E0AE
:1054F0002868B0F9020000EE100AB8EEC00A9FED6D
:10550000561A2069C0EE010A406890ED030A30EE99
:10551000800A0CE06868D0ED040A9FED501A2069FB
:1055200080EE810A4068D0ED030A30EEC00A80EDBB
:10553000030A2046FCF792FB206981684068B1F9B4
:10554000021000EE101AB8EEC00A80ED010AC8E79A
:10555000307810B1012820D10FE02868B0F902009E
:1055600001EE100A2069F8EEC11A406881EE801A37
:1055700090ED010A01EE200A0AE0686890ED040A45
:105580002069C0EE010A406890ED010A30EE600A21
:1055900080ED010A2046FCF783FB206981684068A2
:1055A00091ED030A80ED030A9BE7D8F8041040460A
:1055B0008978012903D14169097B012904D0307818
:1055C00048B1012824D116E0D8F8080090ED010A6E
:1055D000206940681AE02868B0F9020001EE100A5C
:1055E0002069F8EEC11A406881EE801A90ED030A36
:1055F00001EE200A0AE0686890ED040A2069C0EE16
:10560000010A406890ED030A30EE600A80ED030A5B
:10561000206981684068B1F9021000EE101AB8EEF6
:10562000C00A80ED010A2046BDE8F041FCF716BB38
:10563000000000000000FA440000FA43DC200020D3
:10564000CC0000200C210020A000002000401C46BF
:1056500000803B45A80000200040034500007A443C
:1056600010B504468068216900888968088021692E
:10567000E068896800884880294822694168926802
:1056800091ED180ABDEEC00A10EE101A9180416823
:10569000226991ED160A9268BDEEC00A10EE101A4A
:1056A000D180416891ED0F0A2169896881ED020A74
:1056B00021694068896890ED0D0A81ED030A21692E
:1056C00090ED180A896881ED040A90ED160A2069A8
:1056D000806880ED050A2069018880680288891A3F
:1056E0000180204600F036F92069418880684288B0
:1056F000891A4180204600F08FF8206940F6FE723A
:105700008168B1F9001001F2FF71914202D9BFEE38
:10571000000A01E0B7EE000AC06880ED000A10BD83
:10572000EC00002010B5064C2046D4F8A0128847A3
:1057300004F53470D4F87015BDE810400847000037
:10574000340D002070B5214C04F53470D4F86C157C
:10575000054604F52774884721681C488847A268D5
:105760001B491C4890471A491A481C31A268443802
:1057700090471749D4F8D822383117489047144930
:1057800015485431D4F8D822443890471049A268BB
:105790007031124890470E4910488C31A268443845
:1057A00090470B49D4F8D822A8310D4890470849B2
:1057B0000B48C431D4F8D8224438A4F52774904754
:1057C0000348E030C0E9024570BD0000340D002000
:1057D000581E0020700E002040110020800F002075
:1057E00050120020C168C97D19B18168C97D0029A6
:1057F0000ED1084949684A78012A09D142681268DD
:10580000032A05D800224A7040680168491C0160DB
:1058100070470000DC20002010B500694FF0FF3415
:105820004FF08B438168B1F9022000EE102AB8EEE8
:10583000C00A15E0B5EEC00AF1EE10FA01DD012252
:1058400007E0B5EEC00AF1EE10FA01D2224600E000
:105850000022520300EE902AF8EEE00A30EE600AD1
:10586000B5EEC00AF1EE10FA02DDF0EE400A01E0FA
:10587000F1EE400A10EE902A9A42DBDCBDEEC00A3F
:10588000154C164B10EE102A4A80426892ED010A20
:1058900010EE101AA14202DD9FED110A05E010EE94
:1058A000101A994201D99FED0F0A0F4B82ED010AA0
:1058B00041680E4A91ED030A10EE100A984202DD8B
:1058C0009FED0B0A05E010EE100A904201D9BBEEE5
:1058D000090A81ED030A10BD008036440000E1C3CF
:1058E000008036440000E1C3000018420000C8C137
:1058F000000018420A494A7842B1012A08D0022A17
:105900000CD0032A01D10321017070470121FBE76C
:105910000022027048680069027070470221F3E7B4
:10592000DC20002010B50A48FFF7E4FF0848FFF725
:105930006BFC0748FFF794FE0548FCF76FF9044835
:10594000FFF7E4FCBDE810400148FFF74BBF000043
:10595000381F002030B500695F494FF0FF3382687F
:1059600092ED020A19E000BFB5EEC00AF1EE10FA9E
:1059700001DD012407E0B5EEC00AF1EE10FA01D214
:105980001C4600E000244FF4B47514FB05F400EE4F
:10599000904AF8EEE00A30EE600AB5EEC00AF1EE89
:1059A00010FA02DDF0EE400A01E0F1EE400A10EEDE
:1059B000904A8C42D8DC82ED020A426892ED020ADB
:1059C00019E000BFB5EEC00AF1EE10FA01DD0124C6
:1059D00007E0B5EEC00AF1EE10FA01D21C4600E075
:1059E00000244FF4B47514FB05F400EE904AF8EE71
:1059F000E00A30EE600AB5EEC00AF1EE10FA02DD00
:105A0000F0EE400A01E0F1EE400A10EE904A8C42BE
:105A1000D8DC82ED020A8268B2F9001000EE101A9A
:105A20004FF08B41B8EEC00A16E000BFB5EEC00AD9
:105A3000F1EE10FA01DD012407E0B5EEC00AF1EE47
:105A400010FA01D21C4600E00024640300EE904AE4
:105A5000F8EEE00A30EE600AB5EEC00AF1EE10FA98
:105A600002DDF0EE400A01E0F1EE400A10EE904A4D
:105A70008C42DBDCBDEEC00A10EE104A1480406898
:105A800090ED000A16E000BFB5EEC00AF1EE10FA84
:105A900001DD012207E0B5EEC00AF1EE10FA01D2F5
:105AA0001A4600E00022520300EE902AF8EEE00AC7
:105AB00030EE600AB5EEC00AF1EE10FA02DDF0EE4B
:105AC000400A01E0F1EE400A10EE902A8A42DBDC47
:105AD00080ED000A30BD00000000344303484168F7
